:1000000097110010938101801721001013018101C5
:1000100017050010130505FF9755000093854576D9
:1000200017060010130686FE637CC50083A2050038
:10003000232055001305450093854500E368C5FE60
:1000400013858180970500109385C5FD6378B50001
:100050002320050013054500E36CB5FE13050000E1
:100060009305000013060000EF0080006F00000001
:10007000130101812326117E2324817E2322917E78
:100080002320217F232E317D232C417D232A517D66
:100090002328617D2326717D2324817D2322917D68
:1000A0002320A17D130101FA13040102130684FE2B
:1000B000930544FE1305E10423220100EF30D04FE5
:1000C00013051000EF30003E2316A1001305200099
:1000D000EF30403D2317A10013053000EF30803C86
:1000E0002318A10013054000EF30C03B2324A102D8
:1000F0001305500013040182EF30C03A6314050069
:10010000130570002326A1028327C47E638407366B
:10011000130710006380E76E13080105137A1500BA
:1001200023160104232A047F9378250093060A00EE
:10013000937C4500639A0814638E0C1813091A0007
:100140009309007D33DC290323228103631E0A5CAB
:10015000B30E8A03330FD8012320E1038323C102A6
:1001600093FF1300638E0F000316C47E8325847FE4
:1001700003254102EF10400D8323C1022328A10271
:1001800013F723006312071693F44300638A0400F5
:10019000032601028315C47E03254102EF2090400F
:1001A000832581021309C100639C05041306100016
:1001B0002324C1021309C1000328810293182800D7
:1001C000B3860801139516002324A102EF30903A5C
:1001D00013050900EF10403CEF30903AEF30503BF0
:1001E000EF30503CE30A05FC9309A00033DAA90282
:1001F000832A8102130B1A00B30B5B0323247103C0
:10020000EF30503713050900EF100039EF30503749
:10021000EF301038130B05000315C47E9305000062
:10022000378C0000EF30D011930505000315E47EF4
:10023000930C5CB0EF30D010930505000315047FDC
:10024000EF3010109305050003154102EF30500FF9
:10025000930B0500630C955763ECAC0AB7220000C2
:100260001383228F630A6554B75500001386F5EA9D
:10027000631CC520375900001305C9E4EF40801AFC
:10028000930420006F00400B130A1A0063880C02CD
:10029000138B2600930B007D33DC6B032322810339
:1002A000639E0646930C4000338D8603330EA801EF
:1002B000232EC47FE3840CEA6FF09FE9930A007D4C
:1002C00033DC4A0323228103E38006FE232C047FD0
:1002D0006FF09FFD1305007D2322A102E3000AE8D1
:1002E000232C047F6FF09FE78317E47E8312C47E84
:1002F0008325C47F0325410213930701336653000E
:1003000093064103EF10C04D8323C1026FF0DFE776
:10031000379E0000930E2EA06304D54DB7FF00005A
:1003200013875F9F6312E516B7570000138507E830
:10033000EF40400F93043000B70C001003A80C00EE
:10034000630A084CB7580000B75600009399140090
:1003500013854833138A8632B30A3501330A3A01CA
:10036000130D0000130900006F004003B384240143
:10037000939F24003307F4019307F77F03DFD7022D
:10038000330CAF0183A40C00130D190013190D01D8
:1003900013590901130D0C00637E990E9314490043
:1003A000338E2401931E2E00330FD401B71F00009B
:1003B000338CEF01032ECC8023160C8213771E00A2
:1003C0006308070203566C8283D60A006302D602D2
:1003D000B75700001385C7ED93050900EF4080046F
:1003E0008352CC82032ECC801383120023166C829E
:1003F00093732E0063820304B385240113962500B2
:100400003308C400B7180000338C080103568C82EF
:1004100083560A006302D602375500001305C5F063
:1004200093050900EF4000008356CC82032ECC8058
:10043000938E16002316DC83137F4E00E3080FF221
:10044000B382240113932200B75300003716000033
:10045000B30564001388C331330CB600B308380108
:100460000356AC8283D608006314D62C035FCC827B
:100470006FF01FF18315047FE39005CA1306600631
:100480002318C47E6FF05FC9B70C0100138CFCFF0A
:10049000B70C0010EF30900D83254102B7590000D2
:1004A00033098501138509F7EF30D077B75A00007B
:1004B00093050B0013858AF8EF30D07613050B00F7
:1004C000EF30500E375A00009305050013050AFA65
:1004D000EF30507513050B00EF30D00C6318052872
:1004E00013050B00EF30100C130B90006376AB2656
:1004F0008323810283A50C003756000013180901DD
:10050000B385B30213050601135D0841EF30907106
:10051000B75800003755000093858802130545033E
:10052000EF305070B7560000375E00009385C60468
:100530001305CE08EF30106FB75E0000375F000084
:1005400093854E0A1305CF0AEF30D06D93850B00CB
:10055000B75B000013854B0CEF30D06C0327C10252
:1005600093741700638C040483A90C006388090446
:10057000B75A0000138C0A0E930B0000371A0000C4
:10058000939F4B0033877F0193172700B302F4003A
:10059000330B5A0003566B8293850B0013050C0036
:1005A000EF30506813831B0083A30C001319030161
:1005B000935B0901E3E67BFC0327C10293752700E7
:1005C000638C050403A60C00630A0624B7580000D8
:1005D0009389C80F130A0000B71A000013154A00C8
:1005E000B3064501139E2600B30EC401338FDA0112
:1005F00003568F8293050A0013850900EF3090623D
:1006000093041A0083AF0C00139C0401135A0C01CD
:10061000E366FAFD0327C10293774700638A070464
:1006200083A20C00638E0208375B000013098B1154
:10063000930A0000B71B000013934A00B303530151
:10064000939523003306B4003388CB000356A88269
:1006500093850A0013050900EF30D05C93881A00D7
:1006600003A50C009399080193DA0901E3E6AAFCBB
:1006700083A60C00375E0000130C4E13130B000012
:10068000371A0000638E0602931E4B00338F6E01F3
:10069000931F2F003307F401B307EA0003D6478204
:1006A00093050B0013050C00EF30D05793041B008B
:1006B00003A90C009392040113DB0201E3662BFDF6
:1006C000630C0D0C6352A00F375D000013050D2065
:1006D000EF3050551305E104EF30C06E13010106F1
:1006E0008320C17E0324817E8324417E0329017EF1
:1006F0008329C17D032A817D832A417D032B017DCE
:10070000832BC17C032C817C832C417C032D017CB9
:10071000130500001301017F67800000232C047F74
:10072000930C40006FF05FB8232C047F6FF05FA242
:1007300037550000130505F493050900EF30904E7E
:100740008356CC82138E1600931E0E0113DF0E010A
:100750002316EC836FF0DFC237530000130503FD4F
:10076000EF30504C130919006FF09FD8832F81028E
:1007700003A70C0013050B00338CEF02EF308062EF
:1007800093070500B7520000138582FBB355FC02A6
:10079000EF3050496FF0DFD4B75B000013850B15C5
:1007A000EF3050486FF01FF3B75C00001385CC1991
:1007B000EF3050476FF01FF2B7530000138503EB83
:1007C000EF305046930440006FF01FB7375D0000D4
:1007D00013050DE2EF301045930410006FF0DFB504
:1007E000375F000013050FDFEF30D04393040000A4
:1007F0006FF09FB48312047FE39002923733153475
:1008000093035341930460062326747E2318947E39
:100810006FF09F90130C00006FF0DFC71378470054
:10082000E30808E46FF0DFE9630A0600031525001A
:10083000839525003305B5406780000083170500C8
:100840009396070113F707F093D28601336357009D
:1008500023106500839305000315250013980301F9
:1008600013F603F093588801336E16012390C501E7
:10087000839525003305B54067800000031F050000
:1008800093577F4093F21700638602001375FF07AA
:100890006780000013573F401373F700130101FEF8
:1008A00093134300232C810033067300232E110081
:1008B000232A910093767F0083D7850393880500D0
:1008C0001304050013070600638E060813051000C5
:1008D0006392A60813858802138607009305070014
:1008E0002326E10123241101EF2000488328810001
:1008F000931E0501032FC10003DEC80393D40E41EC
:1009000063140E0A83D78803239EA80293850700E9
:10091000232611012324E101EF20103E83228100D0
:100920008326C1009307050013F702F013F5F407BF
:100930003363E500239CF602936303088320C1011F
:100940002310740003248101832441011301010257
:1009500067800000931F0F0113D50F0193040F0050
:100960006FF0DFFA9304100263E4C400130720025F
:1009700083A54801839628000396080003A58801F3
:100980002326E10123241101EF2090168328810002
:1009900013180501032FC10083D5E80393540841C0
:1009A00063940500239FA80283D788036FF01FF686
:1009B000130101FE232A910093840500930506008C
:1009C000232E1100232C81002326C100EFF01FEB02
:1009D0008325C1001304050013850400EFF01FEA0E
:1009E0008320C1013305A4400324810183244101F4
:1009F0001301010267800000130101FB2320210580
:100A0000232A51032328610323248103232611046D
:100A10002324810423229104232E3103232C410318
:100A200023267103232291032320A103232EB10146
:100A300013090500130C1000138B0500930A060020
:100A40006308091E2326010093040000930B000095
:100A50008327C10013777C001308090093821700D5
:100A60002326510013040000630407086356800F17
:100A700003280900130410006300080E630A8706A8
:100A8000930620006300D706130630006306C704F0
:100A900013034000630C6702930350006302770264
:100AA000130560006308A7000328080013840600EC
:100AB0006304080A0328080013041400630E0808DE
:100AC000032808001304140063080808032808001A
:100AD0001304140063020808032808001304140018
:100AE000630C0806032808001304140063060806B4
:100AF00063548407032808001304140093050400BA
:100B0000630C080403280800130414006306080497
:100B10000328080013842500630008040328080044
:100B200013843500630A0802032808001384450073
:100B3000630408020328080013845500630E0800AC
:100B400003280800138465006308080003280800D0
:100B500013847500E31E08F893090900130A0C00BA
:100B6000130908006354800263040A006318090231
:100B7000938604001304F4FF9384090083A90900F9
:100B80006388060423A09600E34080FEB33720016B
:100B90006350400963800708630A0404930DF4FF5F
:100BA00093FC7D00638E0C1E8325490003A549003C
:100BB00013860A00E7000B006350A0089386040028
:100BC000130AFAFF9304090003290900E39C06FABB
:100BD000938B04006FF01FF923A0A401B337200109
:100BE00093040D0063040A0263820702130D0900D7
:100BF000130AFAFF03290900E39004FE930B0D008A
:100C0000B337200193040D00E3100AFE93040D0096
:100C1000E39007E40329C10023A00400930210001D
:100C20006304592E13890B00131C1C00E31C09E0FC
:100C3000232000007300100003AD090013840D0091
:100C4000638C0400938604009384090023A096001B
:100C500093090D006FF05FF3938B090093840900F3
:100C60006350B02B9308100093090D00638A1C1386
:100C7000130E20006380CC11930E30006386DC0DD0
:100C8000130F4000638CEC09930F50006382FC0744
:100C9000130760006388EC028325490003254D009B
:100CA00013860A00E7000B00E34AA0F0032D0D00B5
:100CB0001384FDFFE3980BF8938B090093840900DC
:100CC00093090D008325490003254D0013860A0072
:100CD000E7000B00E344A0EE032D0D001304F4FF26
:100CE000E39204F6938B09009384090093090D00A5
:100CF0008325490003254D0013860A00E7000B00F9
:100D0000E34EA0EA032D0D001304F4FFE39C04F26C
:100D1000938B09009384090093090D0083254900F2
:100D200003254D0013860A00E7000B00E348A0E806
:100D3000032D0D001304F4FFE39604F0938B0900D8
:100D40009384090093090D008325490003254D0074
:100D500013860A00E7000B00E342A0E6032D0D0016
:100D60001304F4FFE39004EE938B090093840900CD
:100D700093090D008325490003254D0013860A00C1
:100D8000E7000B00E34CA0E2032D0D001304F4FF79
:100D9000E39A04EA938B09009384090093090D00F8
:100DA0008325490003A5490013860A00E7000B00CC
:100DB000E346A0E01304F4FF03AD0900930D040023
:100DC000E39204E8938B090093840900635A80122C
:100DD0008325490003254D0013860A0093090D0061
:100DE000E7000B00E34CA0DC032D0D001304F4FF1F
:100DF000E39A0BE48325490003254D0013860A007E
:100E0000938B09009384090093090D00E7000B0000
:100E1000E346A0DA032D0D001384EDFFE3940BE20B
:100E20008325490003254D0013860A00938B090092
:100E30009384090093090D00E7000B00E340A0D85C
:100E4000032D0D001384DDFFE39E0BDE8325490097
:100E500003254D0013860A00938B09009384090033
:100E600093090D00E7000B00E34AA0D4032D0D0009
:100E70001384CDFFE3980BDC8325490003254D0047
:100E800013860A00938B09009384090093090D00CF
:100E9000E7000B00E344A0D2032D0D001384BDFF37
:100EA000E3920BDA8325490003254D0013860A00DF
:100EB000938B09009384090093090D00E7000B0050
:100EC000E34EA0CE032D0D001384ADFFE39C0BD6A3
:100ED0008325490003254D0013860A00938B0900E2
:100EE0009384090093090D00E7000B00E348A0CCB0
:100EF000032D0D0013849DFFE3960BD46FF09FE943
:100F000093090D006FF09FC88320C104032481045E
:100F100083244104032901048329C103032A810393
:100F2000832A4103032B0103032C8102832C4102FA
:100F3000032D0102832DC10113850B00832BC102F8
:100F4000130101056780000003164500130101FD30
:100F5000232481022326110223229102232021032C
:100F6000232E3101032445026352C02A63C8052A97
:100F70006308042C93860500130E0000130F000075
:100F8000930E000093080000130300009307040071
:100F90006F00C00083A707006384070E03A7470004
:100FA00003182700E318D8FE930600006F008000A6
:100FB00013840200832204002320D400930604003B
:100FC000E39802FE6382070C83A34700938E1E0002
:100FD0008394030013F914006308090093D9944023
:100FE00093FF1900B388F80103A70700630C0700FB
:100FF0008322070023A05700832704002320F70043
:101000002320E4006340080493021E00939702012A
:1010100013081800931608019393020113DE074189
:1010200093D6064193D403016304C60913F3F40F66
:10103000E3DE06F4930F0300930704003788FFFFF5
:101040006F00000393091E00139E0901939F09017D
:10105000135E0E4113D70F01630AC605937FF70F86
:10106000930704006F00C00083A70700638C07028A
:1010700083A2470003C30200E318F3FF6FF0DFF21F
:10108000138806006FF05FF283260400130F1F0021
:1010900083A346008384130013F91400B388280146
:1010A0006FF05FF613830F006FF01FF093060800D8
:1010B00013962E00330FE641B38EE80193980E018C
:1010C00093D408016356B002B7150000130605005B
:1010D0009385059B13050400232661002324D1007A
:1010E000EFF09F910323C1008326810013040500C4
:1010F0000325040013090400832905000327450084
:1011000083AF490083A209002322F50123A2E9004D
:101110002320550023A0090063D806006F00800B30
:10112000032909006300090C0328490083132800E0
:10113000E398D3FE032644009385040003150600BC
:10114000EF2010200329090093040500E31409FE91
:101150000329040003A74900032F4900832E090037
:10116000B718000023A2E9012322E90023A0D90136
:10117000130504002320390193858882130600009B
:10118000EFF09F8703240500930905006300040224
:1011900003A549009385040003150500EF20501AAC
:1011A0000324040093040500E31404FE8320C10219
:1011B00003248102032901028329C101138504004C
:1011C0008324410213010103678000000329090001
:1011D000630A09008327490003CE0700E318C3FF11
:1011E0006FF05FF503290400E30809F603264400C5
:1011F0009385040003150600EF20901403290900CD
:1012000093040500E31809F26FF09FF4938605003C
:1012100093040000130300006FF0DFEA630204028E
:10122000138805009307040093080000930F000043
:10123000130F0000130E0000930E00006FF05FE329
:101240008327000073001000B7D7CCCC9382D7CC93
:10125000333855021385050023A005003787FFFFAB
:10126000930307089387050113838500B785FFFF64
:10127000935648001388E6FF93183800B30615010B
:101280002322D50023907600131E28002391060008
:10129000B383C601938E460063FAD72E1387860068
:1012A0006376772E23240500232065002326D501AD
:1012B00013CFF5FF930FF0FF2393E6012392F6017E
:1012C000130E000063080824B782FFFF93753800EF
:1012D00013C3F2FF638E050E930810006380150B95
:1012E000930E20006384D505138E8700637EDE0293
:1012F000930F470063FA7F02032F05009312360015
:1013000093F5820723A0E7012320F5009398850039
:1013100023A2E700B38E1501231167002310D70124
:1013200093070E0013870F00130E10009388870099
:1013300063F4D804130F470063707F04832F050004
:10134000B342CE009395320093FE850793727E00E0
:1013500023A0F701B3E55E002320F500939F8500ED
:1013600023A2E700B38EF5012310D70123116700F4
:101370009387080013070F00130E1E009388870041
:1013800063F4D804130F470063707F04832F0500B4
:10139000B342CE009395320093FE850793727E0090
:1013A00023A0F701B3E55E002320F500939F85009D
:1013B00023A2E700B38EF5012310D70123116700A4
:1013C0009387080013070F00130E1E006304C8154F
:1013D0009388870063F4D804130F470063707F0479
:1013E000832F0500B342CE009395320093FE85070C
:1013F00093727E0023A0F701B3E55E002320F50081
:10140000939F850023A2E700B38EF5012310D70137
:10141000231167009387080013070F009388870044
:10142000130E1E0063F4D804130F470063707F048B
:10143000832F0500B342CE009395320093FE8507BB
:1014400093727E0023A0F701B3E55E002320F50030
:10145000939F850023A2E700B38EF5012310D701E7
:10146000231167009387080013070F0093888700F4
:1014700063F6D804130F470063727F04930F1E00B6
:1014800083220500B3C5CF00939E350093F58E07E8
:1014900093FF7F0023A05700B3E5F5012320F5005B
:1014A0009392850023A2E700B38E55002310D70145
:1014B000231167009387080013070F0093888700A4
:1014C00063F6D804130F470063727F04930F2E0056
:1014D00083220500B3C5CF00939E350093F58E0798
:1014E00093FF7F0023A05700B3E5F5012320F5000B
:1014F0009392850023A2E700B38E55002310D701F5
:10150000231167009387080013070F00130E3E0096
:10151000E310C8ED8325050083A605006380060659
:10152000B7D3CCCC1383D3CCB33868023748000090
:10153000130EF8FF930300201307100013D32800A5
:101540006F0080009386070013FF0370B34FE6001F
:10155000B362FF0183A54500B3FEC2016374670057
:10156000930E070083A706002391D50113071700E8
:101570009383031093850600E39607FC371600005B
:1015800093058682130600006FF00FC713870E00C5
:10159000930703006FF0DFD2130101FE2326310110
:1015A0008329C501232E1100232C0502232E0502B9
:1015B0006382091E232C8100232A91002328210104
:1015C00093F739001304050093040000638E070AA3
:1015D00013091000638C270713072000638CE702B0
:1015E00093050900EFF05F96835584039304090087
:1015F000EF109070231CA4029305F0FF1305040064
:10160000EFF09F9483558403EF10106F231CA40206
:10161000231DA4029305100013050400EFF0DF92D0
:1016200083558403EF10506D231CA4029305F0FF33
:1016300013050400EFF05F9183558403EF10D06B26
:10164000231CA402638004189384140093051000E3
:1016500013050400EFF05F8F83558403EF10D0690A
:10166000231CA4029305F0FF13050400EFF0DF8DA7
:1016700083558403EF105068231CA402638C04126A
:101680009384140063869914232441019305100068
:1016900013050400EFF05F8B83558403EF10D065D2
:1016A000231CA4029305F0FF13050400EFF0DF896B
:1016B00083558403EF1050649302050093051000D6
:1016C000231C5402130504003389B40063940400FE
:1016D000231D5402EFF05F8783558403EF10D06120
:1016E000231CA4029305F0FF13050400EFF0DF852F
:1016F00083558403EF105060231CA4026314090077
:10170000231DA4029305100013050400B304B900BF
:10171000EFF09F8383558403130A2900EF10D05DF7
:10172000231CA4029305F0FF13050400EFF0DF81F2
:1017300083558403EF10505C13030500231C6402DF
:10174000930510001305040063940400231D640234
:10175000EFF08FFF8355840393043900EF10D059C5
:10176000231CA4029305F0FF13050400EFF0CFFD46
:1017700083558403EF105058231CA40263060A0209
:10178000E39699F003248101832441010329010197
:10179000032A81008320C1018329C10013050000B1
:1017A0001301010267800000231DA402E39099EE5B
:1017B0006FF05FFD231DA40293841400E39699EC5F
:1017C0006F000001231DA402938414006FF01FE832
:1017D0000324810183244101032901016FF09FFB50
:1017E000130101FD2324910223222103232031032D
:1017F0001308050093840600631406001306100006
:101800009386F5FF93F2C6FF138942009307000009
:101810006302082613850700938717003387F702B2
:1018200013133700E36803FFB303A5029393130078
:10183000B30679006302052623268102232C510179
:10184000232871012326810193090500130E150039
:1018500013141500938E0600930F000093071000D9
:101860003303D940B305FE4093F83500138F0700CA
:1018700013870E006386080C930A100063825809D0
:10188000930B2000638078053306F60213872E0041
:10189000135CF64113580C01B30206019395020143
:1018A00093D8050133860841B38AC700B38BFA0089
:1018B00023905E0113FCFB0F3308D30193871700BD
:1018C000231088013306F602B302E3001307270052
:1018D0009355F64193D80501B30A1601939B0A016B
:1018E00013DC0B0133061C413388C700B305F80035
:1018F000231F07FF93F8F50F93871700239012011A
:101900003306F602B302E30013072700935AF641A9
:1019100093DB0A01330C760113180C01935508016F
:1019200033867541B388C700B38AF800231F17FFB9
:1019300093FBFA0F93871700239072016380C70F00
:101940003306F60293821700B30BE3009388270057
:101950001388370013078700135CF641935A0C0174
:10196000B305560113960501135C0601B30A5C41E9
:1019700033865A02B3855701231CB7FE338CF5001A
:10198000937AFC0F23905B01938747009355F641B0
:1019900013DC050133068601931A060193D50A016B
:1019A000338C8541B3051C0333868201231DC7FE9A
:1019B000B302560093FAF20F23915B0113DCF54159
:1019C00013560C01B385C5009392050193DA020109
:1019D000338CCA4033060C03B3858801231EB7FE3F
:1019E000B388150193F2F80F23925B00935AF641E6
:1019F00013DC0A01330686019315060193D805010D
:101A000033868841B302C80033880201231F57FE82
:101A1000937AF80F23935B01E394C7F3938F1F002E
:101A2000B307E501330EAE00B38E8E00E39CAFE248
:101A30000324C102832A8101832B0101032CC100ED
:101A4000338F76009307FFFF13F7C7FF1303470099
:101A500023A2240123A0340123A6640023A4D400DC
:101A60000329410283248102832901021301010316
:101A7000678000009309F0FF23268102232C510187
:101A800023287101232681019386620013850900B2
:101A9000930320006FF09FDB930300009309000085
:101AA0006FF01FFA63040520931F2500931E150095
:101AB000130101FDB38FF501B38ED601130F0000A2
:101AC0003388DE409302E8FF13D312009303130020
:101AD00093171F0013FE7300B307F6001387060069
:101AE00093080000630E0E0C13081000630C0E0B1D
:101AF00093022000630C5E0813033000630C6E0633
:101B000093034000630C7E0413085000630C0E0323
:101B100093026000630C5E0083980700039E06003A
:101B20009387270013872600B388C8038393070091
:101B300003130700938727001307270033886302E6
:101B4000B388080183920700031E070093872700CC
:101B500013072700B383C203B388780003980700F4
:101B6000031307009387270013072700B3026802B7
:101B7000B3885800039E070083130700938727004C
:101B80001307270033087E02B388080183920700F9
:101B9000031307009387270013072700338E620281
:101BA000B388C801839307000318070013072700B1
:101BB00093872700B3820303B3885800638CEE0C2D
:101BC000232681022324910223222103232031038F
:101BD000232E4101232C5101232A61012328710165
:101BE000232681010394070083190700831427002B
:101BF000839A2700031C47000399470033083403E6
:101C0000831B67000394670083938700031B87008F
:101C10008392A700031AA700039EC7008319C70079
:101C20000393E700B38A9A028314E700B38808019C
:101C3000130707019387070133098903338C580180
:101C40003304740333082C01B38B6303B30388009C
:101C5000338B4203B3827301330A3E03338E620136
:101C6000B309930233034E01B3083301E39CEEF64C
:101C70000324C10283248102032941028329010232
:101C8000032AC101832A8101032B4101832B010116
:101C9000032CC10023A0150193854500330FAF002D
:101CA000E390BFE21301010367800000678000003A
:101CB00063060526130101FD131815002326810272
:101CC000232491022322210323203103232E4101C7
:101CD000232C5101232A610123287101232681012C
:101CE000232491012322A1012320B101930E060098
:101CF000330E0601930F00009302000013932F0090
:101D00003383650093880600130F00003306DE411D
:101D10009303E6FF13D413009304140013F9740023
:101D20009387080013870E0093030000630E090CCD
:101D300093091000630C390B130A2000630C490946
:101D4000930A3000630C5907130B4000630C6905BC
:101D5000930B5000630C7903130C6000630C890132
:101D6000839C0E00039D080013872E00B387080193
:101D7000B383AC03831D07000396070013072700F6
:101D8000B38707013384CD02B38383008314070034
:101D90000399070013072700B3870701B3892403BA
:101DA000B3833301031A0700839A07001307270040
:101DB000B3870701330B5A03B3836301831B070007
:101DC000039C070013072700B3870701B38C8B031D
:101DD000B3839301031D0700839D070013072700AA
:101DE000B38707013306BD03B383C3008314070021
:101DF0000394070013072700B38707013389840280
:101E0000B38323016306EE0A031A0700839B0700CE
:101E1000B3890701031D2700039B0900B30D7A0353
:101E2000338C0901B30C0C0103194700831A0C0011
:101E300033860C0183146700039A0C000314870097
:101E4000B3070601B3096D03831B0600831CA700BB
:101E500033860701039C0700031B0600031DC70010
:101E6000B30706013386B30183930700B30A59030E
:101E7000831DE7003309360113070701B387070104
:101E8000338A4403B3045901B30B7403338444010C
:101E9000338C8C03B30C7401B3096D03338B8C0149
:101EA000338D7D0233063B01B303A601E31EEEF43E
:101EB0002320730013071F00130343009388280097
:101EC0006306E500130F07006FF05FE4B38E0E01A9
:101ED000B38FAF00330E0E016386E20193821200CE
:101EE0006FF0DFE10324C102832481020329410250
:101EF00083290102032AC101832A8101032B4101A5
:101F0000832B0101032CC100832C8100032D410090
:101F1000832D01001301010367800000678000002A
:101F2000630E051E130101FE13131500232E8100FD
:101F3000232C910013840600232A21012328310138
:101F40002326410123245101930F0600330E66001E
:101F50009303000093060000139F2300338FE501D5
:101F6000930E0400930200003307FE419304E7FF41
:101F700013D614009307160093F8370013880F0048
:101F800093870E0093040000638C08081309100067
:101F9000638028079309200063863803039A0F00A3
:101FA000839A0E0013882F00B3876E0033075A03FD
:101FB000935427401356574093F8F4001379F607CB
:101FC000B384280383190800039A07001308280024
:101FD000B3876700B38A490313D62A4013D75A4000
:101FE0009378F6001379F707B3892803B384340193
:101FF000031A0800839A070013082800B3876700B4
:1020000033075A0313562740935857401379F60065
:1020100093F9F807330A3903B384440163060E0BBE
:10202000831A080003960700B38767000397070029
:10203000B388670003192800039A0800B387680073
:1020400083184800B389CA02839A07000316680000
:1020500013088800B38767003309E90213D72940C2
:1020600093D9594093F9F9071377F700B3884803D8
:10207000135A2940135959401379F907137AFA0072
:102080003306560393DA284093D8584093FAFA005F
:1020900093F8F807330737039359264013565640F1
:1020A00093F9F9001376F607330A2A03B384E400A0
:1020B00033891A03B38A4401B388C90233872A01DA
:1020C000B3041701E31E0EF523209F0013881200AE
:1020D000130F4F00938E2E00630605019302080034
:1020E0006FF09FE8B38F6F00B383A300330E6E00D1
:1020F00063865600938616006FF01FE60324C10125
:10210000832481010329410183290101032AC1009C
:10211000832A8100130101026780000067800000AC
:10212000130101FD23202103232E3101232C410122
:102130002326110223248102138A050013090600B5
:1021400093890600E306053A13161500B305C90086
:10215000B7F2FFFF2322910223267101232A5101A6
:102160002328610123248101232291019304070084
:102170009386050033645700930B00001307E6FFB6
:10218000135317009303130093F87300B387C640EB
:102190006384080A1308100063860809930A200064
:1021A000638A5807130B3000638E6805130C4000D8
:1021B00063828805930C500063869803130E6000B9
:1021C000638AC80183DE070093872700338FD40119
:1021D000239FE7FF83DF070093872700B382F40183
:1021E000239F57FE03D70700938727003383E4001C
:1021F000239F67FE83D3070093872700B38874006B
:10220000239F17FF03D8070093872700B38A040191
:10221000239F57FF03DB070093872700338C64015C
:10222000239F87FF83DC070093872700338E940169
:10223000239FC7FF6386D70683DF070003DF2700DE
:1022400083DE470083D2670003D3870083D3A700D0
:1022500003D8C70003D7E700B38AF401338BE40146
:10226000338CD401B38C5400338E6400B388740073
:10227000B38F0401338FE40023905701239167014A
:1022800023928701239397012394C7012395170174
:102290002396F7012397E70193870701E39ED7F879
:1022A000938A1B00B386C70063065501938B0A000F
:1022B0006FF0DFEC130E0000930E00001305E6FF35
:1022C000935715009382170093132E0013F3720097
:1022D00033077A00B386C5406302030C130810006D
:1022E0006302030B130B200063046309130C30001B
:1022F00063068307930C400063089305930850001E
:10230000630A1303930F6000630CF301039F06003D
:10231000130747009386260033059F02232EA7FE4E
:10232000839706001307470093862600B38297021F
:10233000232E57FE039306001307470093862600BB
:10234000B3039302232E77FE03980600130747007A
:1023500093862600330B9802232E67FF039C06000A
:102360001307470093862600B30C9C02232E97FF89
:10237000839806001307470093862600B38F9802C0
:10238000232EF7FF039F06009386260013074700BE
:1023900033059F02232EA7FE6388D506839206008D
:1023A00083932600039B460003936600039C8600EC
:1023B0000398A600839CC6008397E600B388920228
:1023C0009386060113070702B38F9302232017FF9A
:1023D000330F9B022322F7FF330593022324E7FFE9
:1023E000B3029C022326A7FEB3039802232857FEBC
:1023F000338B9C02232A77FE33839702232C67FFBB
:10240000232E67FEE39CD5F8330E5E01B385C5002D
:1024100063867E01938E1E006FF05FEA139B2A0095
:10242000330C6A0193050C00930800009307000029
:102430001305000013080000930ECBFF93D62E0067
:1024400013871600937C37003387654163800C0E39
:10245000130610006384CC04930F20006380FC03F8
:10246000138F080083280700B38717016358F412FD
:102470001305A50093070000130747009383080086
:1024800083280700B38717016354F410130EA500C7
:102490009307000013050E0013074700938E0800F2
:1024A00083280700B3871701635EF40C930CA50023
:1024B0009307000013960C011307470013550641BC
:1024C0006396E506B385650163800B0F130818005A
:1024D0006FF09FF683224700B3A8F801330F150170
:1024E00033855700130747006354A406032E4700A3
:1024F000130500001303AF00B30EC5016354D407E6
:1025000083288700930E0000930CA300B3871E015D
:102510006354F406938FAC0093070000139F0F01E0
:102520001307C70013550F41E38EE5F8832F07000B
:10253000B387F701E350F4FA8322470093070000C2
:10254000130FA5003385570013074700E340A4FA93
:10255000032E4700B3A35F0033037F00B30EC50112
:10256000E340D4FB83288700B3A6C201B30CD30099
:10257000B3871E01E340F4FA33261E01B38FCC006B
:102580006FF0DFF9B3A61E01B30CD5006FF09FF218
:1025900033A31301330E65006FF0DFEFB3221F0189
:1025A000330555006FF05FED93050000EF104059C3
:1025B00093050A00930C05009386090013850A0011
:1025C00013060900EFF00FCE130800009307000078
:1025D00013050000930500009302CBFF93D3220064
:1025E00013831300137E330033076C4163000E0E18
:1025F000930E10006304DE05930620006300DE02E4
:102600009308080003280700B38707016358F412F2
:102610001305A5009307000013074700930F080058
:1026200003280700B38707016354F4109302A50041
:102630009307000013850200130747009303080067
:1026400003280700B3870701635EF40C130EA5008F
:1026500093070000931E0E011307470013D50E4188
:1026600063168707330C67016380750F9385150028
:102670006FF09FF633281801B306050103254700C4
:1026800013074700B38FA7006354F4078322470062
:10269000930F0000138FA600B3835F00635474068A
:1026A0000328870093030000130EAF00B3870301D4
:1026B0006354F4069308AE00930700009396080154
:1026C0001307C70013D50641E30E87F983280700D7
:1026D000B3871701E350F4FA9306A50003254700DA
:1026E0009307000013074700B38FA700E340F4FBF4
:1026F0008322470033A6A800338FC600B3835F0050
:10270000E34074FA0328870033235500330E6F002B
:10271000B3870301E340F4FAB3AE0201B308DE016C
:102720006FF0DFF933A30301330E65006FF09FF202
:1027300033AF0F01B302E5016FF0DFEF33A60801FD
:102740003305C5006FF05FED93850C00EF10403F3F
:1027500093050A00130B05009386090013850A00F0
:1027600013060900EFF0CFD4930800009305000092
:10277000930700001305000013080000939F280032
:10278000330FFA011386050083250F009382FAFFA9
:1027900093F33200B387B7006352F4501305A500DA
:1027A00093070000131E05019306100013550E41F8
:1027B00013064F0063FC56156384030E638AD3042B
:1027C000930E20006384D3031387050083254F00F5
:1027D000B387B7006358F450930CA500930700002B
:1027E00013850C009386160013064600138C050013
:1027F00083250600B387B700635AF44C130FA50076
:102800009307000013050F00938616001306460079
:102810009382050083250600B387B700635CF44804
:102820001303A500930700001315030193861600F8
:10283000135505411306460063E456076F00000D6B
:10284000832B4600B3A5C501B30EB500B38C770149
:10285000938616001306460063589407832F46009C
:10286000930C0000138CAE00338FFC016358E40717
:1028700083258600130F00009303AC00B307BF004D
:102880006358F4061385A300131E050193863600D2
:102890009307000013550E411306C60063F8560750
:1028A000032E0600B387C701E35CF4F8832B4600D0
:1028B00093070000930EA500B38C77019386160052
:1028C00013064600E34C94F9832F460033277E011C
:1028D000338CEE00338FFC01E34CE4F98325860052
:1028E000B3A2FB01B3035C00B307BF00E34CF4F8F1
:1028F00033A3BF0033856300131E050193863600A2
:1029000013550E411306C600E3EC56F913081800E0
:10291000B3885801E36458E793050B00EF10402299
:1029200093050A00130B05009386090013850A001E
:1029300013060900EFF0CFDE13030000930500003B
:10294000930700001305000093080000931E230066
:10295000B30BDA01938C050083A50B001387FAFFF4
:10296000137C3700B387B7006354F432130FA5000C
:102970009307000093120F011306100013D50241B4
:1029800013874B00637A561563020C0E6308CC0460
:102990009303200063027C029386050083A54B000D
:1029A000B387B700635AF4321305A50093070000FC
:1029B00013061600130747009389050083250700B7
:1029C000B387B700635EF42E930EA5009307000053
:1029D00013850E001306160013074700938B05009E
:1029E00083250700B387B7006350F42C130CA500B0
:1029F00093070000931F0C011306160013D50F4117
:102A000013074700636456076F00000D83234700D8
:102A1000B3A5E501B302B500338E770013061600A7
:102A2000130747006358C40703254700130E00002F
:102A30009389A2003308AE006358040783258700FA
:102A400013080000938BA900B307B8006358F4067D
:102A5000138CAB00931F0C01130636009307000084
:102A600013D50F411307C70063785607032F0700DC
:102A7000B387E701E35CF4F8832347009307000082
:102A80009302A500338E7700130616001307470044
:102A9000E34CC4F903254700B3267F00B389D20075
:102AA0003308AE00E34C04F983258700B3AEA300DE
:102AB000B38BD901B307B800E34CF4F8B32CB500DD
:102AC000338C9B01931F0C011306360013D50F4165
:102AD0001307C700E36C56F99388180033035301BA
:102AE000E3E658E793050B00EF108005130800009C
:102AF00093050000131F1800B302E90183D30200FD
:102B0000138EFAFF13061000B38693402390D20071
:102B10009387220093797E00637856136380090CB3
:102B20006382C90A930E20006384D909930B300095
:102B300063867907930C400063889905130C500055
:102B4000638A8903930F6000638CF90103D7220025
:102B500013860E009387420033049740239182002E
:102B600003DA07001306160093872700330B9A40F9
:102B7000239F67FF83D8070013061600938727005B
:102B800033839840239F67FE03DF07001306160078
:102B900093872700B3029F40239F57FE83D30700EC
:102BA0001306160093872700338E9340239FC7FF99
:102BB00083D607001306160093872700B389964033
:102BC000239F37FF83DE0700130616009387270035
:102BD000B38B9E40239F77FF6378560783DC070003
:102BE00003DC270003D4470003DA670003DB870018
:102BF00083D8A70083D2C70003D7E700B38F9C40D8
:102C0000330F9C40B3039440330E9A4033039B40F0
:102C1000B3899840B3869240B30E97402390F70152
:102C20002391E701239277002393C7012394670040
:102C3000239537012396D7002397D70113068600E3
:102C400093870701E36C56F9938515003308580103
:102C5000E3E255EB83244102832A4101032B010166
:102C6000832BC100032C8100832C41008320C102EF
:102C70000324810213150501032901028329C101DF
:102C8000032A8101135505411301010367800000E8
:102C9000B3AFBC00330FF5016FF0DFCD3323B600C7
:102CA000330565006FF01FB0B3ACBB00330C95016A
:102CB0006FF05FD4B3A3B200330375006FF0DFB6DB
:102CC00033A8B900B30E05016FF09FD0B32FBC003D
:102CD000330FF5016FF01FB333AEB6003305C501F6
:102CE0006FF01FCDB32BB700B30C75016FF05FAF62
:102CF00093050000EF00D0649386090013060900D5
:102D00001304050093050A0013050000EFE09FD9A6
:102D10009305040013050000EF00906293860900FC
:102D2000130609001304050093050A0013050000AB
:102D3000EFE01FF89305040013050000EF0050605A
:102D40001304050093050A00938609001306090081
:102D500013050000EFF0CF9C93050400130500005D
:102D6000EF00105E6FF09FF0130101FF232481003C
:102D700083268500130406001387050003264500FB
:102D80008325C5000325050023261100EFF04FB968
:102D900093050400032481008320C1001301010175
:102DA0006F00105A9308F5FF130E1000130101FF76
:102DB00063761E25B385C501139305019355030161
:102DC00023268100B7520000B75F0000375F000084
:102DD000B75E00001394B501232491002322210142
:102DE0001303700013F7750093820234938F0F352D
:102DF000130F0F36938E0E37930600001308400012
:102E00009303C0029357E4016304670A636EE81CEE
:102E10001309D7FF131709011354070193972700CC
:102E2000636C8E1A3309FF00032709001304800026
:102E300093871600B304F40063FA140903490700EA
:102E4000B306D600B307F600238026010349170016
:102E5000938515009395050123802701834727005B
:102E600093D505012381F60003493700A38126018C
:102E700063020403834747002382F6000349570097
:102E8000A3822601834767002383F6000347770068
:102E9000A383E600338486002300740013F77500D3
:102EA0001394B501938604009357E401E31067F689
:102EB00093942700130480009387160033899200AF
:102EC000B304F40003270900E3EA14F70324C10064
:102ED000832481000329410063FCA60EB303F5405F
:102EE00013F87300630E080CB306D60023800600A7
:102EF0009386070063FEA70C93081000B3871701A1
:102F00006300180D130E2000630AC80793053000F4
:102F1000630EB8049302400063025804930F5000FC
:102F20006306F803130F6000630AE801B30ED600CE
:102F300023800E0093860700938717003303D60083
:102F40002300030093860700938717003307D600FA
:102F5000230007009386070093871700B303D6006A
:102F60002380030093860700938717003308D60059
:102F7000230008009386070093871700B306D60046
:102F80002380060093860700330ED6009387170030
:102F900023000E00B308F60063FCA70293867700B7
:102FA00023800800A380080023810800A381080073
:102FB00023820800A38208002383080093878700E8
:102FC000330ED60023000E00B308F600E3E8A7FC9A
:102FD0001301010167800000B384FE0003A7040011
:102FE000130440006FF0DFE493972700B384FF00E1
:102FF00003A70400130480006FF09FE393070E0003
:10300000930600006FF09FED0327050013060500EF
:1030100083470700638607269306C0021305000056
:10302000638CD71C1308E002638C071D636CF802E5
:10303000138F57FD937FDF0F63860F1E83AF45000D
:1030400083A205001307170013831F0013851200C6
:1030500023A0A50023A26500130510002320E6008D
:1030600067800000138307FD9373F30F93089000AC
:10307000E3E678FC03AE050093071700930E1E00ED
:1030800023A0D501034717006306071E630ED71E52
:103090001308E00263040705130F07FD937FFF0F7A
:1030A000130590006372F50383A205011305100058
:1030B00013871700B387A20023A8F5002320E6009A
:1030C0006780000023A4D50103C71700938717006A
:1030D0006302071A9306C0026FF05FFB03A30501AA
:1030E0009303130023A8750003CE170093871700DE
:1030F00063040E129306C002630CDE0E9378FE0D7D
:10310000930E50046392D80D03A545011387170051
:103110009303150023AA750003CE170063080E1A47
:103120009308C002630A1E1703A7C50093065EFD3D
:1031300093FED60F1308170023A6050163900E080F
:1031400003CF270013872700630E0F1463001F1798
:1031500083AF850193020FFD13F3F20F13851F0058
:10316000930E900023ACA50063FA6E00138737001E
:10317000130510002320E60067800000930307007A
:10318000034E1700130717009308C00293070EFDA4
:1031900093F6F70F63020E1263041E13E3F0DEFED4
:1031A00003A845001305100013872300330FA80060
:1031B00023A2E5012320E600678000001387270093
:1031C000130510006FF09FE913080EFD137FF80F31
:1031D000930F9000E3FAEFF183A24501130510006D
:1031E000138717003383A20023AA65006FF01FE73F
:1031F0001387070013055000130717006FF01FE631
:1032000003A50500930717009302150023A055009E
:10321000034E1700E3120EEE13870700130550004C
:103220006FF0DFE303A50500930717009302150075
:1032300023A0550003431700630E03086302D30A5B
:1032400083A38500930603FD13FEF60F93089000F9
:10325000938E1300E3F8C8E7630A030123A4D501A2
:1032600013072700130510006FF05FDF23A4D501BB
:103270006FF09FE713870700130540006FF01FDE14
:10328000130500006FF09FDD138707001305400052
:10329000130717006FF09FDC1305300013071700AA
:1032A0006FF0DFDB130560006FF05FDB130560007C
:1032B000130717006FF09FDA130570006FF01FDA25
:1032C00013057000130717006FF05FD91305300066
:1032D0006FF0DFD813870700130520006FF01FD8A9
:1032E0001387070013052000130717006FF01FD77F
:1032F000130101F8232C8106232A91062328210794
:103300002326310723244107232251072320610765
:10331000232E7105232C8105232E1106938405008D
:1033200083C50500232691002328010223280100DC
:10333000232A0102232A0100232C0102232C01004D
:10334000232E0102232E0100232001042320010249
:103350002322010423220102232401042324010245
:10336000232601042326010213890700130C0500FC
:10337000930B0600138B0600930A070093090103C1
:1033800013040101130AC100638805109385090025
:1033900013050A00EFF05FC713172500B30287007B
:1033A0008326C10083A7020003C30600938317008E
:1033B00023A07200E31C03FC23269100338C8401BC
:1033C00063F88403938804001306C00203C5080051
:1033D000334875016304C50023800801B388580190
:1033E000E3E688FF03CE0400130AC10063080E025F
:1033F0009385090013050A00EFF01FC1931E2500F5
:10340000338F8E00832FC10083250F0003C70F0069
:103410009382150023205F00E31C07FC9306C00283
:1034200063FE840183C7040033C367016384D7004C
:1034300023806400B3845401E3E684FF938A090087
:10344000032504009305090013044400EF00402DF8
:103450009305050003A50A00938A4A00EF00402C5B
:1034600013090500E31E34FD8320C10703248107EF
:1034700083244107032901078329C106032A810602
:10348000832A4106032B0106832BC105032C8105EA
:103490001301010867800000338CA400E3E484F387
:1034A0006FF0DFF99307500063E4A704B752000000
:1034B0001315250013830238B303650083A50300A9
:1034C0006780050003A501816780000003A5C18115
:1034D0006780000003A58181678000003707001026
:1034E000032547006780000003A541816780000035
:1034F000130500006780000093F7F50F9392870093
:1035000093D585003717000037F3FFFFB3E3B20010
:10351000930FF7F09302030F33F6F301B3F6530062
:103520001318460093D84600937EF500137F050FCD
:10353000B7370000B7D5FFFF938337331383C5CC6C
:10354000336E180113974E0093564F0033786E0078
:10355000B368D70033767E00131E2600935E2800E2
:1035600093F7380313F7C80CB7550000B7B6FFFF41
:10357000336FDE01938855551388A6AA139E270042
:10358000935E2700B3771F0133760F013367DE01A7
:103590009356160093951700137F5705137EA70ABD
:1035A000B3EED50013561E0093171F0033EFC7006C
:1035B00013D78E00B34EE701375E0000B3E5D500A8
:1035C00093078E3993961E003386F6000357060044
:1035D000139F850013558500B34EE7019375F70FD0
:1035E000139E0E0113568E019396850033E7C60095
:1035F000337FF701B37E570093154F0013DE4E0063
:1036000033E6C501B376760033776600139F260054
:10361000935E2700B365DF0133FE1501B3F60501A4
:1036200013161E0013D71600336FE600937EFF0FAC
:1036300093958E00135E8F0033E6C501B376F601D5
:1036400033775600137FF500935E4700939546004D
:10365000B3E6D501131E4F00135545003366AE0087
:1036600033F7760033FF660093753603935E2F00C1
:10367000137EC60C131527003367D50113562E0091
:1036800093962500B3E5C600337E17013375070115
:1036900093FEA50A1357150013FF550513161E00B8
:1036A000336EE60093151F0093D61E0033E5D50058
:1036B000135F8E00B34EAF0013961E00B307F600E3
:1036C00003D7070093158E00334EB7009376F70F9C
:1036D00013150E01135F8501939E860033E6EE01FC
:1036E000B37FF601B372560093974F0013D7420091
:1036F000B3E5E700B3F3750033F36500139E2300D1
:1037000093562300336FDE00B3781F0133780F0127
:1037100013951800935E18003365D501678000008B
:1037200093F7F50F9392870093D585003717000024
:10373000B7F8FFFF9303F7F033E3B2009382080F6B
:10374000B37673003376530013984600135E460039
:10375000137FF500937F050FB7370000B7D5FFFF44
:1037600093883733B36EC80113174F001388C5CC45
:1037700013D64F0033F31E01B3F60E01B36EC7002C
:10378000131E230013DF260093F73E0313F7CE0C1E
:10379000B755000037B6FFFF93865555B36FEE015E
:1037A0009305A6AA139E2700935E270033FFDF0030
:1037B00033F3BF00B36FDE011357130093171F00DD
:1037C00013F65F0513FEAF0AB3EEE70013531E00B6
:1037D000131F160033666F0093DF8E00B3CECF0049
:1037E000B3E7E7003757000013038739139E1E0025
:1037F000330F6E00835F0F00139687009357850089
:10380000B3CECF00139E0E0113F7FF0F135F8E018F
:10381000931F870033E6EF01B37E760033775600BF
:10382000139E4E00135F4700B36FEE0133F61F0186
:10383000B3FE0F011317260013DE2E00336FC701EE
:10384000B37FDF003376BF00939E1F00135716002F
:1038500033EEEE00137FFE0F931F8F0013568E0082
:1038600033E7CF00B37E7700337E5700139F4E00BF
:10387000935F4E0013F6F70093F7070F3367FF01CE
:10388000931F460013DF4700337E1701B37E070105
:1038900033E7EF0113162E0093D72E00137F370363
:1038A000137EC70CB36FF60013572E00931E2F0024
:1038B00033F6DF00B3F7BF0033EFEE0013DE17007F
:1038C000937F5F05937EAF0A131716003366C70117
:1038D00093971F0093DF1E00B3EEF701135F86007E
:1038E0003346DF013367C701131E1600B3076E00AE
:1038F00083DF0700131F8700935E050133C7EF01C5
:10390000131E070113F6FF0F93578E01931F8600B6
:1039100033EFFF0033777F0033765F00131E4700DD
:1039200093574600B36FFE0033FF1F0133F70F01BB
:1039300013162F00135E2700B367C601B3FFD7002D
:1039400033FFB70013971F0013561F00B367C7005C
:1039500013FEF70F931F8E0013DF870033E7EF018D
:1039600033767700B3775700931F460013DE470086
:1039700013FFFE0093FE0E0F33E7CF0193174F00A6
:1039800093DF4E003376070133EEF701337F1701E3
:1039900013172F00935E2600937F3E03137FCE0CF8
:1039A000B367D70113962F0013572F0033FED700AC
:1039B000B3FEB700B367E60093FF570513171E0069
:1039C00013F6A70A13DE1E00336FC701939E1F0074
:1039D0009357160033E6FE00935F8F0033CFCF007E
:1039E000931E1F00B3876E0083DF07003367C70194
:1039F000131E870033CFCF01931E0F0113F6FF0F65
:103A000093D78E01931F860033E7FF00337E770044
:103A1000337F5700931E4E0013564F00B3E7CE007E
:103A2000B3FF170133F70701139F2F00135E270021
:103A3000B36ECF01B3F7DE0033F6BE00939F1700DD
:103A40001357160033EFEF00137EFF0F931E8E0007
:103A500093578F0033E6FE00B37F7600337756002E
:103A600013558501137FF500135E4700939E4F00A9
:103A7000B3EFCE0193174F001356450033E5C7004F
:103A800033F71F0133FF0F0193773503935E2F0048
:103A9000937FC50C131E27003367DE0113D52F005B
:103AA00013962700B367A600B37FD700337EB70015
:103AB00093FEA70A13571E0013FF570513951F0007
:103AC000B36FE50093171F0013D61E0033EEC70037
:103AD00013DF8F00B34ECF0113951E003303650033
:103AE0000357030093978F00B34FF7001376F70F38
:103AF000139E0F01135F8E01931E860033E5EE01C6
:103B0000B3737500B37255001393430013D742008B
:103B1000B36FE300B3F81F0133F80F019397280048
:103B20001356280033EEC700B376DE00B375BE002F
:103B3000139F160093DE15003365DF0167800000D8
:103B400093F7F50F9392870093D585003717000000
:103B500037F3FFFFB3E3B200930FF7F09302030FC5
:103B600033F6F301B3F653001318460093D846001A
:103B7000937EF500137F050FB7370000B7D5FFFF21
:103B8000938337331383C5CC336E180113974E00DC
:103B900093564F0033786E00B368D70033767E00BB
:103BA000131E2600935E280093F7380313F7C80C02
:103BB000B7550000B7B6FFFF336FDE019388555548
:103BC0001388A6AA139E2700935E2700B3771F01D0
:103BD00033760F013367DE01935616009395170075
:103BE000137F5705137EA70AB3EED50013561E00A8
:103BF00093171F0033EFC70013D78E00B34EE701B2
:103C0000375E0000B3E5D50093078E3993961E000A
:103C10003386F60003570600139F85001355850071
:103C2000B34EE7019375F70F139E0E0113568E01E5
:103C30009396850033E7C600337FF701B37E5700C4
:103C400093154F0013DE4E0033E6C501B3767600C0
:103C500033776600139F2600935E2700B365DF016C
:103C600033FE1501B3F6050113161E0013D7160017
:103C7000336FE600937EFF0F93958E00135E8F00E7
:103C800033E6C501B376F60133775600137FF500AE
:103C9000935E47001375050F93954600B3E6D50173
:103CA000131E4F001356450033FF7600B3F5660030
:103CB0003367CE00137E370393DE25001376C70CDF
:103CC00013152F00336FD50193162E0013572600BE
:103CD000B3E5E600337E1F0133750F0193FE5505F2
:103CE0001357150093F6A50A13161E00336EE6004F
:103CF000139F1E0093D516003365BF00935E8E00A0
:103D0000B3C6AE0013961600B307F60003D707003C
:103D1000131F8E00B345E701137EF70F13950501BE
:103D2000935E850193168E0033E6D601B37FF601CC
:103D3000B372560093974F0013D7420033EFE7005A
:103D4000B3737F0033736F0093952300135E2300DA
:103D5000B3EEC501B3F81E0133F80E011395180038
:103D6000935618003365D5006780000013050000E6
:103D700067800000732700B023A6E1806780000001
:103D8000732700B0B707001023A4E7006780000086
:103D9000370700100325870083A2C18033055540F3
:103DA00067800000B7D70921938217823335550207
:103DB0001355850167800000930710002300F5006C
:103DC000678000002300050067800000130101FAEE
:103DD000232E8104232C910413F80704631408167E
:103DE000B75E000093F20701938E4E2C6394021687
:103DF00013F417009308F4FF13F308FF93F427005C
:103E00009308030393F307026382041663CE0556F7
:103E100013FE4700631C0E5293F7870093040000C3
:103E2000638607009386F6FF93040002638E030007
:103E300093030001630E7656130F86FF933F1F0016
:103E4000B386F64193030002639A054A9305000383
:103E50002306B100130F000093071000930FC10059
:103E6000938E070063D4E700930E0700B386D64114
:103E7000631404103304D50093050500635CD00E71
:103E80003305A44013737500930600026304030610
:103E9000130E1000630AC305130820006302030514
:103EA00013053000630AA302130E40006302C3032C
:103EB00013085000630A030113056000631CA3503C
:103EC0002380D500938515002380D50093851500A8
:103ED0002380D500938515002380D5009385150098
:103EE0002380D5009385150093851500A38FD5FEFB
:103EF000638685022380D500A380D5002381D50069
:103F0000A381D5002382D500A382D5002383D500C9
:103F1000A383D50093858500E39E85FC13050400EB
:103F200063980440638A0300930480006308964CFE
:103F300093030001630C7642333650009306E6FF8C
:103F40006F008010B7520000938EC22E93F20701CB
:103F5000E38002EA93F7E7FF93F4270013040001DC
:103F60009308000293F30702E39204EA930400002B
:103F70006FF0DFEB9386F6FF638604002300950065
:103F800013051500638A030013048000630886424A
:103F900013030001630E663C6398020AB302D50066
:103FA00013060500635CD0463385A2409374750008
:103FB0006384040693031000638A7404930620004C
:103FC0006382D40413043000638A84021303400024
:103FD00063826402130E5000638AC40113086000F8
:103FE00063900441230016011306160023001601F6
:103FF00013061600230016011306160023001601EF
:1040000013061600230016011306160013061600E9
:10401000A30F16FF6306560223001601A300160124
:1040200023011601A301160123021601A3021601A2
:1040300023031601A303160113068600E31E56FC94
:10404000138502009306F0FFB308D50163D0E70E95
:1040500093C5F7FF13061500B382A5409304000330
:10406000B3831201A30F96FE3384C84013F3730089
:1040700063D2870A630A0306130E1000630EC3059A
:10408000130820006306030593053000630EB30296
:10409000930240006306530293035000630E7300C3
:1040A000130460006306830013062500A300950037
:1040B0002300960013061600230096001306160030
:1040C0002300960013061600230096001306160020
:1040D0002300960013061600130616003383C8400B
:1040E000A30F96FE63D8670223009600A3009600F4
:1040F00023019600A301960023029600A3029600D6
:104100002303960013068600338EC840A30F96FE45
:10411000E3CCC7FD9308000063D6E7003387FE4079
:104120009308F7FF938718003305F500930E1F00DF
:1041300093F47E00B387EF0113070500938FFFFF11
:10414000638C040813081000638E04079305200095
:104150006382B406930230006386540493034000E4
:10416000638A740213045000638E84001306600097
:104170006394C41E03CE0700130717009387F7FF4D
:10418000A30FC7FF83C80700130717009387F7FF24
:10419000A30F17FF83CE0700130717009387F7FFBE
:1041A000A30FD7FF83C40700130717009387F7FFF8
:1041B000A30F97FE03C80700130717009387F7FFA5
:1041C000A30F07FF83C507009387F7FF13071700A7
:1041D000A30FB7FE6388FF0483C2070083C3F7FF02
:1041E00003C4E7FF03C3D7FF03CEC7FF83C8B7FFEE
:1041F00083CEA7FF03C697FF23005700A3007700D5
:1042000023018700A30167002302C701A30217014E
:104210002303D701938787FFA303C70013078700F2
:10422000E39CFFFA330FE501930F1F0013850F0086
:10423000635AD00A938416003388E401B305F84129
:1042400013F7750093070002630807069302100036
:10425000630E5704930320006306770413043000B1
:10426000630E87021303400063066702130E5000BB
:10427000630EC701930860006306170113052F0042
:104280002380FF002300F500130515002300F5002F
:10429000130515002300F500130515002300F50094
:1042A000130515002300F500130515002300F50084
:1042B000130515006306A8022300F500A300F5000E
:1042C0002301F500A301F5002302F500A302F50088
:1042D0002303F500A303F50013058500E31EA8FCE6
:1042E0003385F6010324C1058324810513010106EA
:1042F000678000009386F6FF9304D00293070000C6
:10430000930FC10033F8C502138F0700938717007E
:10431000338EFF001383050033880E010348080025
:10432000B3D5C502A30F0EFFE37EC3FC6FF05FB3EE
:104330002300940013051400639A03089306E0FF1A
:10434000E38402D09306F0FF6FF01FD09386F6FF50
:104350009304B0026FF09FAD03C30700130715006D
:104360009387F7FF230065006FF0DFE09306F0FF0F
:10437000130E0003130880072300C501A3000501E5
:10438000130525006FF05FC1B305B040E38403F669
:1043900013080001630C060713038000630866041A
:1043A0009386F6FF9304D002930300026FF01FF58B
:1043B0009386E6FF930300026FF01FA993050003A5
:1043C0002300B500130515006FF01FBD9306F0FF25
:1043D0006FF09FBB2380D500938515006FF05FAE13
:1043E00023001601130616006FF0DFBF9386E6FF69
:1043F0009304D002930300026FF05FF09308000370
:1044000023001401130514006FF05FF39386D6FFA9
:104410009304D002930300026FF05FEE9386F6FFE1
:104420006FF09FC2130101EA23263113232E1112CC
:10443000232C81122322B1142324C1142326D11446
:104440002328E114232AF114232C0115232E1115FE
:10445000834605009309411423263101E388060EA3
:10446000232821131304010137590000232A911234
:10447000232441132322511323206113130F05001A
:10448000232E71111305040013098959130A5002D0
:1044900093040001130B9000930AE002638846091D
:1044A0002300D50083461F0013051500130F1F00BE
:1044B000E39606FE8324411303290113032A811284
:1044C000832A4112032B0112832BC1112300050003
:1044D00083470101E3860708370601101305A00092
:1044E0001307460093090400B70801101308D00011
:1044F0006384A70283CF0900832E070093F21E0076
:10450000E39C02FE23A0F80183C71900638607100D
:1045100093891900E390A7FE03230700137E13007D
:10452000E31C0EFE23A008016FF0DFFC93070000E0
:1045300003461F00930B1F00130706FE9372F70F2D
:1045400063EA540093932200B385230183A60500F8
:1045500067800600130806FD9378F80F63721B113D
:10456000130EA0029306F0FF6306C6131307F0FFB5
:104570006302560D9375F60D130FC004639AE50799
:10458000130F060003C61B00930F3003938B1B0011
:104590009305B6FB93F2F50F63EA5F10B753000083
:1045A00093982200138EC35D3383C8010328030050
:1045B0006700080093E71700138F0B006FF05FF799
:1045C00093E70701138F0B006FF09FF693E7470007
:1045D000138F0B006FF0DFF593E70702138F0B00CB
:1045E0006FF01FF593E78700138F0B006FF05FF4F8
:1045F000930FB6FB93F2FF0F9303300363E8530A64
:10460000B7580000139E22001383C86A33086E0057
:10461000832E080067800E00338489408320C113F5
:1046200013051400032481138329C11213010116F9
:104630006780000003C61B001308900093821B00D4
:10464000930806FD13FEF80F6370C84D1303A00214
:10465000630C664E938B0200130700006FF09FF10E
:104660009306000013039000939E2600338FDE0014
:10467000938B1B00931F1F003387CF0003C60B00D3
:10468000930607FD930206FD93F3F20FE37E73FC9E
:104690006FF0DFED83A6090003462F00930B2F0078
:1046A00063C40602938949006FF05FEC93035002E4
:1046B000630C764A2300750083C50B0013051500B3
:1046C000E38A05DE6F00804AB306D04093E7070116
:1046D000938949006FF09FE9130FF0032300E50170
:1046E00083C61B0013051500138F1B00E39806DA21
:1046F0006FF05FDC93E707041306000183A5090050
:1047000093894900EFF08FEC83C61B00138F1B00C9
:10471000E39606D86FF01FDA1306A0006FF01FFEB5
:1047200003A609009389490063040646834E0600E8
:1047300093F70701638C0E66937F7700930506005D
:104740003307E60063840F088342160093051600C2
:104750006382020E93031000638A7F069308200091
:1047600063801F07130E30006386CF0513034000DC
:10477000638C6F021308500063820F03930E600076
:104780006388DF01034F26009305260063040F0AA8
:1047900083CF150093851500638E0F0883C2150023
:1047A000938515006388020883C31500938515005F
:1047B0006382030883C8150093851500638C08067F
:1047C00003CE15009385150063060E066386E50685
:1047D00003C815009385150013830500630C0804B6
:1047E00083CE15009385150063860E04034F2300C6
:1047F0009305230063000F04834F330093053300B8
:10480000638A0F02834243009305430063840202DC
:104810008343530093055300638E03008348630072
:104820009305630063880800034E730093057300CB
:10483000E31E0EF8138705003307C740638807445B
:10484000635CE00E13787700B30EE6009307050073
:10485000630C080813031000630E6806130F200092
:104860006302E807930F30006306F80593024000E7
:10487000630A580293035000630E780093086000A7
:104880006316185183450600938717001306160018
:10489000A38FB7FE03480600938717001306160080
:1048A000A38F07FF03430600938717001306160024
:1048B000A38F67FE034F06009387170013061600A9
:1048C000A38FE7FF834F0600938717001306160098
:1048D000A38FF7FF83420600130616009387170085
:1048E000A38F57FE6308D605834306001306860090
:1048F00093878700238C77FE834896FFA38C17FF4E
:10490000034EA6FF238DC7FF8345B6FFA38DB7FED9
:104910000348C6FF238E07FF0343D6FFA38E67FE1F
:10492000034FE6FF238FE7FF834FF6FFA38FF7FFC9
:10493000E31CD6FB3305E500B38EE640B302D50198
:10494000138F1B00930705006354D70A3386A240D8
:10495000937376009308000263840306130E10001D
:10496000638AC305930520006382B30413083000F3
:10497000638A03031303400063826302930F5000B2
:10498000638AF301930E6000639CD3412380170177
:10499000938717002380170193871700238017013F
:1049A000938717002380170193871700238017012F
:1049B0009387170093871700A38F17FF638657020B
:1049C00023801701A380170123811701A3811701F9
:1049D00023821701A382170123831701A3831701E1
:1049E00093878700E39E57FCB306D5003385E640E6
:1049F00083C61B00E39406AA6FF0DFAB130FF0FF32
:104A00006382E61983A50900130600019389490012
:104A1000EFF0CFBB83C61B00138F1B00E39006A8EB
:104A20006FF05FA913F7070193834900138F1B00F1
:104A30006308071683A90900930815009305100061
:104A40002300350193870800330ED50063DED53887
:104A500033061E411378760013030002630608062E
:104A6000630EB804930F20006306F805930E300020
:104A7000630ED803930240006306580213075000E8
:104A8000630EE80093096000630638019307250070
:104A9000A3006500238067009387170023806700C9
:104AA0009387170023806700938717002380670090
:104AB0009387170023806700938717009387170059
:104AC000A38F67FE6386C70323806700A380670008
:104AD00023816700A381670023826700A3826700A8
:104AE00023836700A383670093878700E39EC7FD46
:104AF0001385F6FF3385A80083C61B009389030046
:104B0000E39E06986FF01F9B130E0000931F2E006C
:104B10003387CF019382120093131700B388C30029
:104B200003C60200138E08FD130306FD937BF30FEB
:104B3000E37E78FD1348FEFF935EF841938B0200FD
:104B40003377DE016FF01FA383AE090003C62B008D
:104B50009389490093C5FEFF13DFF54133F7EE015A
:104B6000938B2B006FF01FA183C50B002300B500B2
:104B700083C61B0013051500138F1B00E3900692DC
:104B80006FF05F9393E71700930680006FF09FE745
:104B90003756000093F70701130646316FF0DFB96F
:104BA0009308100063D0D8229385F6FF13F67500A2
:104BB0003308B500930705001303000263060606D9
:104BC000630E1605130E20006306C605930F300012
:104BD000630EF603930E40006306D6039302500063
:104BE000630E5600130760006306E6009307150086
:104BF00023006500238067009387170023806700E8
:104C0000938717002380670093871700238067002E
:104C100093871700238067009387170093871700F7
:104C2000A38F67FE6386070323806700A380670066
:104C300023816700A381670023826700A382670046
:104C400023836700A383670093878700E39E07FDA4
:104C500083A909001305F5FFB308D50023803801A7
:104C6000138518006FF05FE99302C00693E72700F1
:104C7000E3045FAA83A509001306A00093894900F5
:104C80006FF05FA8130680006FF05FA7635AD71418
:104C9000B387E64013F877003303F500930505006A
:104CA000930E000263080806130F1000630EE80558
:104CB000930F20006306F80593023000630E58023C
:104CC000930340006306780293085000630E1801B6
:104CD000130E60006306C801930515002300D5017B
:104CE0002380D501938515002380D5019385150078
:104CF0002380D501938515002380D5019385150068
:104D00002380D5019385150093851500A38FD5FFCA
:104D1000638665022380D501A380D5012381D50157
:104D2000A381D5012382D501A382D5012383D50197
:104D3000A383D50193858500E39E65FC3305D500EB
:104D40003305E5409306F7FF6FF09FAF13040101B1
:104D5000130504002300050083470101639E07F645
:104D60008320C113032481138329C112130500007A
:104D7000130101166780000093E727006FF09FEF93
:104D800093E70704130600016FF05F97034E0600D8
:104D900093071500130616002300C5016FF09FAEA0
:104DA00093071500230015016FF05FBE1307000085
:104DB000E39407B8138F1B00E34CD0EC83C61B00B1
:104DC0006FF05FC383A609001305150093890300E4
:104DD000A30FD5FE83C61B00639206EC6FF08FED28
:104DE0009386F6FF6FF0DFA5138508006FF0DFD024
:104DF000366B20706572666F726D616E63652072CE
:104E0000756E20706172616D657465727320666F76
:104E10007220636F72656D61726B2E0A0000000074
:104E2000366B2076616C69646174696F6E2072758F
:104E30006E20706172616D657465727320666F7249
:104E400020636F72656D61726B2E0A0050726F661F
:104E5000696C652067656E65726174696F6E20723A
:104E6000756E20706172616D657465727320666F16
:104E70007220636F72656D61726B2E0A0000000014
:104E8000324B20706572666F726D616E6365207261
:104E9000756E20706172616D657465727320666FE6
:104EA0007220636F72656D61726B2E0A00000000E4
:104EB000324B2076616C69646174696F6E20727523
:104EC0006E20706172616D657465727320666F72B9
:104ED00020636F72656D61726B2E0A005B25755DD4
:104EE0004552524F5221206C6973742063726320C3
:104EF000307825303478202D2073686F756C6420ED
:104F00006265203078253034780A00005B25755DB5
:104F10004552524F5221206D61747269782063723C
:104F20006320307825303478202D2073686F756CBD
:104F300064206265203078253034780A0000000053
:104F40005B25755D4552524F522120737461746523
:104F50002063726320307825303478202D207368E8
:104F60006F756C64206265203078253034780A00D3
:104F7000436F72654D61726B2053697A6520202002
:104F8000203A20256C750A00546F74616C20746996
:104F9000636B732020202020203A20256C750A00A6
:104FA000546F74616C2074696D6520287365637338
:104FB000293A2025640A0000497465726174696F9A
:104FC0006E732F5365632020203A2025640A000069
:104FD0004552524F5221204D757374206578656398
:104FE00075746520666F72206174206C65617374DE
:104FF000203130207365637320666F7220612076E4
:10500000616C696420726573756C74210A0000001C
:10501000497465726174696F6E73202020202020AE
:10502000203A20256C750A0047434331352E322E35
:1050300030000000436F6D70696C65722076657298
:1050400073696F6E203A2025730A00002D4F3220BD
:105050002D6D617263683D72763332696D5F7A6976
:10506000637372202D6D6162693D696C703332200B
:105070002D666E6F2D636F6D6D6F6E202D66756E74
:10508000726F6C6C2D6C6F6F70730000436F6D707E
:10509000696C657220666C6167732020203A202558
:1050A000730A0000535441434B0000004D656D6F7F
:1050B0007279206C6F636174696F6E20203A2025CD
:1050C000730A0000736565646372632020202020EA
:1050D00020202020203A203078253034780A000023
:1050E0005B25645D6372636C6973742020202020EB
:1050F00020203A203078253034780A005B25645D22
:105100006372636D617472697820202020203A20D8
:105110003078253034780A005B25645D63726373F0
:10512000746174652020202020203A2030782530BA
:1051300034780A005B25645D63726366696E616C36
:105140002020202020203A203078253034780A0092
:10515000436F7272656374206F7065726174696FFA
:105160006E2076616C6964617465642E2053656598
:1051700020524541444D452E6D6420666F72207269
:10518000756E20616E64207265706F7274696E67EF
:105190002072756C65732E0A0000000043616E6E0C
:1051A0006F742076616C6964617465206F706572DC
:1051B0006174696F6E20666F722074686573652014
:1051C000736565642076616C7565732C20706C6501
:1051D00061736520636F6D706172652077697468B3
:1051E00020726573756C7473206F6E2061206B6E16
:1051F0006F776E20706C6174666F726D2E0A00009E
:105200004572726F72732064657465637465640AB5
:105210000000000054302E33652D314600000000A0
:105220002D542E542B2B5471000000003154332E7A
:105230003465347A0000000033342E30652D545E1E
:1052400000000000352E353030652B3300000000A3
:105250002D2E313233652D32000000002D38376598
:105260002B383332000000002B302E36652D3132C2
:105270000000000033352E3534343030000000009B
:105280002E31323334353030000000002D313130D2
:105290002E373030000000002B302E3634343030C2
:1052A000000000003530313200000000313233346C
:1052B000000000002D383734000000002B3132325E
:1052C000000000003031323334353637383961620E
:1052D000636465666768696A6B6C6D6E6F70717226
:1052E000737475767778797A000000003031323344
:1052F0003435363738394142434445464748494AB0
:105300004B4C4D4E4F505152535455565758595A75
:10531000000000003C4E554C4C3E0000475EBF393B
:10532000A4E53A8E848D000052BE99110856D71F0D
:1053300047070000B0D44033796A14E7C1E30000A6
:1053400014520000205200002C520000385200007D
:1053500044520000505200005C52000068520000AD
:1053600074520000805200008C52000098520000DD
:10537000A4520000AC520000B4520000BC52000025
:10538000F0340000CC340000D4340000DC340000E1
:10539000E8340000C4340000000005800F800A00DB
:1053A0001B801E0014001180338036003C003980C1
:1053B00028002D8027802200638066006C006980B1
:1053C00078007D8077807200500055805F805A00A1
:1053D0004B804E0044004180C380C600CC00C98091
:1053E000D800DD80D780D200F000F580FF80FA0081
:1053F000EB80EE00E400E180A000A580AF80AA0071
:10540000BB80BE00B400B180938096009C00998060
:1054100088008D8087808200838186018C0189814C
:1054200098019D8197819201B001B581BF81BA0138
:10543000AB81AE01A401A181E001E581EF81EA0128
:10544000FB81FE01F401F181D381D601DC01D98118
:10545000C801CD81C781C201400145814F814A0108
:105460005B815E0154015181738176017C017981F8
:1054700068016D8167816201238126012C012981E8
:1054800038013D8137813201100115811F811A01D8
:105490000B810E0104010181038306030C030983C0
:1054A00018031D8317831203300335833F833A03A8
:1054B0002B832E0324032183600365836F836A0398
:1054C0007B837E0374037183538356035C03598388
:1054D00048034D8347834203C003C583CF83CA0378
:1054E000DB83DE03D403D183F383F603FC03F98368
:1054F000E803ED83E783E203A383A603AC03A98358
:10550000B803BD83B783B203900395839F839A0347
:105510008B838E0384038183800285828F828A023B
:105520009B829E0294029182B382B602BC02B9822F
:10553000A802AD82A782A202E382E602EC02E9821F
:10554000F802FD82F782F202D002D582DF82DA020F
:10555000CB82CE02C402C182438246024C024982FF
:1055600058025D8257825202700275827F827A02EF
:105570006B826E0264026182200225822F822A02DF
:105580003B823E0234023182138216021C021982CF
:1055900008020D8207820202E44500005445000023
:1055A00054450000D8450000544500005445000013
:1055B0005445000054450000544500005445000087
:1055C00054450000CC45000054450000C045000093
:1055D0005445000054450000B4450000D846000082
:1055E000AC460000D8460000AC460000AC460000C7
:1055F000AC460000AC460000AC460000AC460000E3
:10560000AC460000AC460000AC460000AC460000D2
:10561000AC460000AC460000AC460000AC460000C2
:10562000AC460000AC460000F4460000AC4600006A
:10563000AC460000AC460000AC460000AC460000A2
:10564000AC460000AC460000AC460000AC46000092
:10565000AC460000244A0000684C0000D846000018
:10566000D8460000D8460000AC460000684C000058
:10567000AC460000AC460000AC460000AC46000062
:10568000AC460000844C0000FC490000AC46000021
:10569000AC46000020470000AC4600001847000060
:1056A000AC460000AC460000F8460000D8460000BA
:1056B000AC460000D8460000AC460000AC460000F6
:1056C000AC460000AC460000AC460000AC46000012
:1056D000AC460000AC460000AC460000AC46000002
:1056E000AC460000AC460000AC460000AC460000F2
:1056F000AC460000AC460000804D0000AC46000007
:10570000AC460000AC460000AC460000AC460000D1
:10571000AC460000AC460000AC460000AC460000C1
:10572000AC460000244A0000784D0000D846000036
:10573000D8460000D8460000AC460000784D000076
:10574000AC460000AC460000AC460000AC46000091
:10575000AC460000844C0000FC490000AC46000050
:10576000AC46000020470000AC460000184700008F
:0C577000AC460000AC460000F84600000B
:08577C000100000066000000BE
:00000001FF
