:1000000097110010938101801721001013018101C5
:1000100017050010130505FF976500009385C5AE11
:1000200017060010130686FE637CC50083A2050038
:10003000232055001305450093854500E368C5FE60
:1000400013858180970500109385C5FD6378B50001
:100050002320050013054500E36CB5FE13050000E1
:100060009305000013060000EF0080006F00000001
:10007000130101812326117E2324817E2322917E78
:100080002320217F232E317D232C417D232A517D66
:100090002328617D2326717D2324817D2322917D68
:1000A0002320A17D130101FA13040102130684FE2B
:1000B000930544FE1305E10423220100EF30106E86
:1000C00013051000EF30805B2316A10013052000FC
:1000D000EF30C05A2317A10013053000EF30005A4B
:1000E0002318A10013054000EF3040592324A1023A
:1000F0001305500013040182EF30405863140500CB
:10010000130570002326A1028327C47E638007386D
:10011000130710006384E770130A010513791500B3
:1001200023160104232A447F9376250093090900AE
:100130006392061613754500630A051A93051900A4
:100140001305007DEF4090782322A102631C095E15
:100150009305050013050900EF409074330CAA00C5
:1001600023208103832FC10293FC1F00638E0C00A8
:100170000316C47E8325847F03254102EF10400FC0
:10018000832FC1022328A10213FD2F00631A0D162D
:1001900093F74F00638A0700032601028315C47E8C
:1001A00003254102EF20905D032781029304C100E3
:1001B000631E070493021000232451029304C1001C
:1001C0000323810293132300B38563001396150064
:1001D0002324C102EF30905713850400EF10C04074
:1001E000EF309057EF305058EF305059E30A05FC8C
:1001F000930505001305A000EF40506D8325810293
:1002000013051500EF40D0692324A102EF301054EC
:1002100013850400EF10403DEF301054EF30D05400
:10022000130B05000315C47E93050000378A0000F8
:10023000EF30902E930505000315E47EEF30D02DAE
:10024000930505000315047FEF30102D930505007D
:1002500003154102EF30502C93065AB0930B050062
:10026000630AD55863E2A60CB72C0000138D2C8FBF
:100270006308A557375F0000930FFFEA6312F52369
:10028000B75700001385471DEF40C044930E200070
:100290006F00000C937A450013091900638A0A0263
:1002A000938529001305007DEF4050622322A102AF
:1002B00063940948930A4000B308304133FBA80017
:1002C000B30B6A01232E747FE38E0AE86FF05FE8B8
:1002D000930509001305007DEF40505F2322A10222
:1002E000E38C09FC232C447F6FF01FFD1308007D75
:1002F00023220103E30809E6232C447F6FF09FE6E5
:10030000031EE47E831EC47E8325C47F0325410231
:10031000131F0E013366DF0193064103EF104051B6
:10032000832FC1026FF0DFE637950000130825A088
:10033000638C0B4DB7FA000093885A9F63921B178A
:10034000375C000013058C20EF40C038930E30005E
:10035000B70C001003A70C006302074EB752000051
:100360003753000093991E009383C26B9305036B70
:10037000B38A3301338A3501130D000013090000DD
:100380006F004003B384240113982400B3080401D0
:10039000138EF87F8356DE021309190003A80C00A0
:1003A000B384A601131D090113590D01138D040017
:1003B000637E090F931449003386240193162600A7
:1003C0003305D40037180000330CA8000325CC8077
:1003D00023160C82937815006388080203566C82FA
:1003E00083D60A006302D602375E000013054E264C
:1003F00093050900EF40002E835ECC820325CC805C
:10040000138F1E002316EC83937F250063820F0455
:10041000338724019312270033035400B7130000DD
:10042000338C630003568C8283560A006302D60223
:10043000B75700009305090013854729EF4080292D
:100440008355CC820325CC80138615002316CC82DD
:1004500093764500E38806F2B38E2401139F2E00A5
:10046000B75F0000B302E4013717000013834F6A3F
:10047000330C5700B30333010356AC8283D6030019
:100480006316D62C8356CC826FF01FF18315047F40
:10049000E39405C8130660062318C47E6FF0DFC717
:1004A000B70C01009384FCFFB70C0010EF309029CB
:1004B00083254102B7590000330C95001385892F1D
:1004C000EF404021B75A000093050B0013850A3115
:1004D000EF40402013050B00EF30502A375A000040
:1004E0009305050013058A32EF40C01E13050B006B
:1004F000EF30D028631A052813050B00EF301028C1
:10050000130B90006378AB2683A50C0003258102B2
:10051000931E0C0113D90E41EF409038375F000055
:100520009305050013058F39EF40C01AB75F00002F
:10053000B752000093850F3B1385C23BEF408019F3
:1005400037570000375300009305473D13054341DB
:10055000EF404018B7530000B75700009385C342DF
:1005600013854743EF40001793850B00B75B0000EE
:100570001385CB44EF4000160328C1029375180081
:10058000638C050403A50C006308050437560000BE
:10059000130D8646130C0000B719000093164C008B
:1005A00033888601931A2800330A5401B38849011D
:1005B00003D6688293050C0013050D00EF408011EF
:1005C00093041C0003AE0C00139B0401135C0B018D
:1005D000E366CCFD0328C102937E2800638C0E04E1
:1005E00003AF0C0063000F26B7520000938B424804
:1005F00093090000371D00001397490033033701AA
:1006000093132300B3077400B305FD0003D685825E
:1006100013850B0093850900EF40C00B138519006B
:1006200083A60C001316050193590601E3E6D9FCD5
:100630000328C102937A4800638A0A0403AA0C00C3
:10064000630E0A08B7580000138B084A130D000008
:10065000371C0000131E4D00B30EAE01139F2E0079
:10066000B30FE401B302FC0103D6A28293050D008F
:1006700013050B00EF40000693041D0003A70C00B8
:10068000939B040113DD0B01E366EDFC03A30C0057
:10069000B75300009389C34B130B0000B71A000037
:1006A000630E030293174B00B38567011395250072
:1006B0003306A400B386CA0003D6468293050B0016
:1006C00013850900EF40000113081B0083A80C00EC
:1006D000131A0801135B0A01E3661BFD6302090E8E
:1006E0006358200F3759000013058958EF30907E6A
:1006F0001305E104EF30500B130101068320C17E86
:100700000324817E8324417E0329017E8329C17DC8
:10071000032A817D832A417D032B017D832BC17CAC
:10072000032C817C832C417C032D017C130500006C
:100730001301017F67800000232C447F930A40004F
:100740006FF09FB7232C447F6FF09FA0B757000036
:10075000930509001385872CEF30D0778355CC8221
:100760001385150013160501935606012316DC8226
:100770006FF09FC2375E000013058E35EF30907525
:10078000130C1C006FF05FD883A50C0003258102B9
:10079000EF4010119304050013050B00EF30007EAD
:1007A0009305050013850400EF405012B758000070
:1007B0009305050013850834EF30D0716FF0DFD357
:1007C000375C000013058C4DEF30D0706FF05FF296
:1007D000B75C000013854C52EF30D06F6FF05FF1C3
:1007E000375E000013058E23EF30D06E930E40006D
:1007F0006FF01FB6B75900001385891AEF30906D5E
:10080000930E10006FF0DFB43759000013058917FD
:10081000EF30506C930E00006FF09FB38312047F93
:10082000E39C028E373315349303534193046006DF
:100830002326747E2318947E6FF01F8E930400008D
:100840006FF0DFC6937F4800E3820FE46FF01FE98B
:10085000630A060003152500839525003305B5407E
:1008600067800000831705009396070113F707F0D0
:1008700093D28601336357002310650083930500EC
:10088000031525001398030113F603F0935888010C
:10089000336E16012390C501839525003305B540BD
:1008A00067800000031F050093577F4093F21700F5
:1008B000638602001375FF076780000013573F40EF
:1008C0001373F700130101FE93134300232C8100DF
:1008D00033067300232E1100232A910093767F00A4
:1008E00083D78503938805001304050013070600CA
:1008F000638E0608130510006392A608138588020C
:1009000013860700930507002326E1012324110124
:10091000EF20006383288100931E0501032FC1008F
:1009200003DEC80393D40E4163140E0A83D78803F1
:10093000239EA80293850700232611012324E101A9
:10094000EF201059832281008326C1009307050000
:1009500013F702F013F5F4073363E500239CF60266
:10096000936303088320C1012310740003248101D1
:10097000832441011301010267800000931F0F01CE
:1009800013D50F0193040F006FF0DFFA93041002E8
:1009900063E4C4001307200283A54801839628005E
:1009A0000396080003A588012326E10123241101F1
:1009B000EF2090318328810013180501032FC10017
:1009C00083D5E8039354084163940500239FA8024C
:1009D00083D788036FF01FF6130101FE232A9100CD
:1009E0009384050093050600232E1100232C81001B
:1009F0002326C100EFF01FEB8325C100130405007F
:100A000013850400EFF01FEA8320C1013305A440E1
:100A10000324810183244101130101026780000046
:100A2000130101FB23202105232A510323286103FD
:100A300023248103232611042324810423229104E7
:100A4000232E3103232C41032326710323229103F8
:100A50002320A103232EB10113090500130C10005C
:100A6000138B0500930A06006308091E2326010064
:100A700093040000930B00008327C10013777C00D0
:100A80001308090093821700232651001304000065
:100A9000630407086356800F03280900130410003D
:100AA0006300080E630A8706930620006300D706DA
:100AB000130630006306C70413034000630C67028B
:100AC0009303500063027702130560006308A700D8
:100AD00003280800138406006304080A032808009A
:100AE00013041400630E08080328080013041400FC
:100AF00063080808032808001304140063020808A8
:100B00000328080013041400630C080603280800D7
:100B100013041400630608066354840703280800BE
:100B20001304140093050400630C08040328080050
:100B30001304140063060804032808001384250026
:100B4000630008040328080013843500630A0802C0
:100B500003280800138445006304080203280800E2
:100B600013845500630E08000328080013846500F1
:100B7000630808000328080013847500E31E08F8C2
:100B800093090900130A0C0013090800635480023A
:100B900063040A0063180902938604001304F4FF37
:100BA0009384090083A909006388060423A09600A2
:100BB000E34080FEB337200163504009638007089B
:100BC000630A0404930DF4FF93FC7D00638E0C1EF6
:100BD0008325490003A5490013860A00E7000B009E
:100BE0006350A00893860400130AFAFF93040900D7
:100BF00003290900E39C06FA938B04006FF01FF9A8
:100C000023A0A401B337200193040D0063040A025A
:100C100063820702130D0900130AFAFF0329090072
:100C2000E39004FE930B0D00B337200193040D00F5
:100C3000E3100AFE93040D00E39007E40329C100CA
:100C400023A00400930210006304592E13890B00A3
:100C5000131C1C00E31C09E023200000730010009B
:100C600003AD090013840D00638C04009386040017
:100C70009384090023A0960093090D006FF05FF3A1
:100C8000938B0900938409006350B02B93081000E4
:100C900093090D00638A1C13130E20006380CC118E
:100CA000930E30006386DC0D130F4000638CEC095B
:100CB000930F50006382FC07130760006388EC0207
:100CC0008325490003254D0013860A00E7000B0029
:100CD000E34AA0F0032D0D001384FDFFE3980BF809
:100CE000938B09009384090093090D008325490023
:100CF00003254D0013860A00E7000B00E344A0EE35
:100D0000032D0D001304F4FFE39204F6938B090006
:100D10009384090093090D008325490003254D00A4
:100D200013860A00E7000B00E34EA0EA032D0D0036
:100D30001304F4FFE39C04F2938B090093840900ED
:100D400093090D008325490003254D0013860A00F1
:100D5000E7000B00E348A0E8032D0D001304F4FFA7
:100D6000E39604F0938B09009384090093090D0026
:100D70008325490003254D0013860A00E7000B0078
:100D8000E342A0E6032D0D001304F4FFE39004EE0C
:100D9000938B09009384090093090D008325490072
:100DA00003254D0013860A00E7000B00E34CA0E288
:100DB000032D0D001304F4FFE39A04EA938B09005A
:100DC0009384090093090D008325490003A5490078
:100DD00013860A00E7000B00E346A0E01304F4FFCB
:100DE00003AD0900930D0400E39204E8938B09001E
:100DF00093840900635A80128325490003254D001E
:100E000013860A0093090D00E7000B00E34CA0DCF9
:100E1000032D0D001304F4FFE39A0BE4832549002E
:100E200003254D0013860A00938B09009384090063
:100E300093090D00E7000B00E346A0DA032D0D0037
:100E40001384EDFFE3940BE28325490003254D0055
:100E500013860A00938B09009384090093090D00FF
:100E6000E7000B00E340A0D8032D0D001384DDFF45
:100E7000E39E0BDE8325490003254D0013860A00FF
:100E8000938B09009384090093090D00E7000B0080
:100E9000E34AA0D4032D0D001384CDFFE3980BDCAF
:100EA0008325490003254D0013860A00938B090012
:100EB0009384090093090D00E7000B00E344A0D2DE
:100EC000032D0D001384BDFFE3920BDA8325490047
:100ED00003254D0013860A00938B090093840900B3
:100EE00093090D00E7000B00E34EA0CE032D0D008B
:100EF0001384ADFFE39C0BD68325490003254D00E9
:100F000013860A00938B09009384090093090D004E
:100F1000E7000B00E348A0CC032D0D0013849DFFD8
:100F2000E3960BD46FF09FE993090D006FF09FC813
:100F30008320C10403248104832441040329010480
:100F40008329C103032A8103832A4103032B01035D
:100F5000032C8102832C4102032D0102832DC10148
:100F600013850B00832BC10213010105678000006C
:100F700003164500130101FD2324810223261102DB
:100F80002322910223202103232E31010324450231
:100F90006352C02A63C8052A6308042C938605009F
:100FA000130E0000130F0000930E000093080000C2
:100FB00013030000930704006F00C00083A707001D
:100FC0006384070E03A7470003182700E318D8FE21
:100FD000930600006F008000138402008322040047
:100FE0002320D40093060400E39802FE6382070CDA
:100FF00083A34700938E1E008394030013F914000B
:101000006308090093D9944093FF1900B388F8014D
:1010100003A70700630C07008322070023A05700E3
:10102000832704002320F7002320E4006340080402
:1010300093021E00939702011308180093160801EB
:101040009393020113DE074193D6064193D4030123
:101050006304C60913F3F40FE3DE06F4930F0300F1
:10106000930704003788FFFF6F00000393091E00F9
:10107000139E0901939F0901135E0E4113D70F01BF
:10108000630AC605937FF70F930704006F00C00043
:1010900083A70700638C070283A2470003C30200F3
:1010A000E318F3FF6FF0DFF2138806006FF05FF2D2
:1010B00083260400130F1F0083A3460083841300BC
:1010C00013F91400B38828016FF05FF613830F0043
:1010D0006FF01FF09306080013962E00330FE641C1
:1010E000B38EE80193980E0193D408016356B002C1
:1010F000B7150000130605009385859D13050400B0
:10110000232661002324D100EFF09F910323C10027
:10111000832681001304050003250400130904003D
:10112000832905000327450083AF490083A20900F6
:101130002322F50123A2E9002320550023A0090062
:1011400063D806006F00800B032909006300090CB7
:101150000328490083132800E398D3FE03264400A4
:101160009385040003150600EF20103B03290900B6
:1011700093040500E31409FE0329040003A74900B2
:10118000032F4900832E0900B718000023A2E901AC
:101190002322E90023A0D9011305040023203901EB
:1011A0009385088513060000EFF09F870324050050
:1011B000930905006300040203A549009385040018
:1011C00003150500EF2050350324040093040500A7
:1011D000E31404FE8320C1020324810203290102D7
:1011E0008329C101138504008324410213010103F3
:1011F0006780000003290900630A0900832749006A
:1012000003CE0700E318C3FF6FF05FF50329040066
:10121000E30809F60326440093850400031506003D
:10122000EF20902F0329090093040500E31809F229
:101230006FF09FF4938605009304000013030000F1
:101240006FF0DFEA630204021388050093070400CD
:1012500093080000930F0000130F0000130E00000E
:10126000930E00006FF05FE383270000730010000F
:10127000130101FE232C8100138405009305400116
:10128000232A9100232E110093040600EF301064EE
:101290001305E5FF93163500B302D400B787FFFFAF
:1012A0002320040023225400138307081318250069
:1012B000239062002391020093070401B38302018B
:1012C000938842009305840063FA573013878200A5
:1012D000637677303786FFFF232404002320B40091
:1012E00023261401134EF6FF930EF0FF2393C20141
:1012F0002392D2011306000063080524378FFFFFF5
:10130000937F35009346FFFF638E0F0E130310008B
:1013100063806F0A1308200063840F059388870099
:1013200063FE58029305470063FA7502032E04001A
:1013300013963400937E860723A0C7012320F40070
:10134000139F8E0023A2E700B38FEE012311D70075
:101350002310F70193870800138705001306100078
:101360001383870063745304130847006370780481
:10137000032E0400B34896009395380093FE85072A
:10138000137F760023A0C701B3EFEE012320F40002
:1013900093988F0023A2E700338E1F012310C7010B
:1013A0002311D70093070300130708001306160044
:1013B0001383870063745304130847006370780431
:1013C000832E0400B3459600139F3500937F8F074B
:1013D0009378760023A0D70133EE1F012320F40079
:1013E00093158E0023A2E700B30EBE002310D70191
:1013F0002311D700930703001307080013061600F4
:101400006304C514138387006374530413084700EF
:1014100063707804832F0400334F960093183F00C5
:1014200013FE88079375760023A0F701336FBE0083
:101430002320F400931E8F0023A2E700B30FDF01E7
:101440002310F7012311D7009307030013070800A7
:1014500013888700130316006374580413064700AB
:1014600063707604032E0400B3489300939538000C
:1014700093FE8507137F730023A0C701B3EFEE012E
:101480002320F40093988F0023A2E700338E1F01DE
:101490002310C7012311D700930708001307060084
:1014A0001388870063765804930E470063F27E0426
:1014B00093051300032F040033C69500931F3600D5
:1014C00013FE750093F88F0723A0E70133E6C801E8
:1014D0002320F4009315860023A2E700330FB60003
:1014E0002310E7012311D7009307080013870E008C
:1014F0001388870063765804930E470063F27E04D6
:10150000930F2300032E0400B3C89F0013963800E6
:10151000137F860793F57F0023A0C701B36FBF0039
:101520002320F40093988F0023A2E700338E1F013D
:101530002310C7012311D7009307080013870E005B
:1015400013063300E310C5EC8322040083A30200DA
:101550006384030693055000232651002324710061
:10156000EF30D036B7460000032681008328C10043
:101570001387F6FF93050020930710006F0080008B
:1015800013060E0013F3057033C8F400B36E0301A5
:1015900003AF4800B3FFEE0063F4A700938F07008A
:1015A000032E06002311FF01938717009385051072
:1015B00093080600E3160EFCB714000013050400A0
:1015C000032481018320C101938504858324410183
:1015D00013060000130101026FF08FC41387080087
:1015E000938705006FF01FD1130101FE23263101FF
:1015F0008329C501232E1100232C0502232E050269
:101600006382091E232C8100232A910023282101B3
:1016100093F739001304050093040000638E070A52
:1016200013091000638C270713072000638CE7025F
:1016300093050900EFF0DF938355840393040900B9
:10164000EF200009231CA4029305F0FF13050400FA
:10165000EFF01F9283558403EF208007231CA40220
:10166000231DA4029305100013050400EFF05F9002
:1016700083558403EF20C005231CA4029305F0FFCB
:1016800013050400EFF0DF8E83558403EF20400440
:10169000231CA40263800418938414009305100093
:1016A00013050400EFF0DF8C83558403EF20400224
:1016B000231CA4029305F0FF13050400EFF05F8BD9
:1016C00083558403EF20C000231CA402638C041202
:1016D0009384140063869914232441019305100018
:1016E00013050400EFF0DF8883558403EF10507E6C
:1016F000231CA4029305F0FF13050400EFF05F879D
:1017000083558403EF10D07C9302050093051000ED
:10171000231C5402130504003389B40063940400AD
:10172000231D5402EFF0DF8483558403EF10507AB9
:10173000231CA4029305F0FF13050400EFF05F8360
:1017400083558403EF10D078231CA402631409008E
:10175000231DA4029305100013050400B304B9006F
:10176000EFF01F8183558403130A2900EF10507690
:10177000231CA4029305F0FF13050400EFF04FFFB4
:1017800083558403EF10D07413030500231C6402F7
:10179000930510001305040063940400231D6402E4
:1017A000EFF00FFD8355840393043900EF1050725E
:1017B000231CA4029305F0FF13050400EFF04FFB78
:1017C00083558403EF10D070231CA40263060A0221
:1017D000E39699F003248101832441010329010147
:1017E000032A81008320C1018329C1001305000061
:1017F0001301010267800000231DA402E39099EE0B
:101800006FF05FFD231DA40293841400E39699EC0E
:101810006F000001231DA402938414006FF01FE8E1
:101820000324810183244101032901016FF09FFBFF
:10183000130101FB23202105232861032326110422
:101840002324810423229104232671032320D10021
:1018500013090500130B060063140600130B100098
:10186000938BF5FF93F2CBFF938742002322F10085
:1018700013040000630A092E9304040013041400E7
:101880009305040013050400EF3090011315350093
:10189000E36425FF9385040013850400EF305000B6
:1018A0009313150023247100832541000327810031
:1018B000B38BE5006384042E232E3103232C4103D4
:1018C000232A510323248103232291032320A103EC
:1018D000232EB10123269100032641001389140011
:1018E000139C140093890B00130A0000930D100041
:1018F00033047641B306B94113F83600938A0D00DC
:10190000138D09006302080E93081000630A18097A
:10191000930C20006304980513050B0093850D00BC
:10192000EF300078135BF541135E0B01330DC501F9
:10193000931E0D0113DF0E01330BCF41B38F6D01E9
:10194000B382BF012390F90193F7F20F33033401FF
:10195000138D2900938D1D002310F30093850D0036
:1019600013050B00EF30C0739353F54193D503017A
:101970003305B5001317050113560701330BB640A5
:10198000B3886D01B386B8013308A40123101D018B
:1019900093FCF60F938D1D0023109801130D2D005D
:1019A00013050B0093850D00EF30806F135BF5413D
:1019B000135E0B01B30EC501139F0E01935F0F0160
:1019C000338BCF41B3876D013383B701B302A401D9
:1019D0002310FD009373F30F938D1D00239072006D
:1019E000130D2D0063802D1193850D0013050B0041
:1019F000EF30006B9355F54113D705013305E50032
:101A000013160501935806013385E840338EAD0067
:101A1000B306BE013308A401938C1D002310CD0131
:101A200093FEF60F2310D80193850C00EF3040672A
:101A3000135FF541935F0F01B302F5019397020124
:101A400013D307013305F341B385AC003387950108
:101A5000B303A401138B2D001376F70F2311BD00E0
:101A60002391C30093050B00EF3080639358F54139
:101A700013DE08013305C50113180501935608014B
:101A80003385C641330FAB00B30F6F01938C3D001C
:101A9000B30EA4012312ED0193F2FF0F93850C0006
:101AA00023925E00EF30C05F9357F54113D30701D7
:101AB000B30365009395030113D70501330B67400A
:101AC000B3886C01338E98013306A40123131D01E2
:101AD0001375FE0F938D4D002313A600130D8D007B
:101AE000E3942DF1130A1A00B38D540133099900C0
:101AF000B3898901E3109AE08329C103032A810392
:101B0000832A4103032C8102832C4102032D01020D
:101B1000832DC1010324810083270100832F41000D
:101B200033888B0023A477019306F8FF832BC10031
:101B30008320C1040324810493FEC6FF138F4E004B
:101B400023A0770123A6E70123A2F70103290104BB
:101B5000032B0103832BC10213850400832441045A
:101B600013010105678000009304F0FF13032000B8
:101B7000232E3103232C4103232A510323248103E1
:101B8000232291032320A103232EB10123269100B8
:101B9000938B6200232461006FF01FD42324010083
:101BA000232601006FF01FF763060522130101FDD4
:101BB000232C410123248101131A1500131C250035
:101BC00023202103232E3101232A510123286101DF
:101BD000232671012326110223248102232291024C
:101BE00023229101938A0600930B0600130B050034
:101BF00013890500338C8501338A4601930900005F
:101C0000B3075A419382E7FF13D3120093031300E3
:101C10009394190013F57300B3849B00938C0A000E
:101C2000130400006300050E13071000630EE50A9D
:101C300093052000630EB50813063000630EC50639
:101C400093064000630ED50413085000630E05038D
:101C500093086000630E15010395040083950A0044
:101C600093842400938C2A00EF30804313040500F2
:101C700083950C0003950400938C2C00938424001E
:101C8000EF3000423304A40083950C000395040058
:101C9000938C2C0093842400EF3080403304A40004
:101CA00083950C0003950400938C2C0093842400EE
:101CB000EF30003F3304A40083950C00039504002B
:101CC000938C2C0093842400EF30803D3304A400D7
:101CD00083950C0003950400938C2C0093842400BE
:101CE000EF30003C3304A40083950C0003950400FE
:101CF000938C2C0093842400EF30803A3304A400AA
:101D000063089A0983950C0003950400938C0C01D9
:101D100093840401EF30C03883952CFF3304A40072
:101D2000039524FFEF30C03783954CFF3304A400A4
:101D3000039544FFEF30C03683956CFF3304A40055
:101D4000039564FFEF30C03583958CFF3304A40006
:101D5000039584FFEF30C0348395ACFF3304A400B7
:101D60000395A4FFEF30C0338395CCFF3304A40068
:101D70000395C4FFEF30C0323304A4008395ECFF19
:101D80000395E4FFEF30C0313304A400E31C9AF75D
:101D90002320890013094900B3896901E3122CE764
:101DA0008320C1020324810283244102032901020A
:101DB0008329C101032A8101832A4101032B0101E7
:101DC000832BC100032C8100832C410013010103EC
:101DD000678000006780000063040528130101FB91
:101DE0002322910493141500232C4103232A510329
:101DF0002326710323248103232291032326110424
:101E00002324810423202105232E31032328610369
:101E10002320A103232EB1012326D1002324B100C6
:101E2000930B0500930A0600330A9600130C00007A
:101E3000930C0000832781000329C10093192C0013
:101E4000B3893701130B000033075A419302E7FFB0
:101E500013D312009303130013F573001304090046
:101E6000938D0A00130D00006300050E1306100089
:101E7000630EC50A93052000630EB5089306300073
:101E8000630ED50613084000630E05059308500045
:101E9000630E1503130E6000630EC5018315090060
:101EA00003950A00938D2A0033049900EF30401FF8
:101EB000130D05008315040003950D0033049400F1
:101EC000938D2D00EF30C01D330DAD008315040040
:101ED00003950D0033049400938D2D00EF30401CCA
:101EE000330DAD008315040003950D0033049400F9
:101EF000938D2D00EF30C01A330DAD008315040013
:101F000003950D0033049400938D2D00EF3040199C
:101F1000330DAD008315040003950D0033049400C8
:101F2000938D2D00EF30C017330DAD0083150400E5
:101F300003950D00938D2D0033049400EF3040166F
:101F4000330DAD006306BA0B8315040003950D0035
:101F500033049400938D0D01EF3080148315040039
:101F6000330DAD0003952DFF33049400EF30401383
:101F700083150400330DAD0003954DFF3304940029
:101F8000EF30001283150400330DAD0003956DFF93
:101F900033049400EF30C01083150400330DAD00FE
:101FA00003958DFF33049400EF30800F83150400F8
:101FB000330DAD000395ADFF33049400EF30400EB8
:101FC00083150400330DAD000395CDFF3304940059
:101FD000EF30000D83150400330DAD000395EDFFC8
:101FE00033049400EF30C00B330DAD00E31EBAF59F
:101FF00023A0A901930E1B0093894900130929000E
:102000006386DB01138B0E006FF01FE4B38A9A0026
:10201000330C7C01330A9A0063866C01938C1C009C
:102020006FF05FE18320C104032481048324410411
:10203000032901048329C103032A8103832A41035D
:10204000032B0103832BC102032C8102832C410249
:10205000032D0102832DC1011301010567800000DA
:102060006780000063020524130101FB2322910411
:102070009314150023202105232A510323267103DD
:102080002324810323229103232611042324810482
:10209000232E3103232C4103232861032320A10392
:1020A000232EB1012326D1002324B100930B050078
:1020B000930A060033099600130C0000930C0000ED
:1020C000832781008329C100131A2C00338A47011A
:1020D000130B0000B30659419382E6FF13D312009D
:1020E0009303130013F5330013840900938D0A0042
:1020F000130D0000630E0508130610006302C506E9
:10210000930520006308B5028395090003950A0032
:10211000938D2A00EF20D078135755401354254053
:102120001375F4009375F707EF209077130D0500F2
:10213000338499008315040003950D003304940043
:10214000938D2D00EF20D07593585540135825409E
:102150001375F80093F5F807EF209074330DAD0078
:102160008315040003950D00938D2D003304940016
:10217000EF201073935E5540135E25401375FE00EB
:1021800093F5FE07EF20D071330DAD006306B90B58
:102190008315040003950D0033049400938D8D0086
:1021A000EF201070935F5540135F254093F5FF07B4
:1021B0001375FF00EF20D06E83150400330DAD00C2
:1021C0000395ADFF33049400EF20906D9356554076
:1021D0009357254093F5F60713F5F700EF20506C61
:1021E00083150400330DAD000395CDFF3304940037
:1021F000EF20106B13535540935225409375F3070E
:1022000013F5F200EF20D06983150400330DAD0003
:102210000395EDFF33049400EF209068135655406A
:102220009353254013F5F3009375F607EF2050679D
:10223000330DAD00E31EB9F52320AA0113051B00E1
:10224000130A4A00938929006386AB00130B05002B
:102250006FF05FE8B38A9A00330C7C013309990070
:1022600063866C01938C1C006FF09FE58320C10492
:102270000324810483244104032901048329C10325
:10228000032A8103832A4103032B0103832BC10209
:10229000032C8102832C4102032D0102832DC101F5
:1022A000130101056780000067800000130101FB36
:1022B000232C4103232A51032326110423248104C0
:1022C000232291042326D100138A0500930A0600D5
:1022D000E30A053E23248103131C150023229103E6
:1022E000B7F2FFFFB30C8601232E31032320210513
:1022F00023286103232671032320A103232EB10188
:102300009304070093860C00336457009309000080
:102310001307ECFF135317009303130093F5730097
:10232000B38786416384050A130610006386C508D7
:1023300013082000638A050793083000638E150593
:102340001309400063822505130B50006386650363
:10235000930B6000638A750103DD070093872700F4
:10236000B38DA401239FB7FF03DE070093872700E7
:10237000B38EC401239FD7FF03DF07009387270095
:10238000B38FE401239FF7FF83D2070093872700D1
:1023900033875400239FE7FE03D30700938727006A
:1023A000B3836400239F77FE83D5070093872700BC
:1023B0003386B400239FC7FE03D807009387270006
:1023C000B3880401239F17FF6386D70603D907004C
:1023D00003DB270083DB470003DD670083DD870025
:1023E00003DFA70083DFC70083D2E700B38E240199
:1023F000338E640133837401B383A4013388B40141
:10240000B385E4013386F401338754002390D70168
:102410002391C70123926700239377002394070138
:102420002395B7002396C7002397E70093870701FA
:10243000E39ED7F8138B1900B38687016306650105
:1024400093090B006FF0DFEC130D0000930D0000FB
:102450001305ECFF935815009387180013192D00EE
:1024600013FF7700B30B2A0133898C4163000F0EF1
:10247000930F1000630EFF0B93022000630E5F08A2
:10248000930E3000630EDF07130E4000630ECF057E
:1024900013035000630E6F0293036000630E7F000E
:1024A000031509009385040013092900EF20503F0C
:1024B00023A0AB00938B4B00031509009385040008
:1024C00013092900EF20D03D23A0AB00938B4B00D4
:1024D000031509009385040013092900EF20503CDF
:1024E00023A0AB00938B4B000315090093850400D8
:1024F00013092900EF20D03A23A0AB00938B4B00A7
:10250000031509009385040013092900EF205039B1
:1025100023A0AB00938B4B000315090093850400A7
:1025200013092900EF20D03723A0AB00938B4B0079
:10253000031509009385040013092900EF20503684
:1025400023A0AB00938B4B0063882C090315090073
:102550009385040013090901EF20903423A0AB00F8
:10256000031529FF93850400938B0B02EF20503352
:1025700023A2ABFE031549FF93850400EF205032E0
:1025800023A4ABFE031569FF93850400EF205031AF
:1025900023A6ABFE031589FF93850400EF2050307E
:1025A00023A8ABFE0315A9FF93850400EF20502F4D
:1025B00023AAABFE0315C9FF93850400EF20502E1C
:1025C00023ACABFE0315E9FF93850400EF20502DEB
:1025D00023AEABFEE39C2CF7330D6D01B38C8C0165
:1025E00063863D01938D1D006FF09FE6931B2B00CA
:1025F000330C7A0193050C001303000093070000CD
:102600001305000093080000938DCBFF13D82D0015
:102610001306180093763600338775416380060EE3
:10262000130F10006384E605930F20006380F60308
:102630009302030003230700B38767006358F41273
:102640001305A5009307000013074700130E0300AE
:1026500003230700B38767006354F4101309A50030
:10266000930700001305090013074700130D03002B
:1026700003230700B3876700635EF40C930DA50086
:102680009307000013980D011307470013550841E5
:102690006396E506B38575016380190F938818006A
:1026A0006FF09FF6032F47003323C300B306650086
:1026B000B38FE701130747006354F407032E470065
:1026C000930F0000938EA600B383CF01635474066A
:1026D00003238700930300001389AE00B3876300D0
:1026E0006354F406930CA90093070000939D0C011A
:1026F0001307C70013D50D41E38EE5F80326070045
:10270000B387C700E350F4FA032F47009307000094
:102710009306A500B38FE70113074700E340F4FBDE
:10272000032E4700B322E601B38E5600B383CF01D8
:10273000E34074FA032387003325CF013389AE00C9
:10274000B3876300E340F4FA332D6E00B30CA901A4
:102750006FF0DFF9B32C6D00B30D95016FF09FF2B0
:10276000B3236E00330975006FF0DFEFB3AE620084
:102770003305D5016FF05FED93050000EF10C059F0
:102780008326C10093050A001309050013860A0079
:1027900013050B00EFF04FC19308000093070000F2
:1027A00013050000930500001388CBFF1356280083
:1027B0009306160013FF360033077C4163000F0EAB
:1027C000930F10006304FF059302200063025F0271
:1027D000938E080083280700B38717016358F4120B
:1027E0009303A50093070000138503001307470018
:1027F0001383080083280700B38717016352F4107E
:102800001305A5009307000013074700938C0800E9
:1028100083280700B3871701635EF40C1308A50033
:1028200093070000131608011307470013550641CC
:1028300063168707330C77016380350F9385150086
:102840006FF09FF6832F4700B3A8E801B306150188
:10285000B382F701130747006354540683234700EC
:1028600093020000138EA600338372006354640643
:1028700083288700130300001305AE00B30713017C
:102880006354F406930DA5009307000013980D01FF
:102890001307C70013550841E30E87F9032F0700FC
:1028A000B387E701E350F4FA832F47009307000052
:1028B0009306A500B382F70113074700E34054FADB
:1028C00083234700B32EFF01338ED601338372007A
:1028D000E34064FA8328870033AD7F003305AE01FF
:1028E000B3071301E340F4FAB3AC1301B30D950140
:1028F0006FF0DFF9B3AD1C013308B5016FF09FF243
:10290000332D13013305A5016FF01FF033AE1E0107
:10291000B303C5016FF05FED93050900EF10C03FF1
:102920008326C10093050A001309050013860A00D7
:1029300013050B00EFF04FCA1303000093050000CE
:1029400093070000130500009308000013162300EE
:10295000330FCA009386050083250F00930FFBFFFA
:1029600093F23F00B387B7006354F450130EA500F1
:102970009307000093130E019306100013D5034133
:1029800013064F0063FA66156382020E6388D20451
:10299000130D20006382A203938C050083254F0052
:1029A000B387B700635AF4501305A50093070000DE
:1029B000938616001306460013870500832506003C
:1029C000B387B700635EF44C9309A500930700003A
:1029D000138509009386160013064600938B0500A5
:1029E00083250600B387B7006350F44A130FA50090
:1029F00093070000931F0F019386160013D50F4114
:102A00001306460063E466076F00000D832346004B
:102A1000B3A55500B30EB500338D7700938616002D
:102A2000130646006358A407832D4600130D0000CB
:102A3000938CAE003305BD016358A4068325860040
:102A4000130500001388AC00B307B5006358F40603
:102A5000930BA800139C0B0193863600930700008C
:102A600013550C411306C60063F86607832206005F
:102A7000B3875700E35CF4F8832346009307000014
:102A8000930EA500338D770093861600130646003B
:102A9000E34CA4F9832D460033AE7200B38CCE0113
:102AA0003305BD01E34CA4F88325860033A7B301A9
:102AB0003388EC00B307B500E34CF4F8B3A9BD00CC
:102AC000B30B3801139C0B019386360013550C4150
:102AD0001306C600E3EC66F993881800330363011C
:102AE000E3E668E793050900EF1000238326C100A1
:102AF00093050A001309050013860A0013050B004D
:102B0000EFF04FD6130E000093050000930700006E
:102B10001305000013030000131F2E00B30FEA017A
:102B20009382050083A50F00930EFBFF93F33E00F5
:102B3000B387B7006358F432930CA50093070000E5
:102B4000939D0C011306100013D50D4113874F0000
:102B5000637A66156382030E6388C304130820003A
:102B6000638203039389050083A54F00B387B700F1
:102B7000635EF4321305A5009307000013061600E8
:102B8000130747009386050083250700B387B70026
:102B90006352F4309308A5009307000013850800E2
:102BA0001306160013074700138F0500832507003F
:102BB000B387B7006354F42C9302A5009307000079
:102BC000939E02011306160013D50E41130747000A
:102BD000636466076F00000D832C4700B3A5750082
:102BE000330DB500B38D9701130616001307470088
:102BF0006358B407832B4700930D00009309AD0081
:102C000033857D016358A4068325870013050000E2
:102C1000138CA900B307B5006358F406130FAC007A
:102C2000931F0F01130636009307000013D50F41C1
:102C30001307C7006378660783230700B38777000D
:102C4000E35CF4F8832C470093070000130DA50004
:102C5000B38D97011306160013074700E34CB4F930
:102C6000832B470033A89301B3090D0133857D0100
:102C7000E34CA4F883258700B3A67C01338CD900EC
:102C8000B307B500E34CF4F8B3A8BB00330F1C0145
:102C9000931F0F011306360013D50F411307C7000A
:102CA000E36C66F913031300330E6E01E36663E70A
:102CB00093050900EF1040069308000093050000FB
:102CC00093921800B38E5A0083D30E00130DFBFFAE
:102CD00013061000B38C934023909E0193872E001F
:102CE000937D7D006378661363800D0C6382CD0A4B
:102CF0001308200063840D099309300063863D07A3
:102D0000930B400063887D0593065000638ADD02C3
:102D1000130C6000638C8D0103DF2E001306080086
:102D200093874E00B30F9F402391FE0103D7070006
:102D3000130616009387270033049740239F87FECE
:102D400003D907001306160093872700330A99401A
:102D5000239F47FF03D3070013061600938727001E
:102D6000330E9340239FC7FF83D20700130616003C
:102D700093872700B38E9240239FD7FF83D307000A
:102D80001306160093872700338D9340239FA7FFD8
:102D900083DC07001306160093872700B38D9C4041
:102DA000239FB7FF6378660703D8070083D92700FE
:102DB00083DB470003DC670003D4870003D9A70047
:102DC00083D6C70003D7E700330A9840B38F9940F2
:102DD000338F9B40B3029C40330E944033039940A1
:102DE000B38E9640B3039740239047012391F70198
:102DF0002392E701239357002394C701239567008B
:102E00002396D7012397770013068600938707013F
:102E1000E36C66F993851500B3886801E3E265EB1E
:102E2000032901048329C103032B0103832BC1025E
:102E3000032C8102832C4102032D0102832DC10149
:102E40008320C10403248104131505018324410454
:102E5000032A8103832A4103135505411301010508
:102E60006780000033ADB200B30CA5016FF05FCDF9
:102E7000B3AEB600330ED5016FF0DFAFB32FBF0096
:102E8000B302F5016FF0DFD333ACBB00330F850124
:102E90006FF05FB633ACB600B30885016FF01FD09A
:102EA0003328B700B30905016FF09FB2B3ABB90087
:102EB000330575016FF09FCCB3ADBC003305B50190
:102EC0006FF01FAF93050000EF0010658324C10071
:102ED00013860A00130405009386040093050A0074
:102EE00013050000EFE05FCC93050400130500001C
:102EF000EF0090629386040013860A001304050015
:102F000093050A0013050000EFE01FED9305040090
:102F100013050000EF0050601304050093050A003C
:102F20009386040013860A0013050000EFF08F93C8
:102F30009305040013050000EF00105E6FF05FF0D2
:102F4000130101FF2324810083268500130406005A
:102F500013870500032645008325C50003250500CA
:102F600023261100EFF08FB49305040003248100A1
:102F70008320C100130101016F00105A9308F5FF6F
:102F8000130E1000130101FF63761E25B385C501E2
:102F9000139305019355030123268100B7520000C6
:102FA000B75F0000375F0000B75E00001394B50103
:102FB00023249100232221011303700013F77500CD
:102FC0009382826C938F8F6D130F8F6E938E8E6FA3
:102FD00093060000130840009303C0029357E401D6
:102FE0006304670A636EE81C1309D7FF131709010E
:102FF0001354070193972700636C8E1A3309FF005F
:10300000032709001304800093871600B304F4001B
:1030100063FA140903490700B306D600B307F600A4
:103020002380260103491700938515009395050118
:10303000238027018347270093D505012381F600CC
:1030400003493700A3812601630204038347470035
:103050002382F60003495700A382260183476700B5
:103060002383F60003477700A383E60033848600BA
:103070002300740013F775001394B50193860400C0
:103080009357E401E31067F693942700130480003C
:103090009387160033899200B304F40003270900D4
:1030A000E3EA14F70324C1008324810003294100CB
:1030B00063FCA60EB303F54013F87300630E080C0F
:1030C000B306D600238006009386070063FEA70C94
:1030D00093081000B38717016300180D130E20002A
:1030E000630AC80793053000630EB80493024000DA
:1030F00063025804930F50006306F803130F600037
:10310000630AE801B30ED60023800E009386070001
:10311000938717003303D60023000300938607002C
:10312000938717003307D600230007009386070014
:1031300093871700B303D60023800300938607000C
:10314000938717003308D6002300080093860700F2
:1031500093871700B306D6002380060093860700E6
:10316000330ED6009387170023000E00B308F60035
:1031700063FCA7029386770023800800A3800800E1
:1031800023810800A381080023820800A38208008D
:103190002383080093878700330ED60023000E0098
:1031A000B308F600E3E8A7FC130101016780000003
:1031B000B384FE0003A70400130440006FF0DFE4B3
:1031C00093972700B384FF0003A704001304800033
:1031D0006FF09FE393070E00930600006FF09FEDE2
:1031E00003270500130605008347070063860726AB
:1031F0009306C00213050000638CD71C1308E0027D
:10320000638C071D636CF802138F57FD937FDF0FEC
:1032100063860F1E83AF450083A2050013071700C6
:1032200013831F001385120023A0A50023A26500AD
:10323000130510002320E60067800000138307FDBC
:103240009373F30F93089000E3E678FC03AE050058
:1032500093071700930E1E0023A0D5010347170004
:103260006306071E630ED71E1308E00263040705FA
:10327000130F07FD937FFF0F130590006372F50393
:1032800083A205011305100013871700B387A2005E
:1032900023A8F5002320E6006780000023A4D501C1
:1032A00003C71700938717006302071A9306C0022B
:1032B0006FF05FFB03A305019303130023A87500C0
:1032C00003CE17009387170063040E129306C00203
:1032D000630CDE0E9378FE0D930E50046392D80DAE
:1032E00003A54501138717009303150023AA750052
:1032F00003CE170063080E1A9308C002630A1E1754
:1033000003A7C50093065EFD93FED60F13081700B2
:1033100023A6050163900E0803CF2700138727001B
:10332000630E0F1463001F1783AF850193020FFD17
:1033300013F3F20F13851F00930E900023ACA5002A
:1033400063FA6E0013873700130510002320E60090
:103350006780000093030700034E17001307170050
:103360009308C00293070EFD93F6F70F63020E1247
:1033700063041E13E3F0DEFE03A8450013051000EE
:1033800013872300330FA80023A2E5012320E600C2
:103390006780000013872700130510006FF09FE976
:1033A00013080EFD137FF80F930F9000E3FAEFF16F
:1033B00083A2450113051000138717003383A20071
:1033C00023AA65006FF01FE713870700130550005D
:1033D000130717006FF01FE603A5050093071700FA
:1033E0009302150023A05500034E1700E3120EEEC2
:1033F00013870700130550006FF0DFE303A50500F6
:10340000930717009302150023A0550003431700EC
:10341000630E03086302D30A83A38500930603FDAA
:1034200013FEF60F93089000938E1300E3F8C8E79D
:10343000630A030123A4D501130727001305100015
:103440006FF05FDF23A4D5016FF09FE713870700BC
:10345000130540006FF01FDE130500006FF09FDDC5
:103460001387070013054000130717006FF09FDC58
:1034700013053000130717006FF0DFDB1305600042
:103480006FF05FDB13056000130717006FF09FDA22
:10349000130570006FF01FDA130570001307170093
:1034A0006FF05FD9130530006FF0DFD81387070086
:1034B000130520006FF01FD81387070013052000A5
:1034C000130717006FF01FD7130101F8232C810693
:1034D000232A910623282107232631072324410785
:1034E0002322510723206107232E7105232C8105F8
:1034F000232E11069384050083C505002326910021
:103500002328010223280100232A0102232A010083
:10351000232C0102232C0100232E0102232E010063
:10352000232001042320010223220104232201027B
:10353000232401042324010223260104232601025B
:1035400013890700130C0500930B0600138B06006C
:10355000930A07009309010313040101130AC10030
:10356000638805109385090013050A00EFF05FC713
:1035700013172500B30287008326C10083A702002A
:1035800003C306009383170023A07200E31C03FC0F
:1035900023269100338C840163F88403938804000C
:1035A0001306C00203C50800334875016304C50053
:1035B00023800801B3885801E3E688FF03CE0400A6
:1035C000130AC10063080E029385090013050A005F
:1035D000EFF01FC1931E2500338F8E00832FC10093
:1035E00083250F0003C70F009382150023205F007F
:1035F000E31C07FC9306C00263FE840183C704003A
:1036000033C367016384D70023806400B38454010B
:10361000E3E684FF938A090003250400930509006B
:1036200013044400EF00402D9305050003A50A0094
:10363000938A4A00EF00402C13090500E31E34FD75
:103640008320C1070324810783244107032901073D
:103650008329C106032A8106832A4106032B01061A
:10366000832BC105032C810513010108678000002D
:10367000338CA400E3E484F36FF0DFF99307500088
:1036800063E4A704B752000013152500138382706A
:10369000B303650083A503006780050003A50181CE
:1036A0006780000003A5C1816780000003A58181B8
:1036B000678000003707001003254700678000007F
:1036C00003A54181678000001305000067800000AA
:1036D00093F7F50F9392870093D585003717000075
:1036E00037F3FFFFB3E3B200930FF7F09302030F3A
:1036F00033F6F301B3F653001318460093D846008F
:10370000937EF500137F050FB7370000B7D5FFFF95
:10371000938337331383C5CC336E180113974E0050
:1037200093564F0033786E00B368D70033767E002F
:10373000131E2600935E280093F7380313F7C80C76
:10374000B7550000B7B6FFFF336FDE0193885555BC
:103750001388A6AA139E2700935E2700B3771F0144
:1037600033760F013367DE019356160093951700E9
:10377000137F5705137EA70AB3EED50013561E001C
:1037800093171F0033EFC70013D78E00B34EE70126
:10379000375E0000B3E5D50093070E7293961E00C6
:1037A0003386F60003570600139F850013558500E6
:1037B000B34EE7019375F70F139E0E0113568E015A
:1037C0009396850033E7C600337FF701B37E570039
:1037D00093154F0013DE4E0033E6C501B376760035
:1037E00033776600139F2600935E2700B365DF01E1
:1037F00033FE1501B3F6050113161E0013D716008C
:10380000336FE600937EFF0F93958E00135E8F005B
:1038100033E6C501B376F60133775600137FF50022
:10382000935E470093954600B3E6D501131E4F0003
:10383000135545003366AE0033F7760033FF66005C
:1038400093753603935E2F00137EC60C1315270065
:103850003367D50113562E0093962500B3E5C600B5
:10386000337E17013375070193FEA50A1357150020
:1038700013FF550513161E00336EE60093151F0047
:1038800093D61E0033E5D500135F8E00B34EAF0014
:1038900013961E00B307F60003D7070093158E009A
:1038A000334EB7009376F70F13150E01135F8501A2
:1038B000939E860033E6EE01B37FF601B3725600A5
:1038C00093974F0013D74200B3E5E700B3F37500B9
:1038D00033F36500139E230093562300336FDE00FD
:1038E000B3781F0133780F0113951800935E180009
:1038F0003365D5016780000093F7F50F9392870039
:1039000093D5850037170000B7F8FFFF9303F7F052
:1039100033E3B2009382080FB3767300337653001B
:1039200013984600135E4600137FF500937F050F42
:10393000B7370000B7D5FFFF93883733B36EC801A0
:1039400013174F001388C5CC13D64F0033F31E0155
:10395000B3F60E01B36EC700131E230013DF26005B
:1039600093F73E0313F7CE0CB755000037B6FFFFB1
:1039700093865555B36FEE019305A6AA139E2700B3
:10398000935E270033FFDF0033F3BF00B36FDE0128
:103990001357130093171F0013F65F0513FEAF0AAA
:1039A000B3EEE70013531E00131F160033666F00BB
:1039B00093DF8E00B3CECF00B3E7E70037570000A8
:1039C00013030772139E1E00330F6E00835F0F00F8
:1039D0001396870093578500B3CECF00139E0E0138
:1039E00013F7FF0F135F8E01931F870033E6EF017C
:1039F000B37E760033775600139E4E00135F470068
:103A0000B36FEE0133F61F01B3FE0F01131726004B
:103A100013DE2E00336FC701B37FDF003376BF00A4
:103A2000939E1F001357160033EEEE00137FFE0F18
:103A3000931F8F0013568E0033E7CF00B37E7700BD
:103A4000337E5700139F4E00935F4E0013F6F7002E
:103A500093F7070F3367FF01931F460013DF4700FB
:103A6000337E1701B37E070133E7EF0113162E00F3
:103A700093D72E00137F3703137EC70CB36FF60066
:103A800013572E00931E2F0033F6DF00B3F7BF004D
:103A900033EFEE0013DE1700937F5F05937EAF0ACE
:103AA000131716003366C70193971F0093DF1E009C
:103AB000B3EEF701135F86003346DF013367C701BA
:103AC000131E1600B3076E0083DF0700131F870065
:103AD000935E050133C7EF01131E070113F6FF0FB5
:103AE00093578E01931F860033EFFF0033777F00DB
:103AF00033765F00131E470093574600B36FFE00F6
:103B000033FF1F0133F70F0113162F00135E270039
:103B1000B367C601B3FFD70033FFB70013971F0089
:103B200013561F00B367C70013FEF70F931F8E00D5
:103B300013DF870033E7EF0133767700B377570061
:103B4000931F460013DE470013FFFE0093FE0E0F87
:103B500033E7CF0193174F0093DF4E003376070111
:103B600033EEF701337F170113172F00935E260002
:103B7000937F3E03137FCE0CB367D70113962F00BC
:103B800013572F0033FED700B3FEB700B367E6002C
:103B900093FF570513171E0013F6A70A13DE1E0026
:103BA000336FC701939E1F009357160033E6FE0044
:103BB000935F8F0033CFCF00931E1F00B3876E003B
:103BC00083DF07003367C701131E870033CFCF01A0
:103BD000931E0F0113F6FF0F93D78E01931F8600DC
:103BE00033E7FF00337E7700337F5700931E4E008C
:103BF00013564F00B3E7CE00B3FF170133F70701A9
:103C0000139F2F00135E2700B36ECF01B3F7DE00C2
:103C100033F6BE00939F17001357160033EFEF00E3
:103C2000137EFF0F931E8E0093578F0033E6FE0026
:103C3000B37F76003377560013558501137FF50067
:103C4000135E4700939E4F00B3EFCE0193174F00D2
:103C50001356450033E5C70033F71F0133FF0F014B
:103C600093773503935E2F00937FC50C131E2700B7
:103C70003367DE0113D52F0013962700B367A60024
:103C8000B37FD700337EB70093FEA70A13571E00F9
:103C900013FF570513951F00B36FE50093171F001F
:103CA00013D61E0033EEC70013DF8F00B34ECF01D3
:103CB00013951E00330365000357030093978F008D
:103CC000B34FF7001376F70F139E0F01135F8E01AA
:103CD000931E860033E5EE01B3737500B372550091
:103CE0001393430013D74200B36FE300B3F81F01EF
:103CF00033F80F01939728001356280033EEC700BE
:103D0000B376DE00B375BE00139F160093DE150078
:103D10003365DF016780000093F7F50F939287000A
:103D200093D585003717000037F3FFFFB3E3B200E8
:103D3000930FF7F09302030F33F6F301B3F653003A
:103D40001318460093D84600937EF500137F050FA5
:103D5000B7370000B7D5FFFF938337331383C5CC44
:103D6000336E180113974E0093564F0033786E0050
:103D7000B368D70033767E00131E2600935E2800BA
:103D800093F7380313F7C80CB7550000B7B6FFFF19
:103D9000336FDE01938855551388A6AA139E27001A
:103DA000935E2700B3771F0133760F013367DE017F
:103DB0009356160093951700137F5705137EA70A95
:103DC000B3EED50013561E0093171F0033EFC70044
:103DD00013D78E00B34EE701375E0000B3E5D50080
:103DE00093070E7293961E003386F6000357060063
:103DF000139F850013558500B34EE7019375F70FA8
:103E0000139E0E0113568E019396850033E7C6006C
:103E1000337FF701B37E570093154F0013DE4E003A
:103E200033E6C501B376760033776600139F26002C
:103E3000935E2700B365DF0133FE1501B3F605017C
:103E400013161E0013D71600336FE600937EFF0F84
:103E500093958E00135E8F0033E6C501B376F601AD
:103E600033775600137FF500935E47001375050FF7
:103E700093954600B3E6D501131E4F001356450037
:103E800033FF7600B3F566003367CE00137E370349
:103E900093DE25001376C70C13152F00336FD50161
:103EA00093162E0013572600B3E5E600337E1F015C
:103EB00033750F0193FE55051357150093F6A50AA8
:103EC00013161E00336EE600139F1E0093D51600D6
:103ED0003365BF00935E8E00B3C6AE001396160026
:103EE000B307F60003D70700131F8E00B345E701A1
:103EF000137EF70F13950501935E850193168E00CF
:103F000033E6D601B37FF601B372560093974F00A4
:103F100013D7420033EFE700B3737F0033736F00B2
:103F200093952300135E2300B3EEC501B3F81E0181
:103F300033F80E0113951800935618003365D50019
:103F4000678000001305000067800000732700B041
:103F500023A6E18067800000732700B0B707001038
:103F600023A4E700678000003707001003258700BF
:103F700083A2C1803305554067800000B7A5AE021B
:103F8000130101FF9385055423261100EF1000143F
:103F90008320C10013010101678000009307100016
:103FA0002300F50067800000230005006780000003
:103FB000130101F6232C8108232A910823282109C3
:103FC000232C8107232E1108232441092322510980
:103FD00023206109232E7107232A91072326B10785
:103FE00013F8070413040500138906001385050060
:103FF00093040600130C07006310081813F7070159
:10400000375B00002326E100130BCB646310071815
:1040100013F31700930AF3FF93F30AFF23246100BD
:1040200013F62700938A030393FC0702630E061618
:10403000634C055C93F647006398065893F7870036
:104040002322010063880700930800021309F9FF87
:1040500023221101638E0C00930B00016380745FB7
:10406000938C84FF93BD1C003309B941930C00026B
:104070006316054E13050003230EA100930B0000E9
:10408000930D1000130AC101138B0D0063D48D0131
:10409000130B0C000327810033096941631C0710CF
:1040A0003303240193070400635420113304834035
:1040B00093757400130600026384050693061000CE
:1040C000638AD50493082000638215051305300028
:1040D000638AA502130E40006382C50313095000D2
:1040E000638A2501930E60006394D5592380C7002D
:1040F000938717002380C700938717002380C7008A
:10410000938717002380C700938717002380C70079
:104110009387170093871700A38FC7FE63866702F4
:104120002380C700A380C7002381C700A381C700E5
:104130002382C700A382C7002383C700A383C700CD
:1041400093878700E39E67FC032F4100130403005D
:10415000631E0F44638A0C00930C800063869453A3
:10416000930F00016384F4498324C100B33A9000A3
:104170001389EAFF6F00801113F70701B75200009F
:104180002326E100138B4267E30407E893F7E7FF78
:10419000930500012324B10013F62700930A0002BF
:1041A00093FC0702E31606E8232201006FF09FEA62
:1041B0001309F9FF83234100638603002300740081
:1041C00013041400638A0C0013038000638E64469A
:1041D00093030001638E74408328C1006398080A2A
:1041E00033052401930704006352204F33048540B4
:1041F000137E740063040E06930E1000630ADE053E
:10420000130F20006302EE05930C3000630A9E0337
:10421000930F40006302FE0393045000630A9E0064
:1042200013086000631C0E45238057019387170015
:104230002380570193871700238057019387170026
:104240002380570193871700238057019387170016
:1042500093871700A38F57FF6386A7022380570118
:10426000A380570123815701A3815701238257015E
:10427000A382570123835701A383570193878700A4
:10428000E39EA7FC130405001309F0FFB30A6401C1
:1042900063D08D0F93C2FDFF930C140033838240D3
:1042A00013070003B3035301A38FECFEB3859A41B8
:1042B00013F6730063D2BD0A630A06069306100064
:1042C000630ED6049308200063061605130530001C
:1042D000630EA602130E40006306C603930E500041
:1042E000630ED601130F60006306E601930C2400F1
:1042F000A300E4002380EC00938C1C002380EC00DE
:10430000938C1C002380EC00938C1C002380EC0019
:10431000938C1C002380EC00938C1C00938C1C005D
:10432000B38F9A41A38FECFE63D8FD032380EC008A
:10433000A380EC002381EC00A381EC002382EC003D
:10434000A382EC002383EC00938C8C00B3849A410D
:10435000A38FECFEE3CC9DFC1308000063D68D0117
:10436000330CBB411308FCFF930D18003304B40158
:10437000138B1B00937A7B00B3077A0113070400A9
:10438000130AFAFF638C0A0893021000638E5A0620
:104390001303200063826A069303300063867A0465
:1043A00093054000638ABA0213065000638ECA0068
:1043B000930660006392DA2203C507001307170013
:1043C0009387F7FFA30FA7FE03CE0700130717007D
:1043D0009387F7FFA30FC7FF83CE070013071700CC
:1043E0009387F7FFA30FD7FF03CF0700130717002B
:1043F0009387F7FFA30FE7FF83CC0700130717008E
:104400009387F7FFA30F97FF83CF07009387F7FFEB
:1044100013071700A30FF7FF6308FA0483C407000C
:1044200003CCF7FF83CDE7FF03C8D7FF03CBC7FF5C
:1044300083CAB7FF83C2A7FF03C397FF2300970078
:10444000A30087012301B701A3010701230267012C
:10445000A302570123035700938787FFA303670035
:1044600013078700E31CFAFAB30B740113841B00D3
:1044700013050400635A200B130A1900B3037A01D1
:10448000B385834013F675009306000263080606A1
:1044900093081000630E1605130E20006306C60570
:1044A000930E3000630ED603130F40006306E6033D
:1044B000930C5000630E9601930F60006306F601A3
:1044C00013852B002300D4002300D500130515000D
:1044D0002300D500130515002300D5001305150092
:1044E0002300D500130515002300D5001305150082
:1044F0002300D500130515006386A3022300D50011
:10450000A300D5002301D500A301D5002302D500C7
:10451000A302D5002303D500A303D500130585000E
:10452000E39EA3FC330589008320C109032481098C
:104530008324410903290109032A8108832A4108A8
:10454000032B0108832BC107032C8107832C410710
:10455000832DC1061301010A67800000232631095B
:104560002328A107930D0000130AC10193850400BD
:1045700093090500EF00103A3308AB0083420800AE
:10458000938B0D00938D1D00330DBA011385090027
:1045900093850400A30F5DFEEF005033E3F899FC10
:1045A0008329C108032D01076FF01FAE2300E3012B
:1045B0001304130063920C0A0327C1006310070E53
:1045C0001309E0FF6FF09FCC130AB0021309F9FF43
:1045D000232241016FF01FA883C8070013071400AE
:1045E0009387F7FF230014016FF01FDD1309F0FF1D
:1045F00093050003130680072300B400A300C40042
:10460000130424006FF05FBD232631092328A1077E
:104610003305A04063860C04130D0001638EA409CA
:10462000130E80006380C409930ED0021309F9FFB2
:104630002322D101930C00026FF0DFF21309E9FF8E
:10464000930C00026FF0DFA2930600032300D40056
:10465000130414006FF05FB81309F0FF6FF0DFB6BA
:104660009309D0021309F9FF232231016FF09FEF64
:104670002380C700938717006FF05FA7238057013F
:10468000938717006FF05FBA8322C10013080003FD
:104690002300030113041300E38402F21309F0FF63
:1046A0006FF0DFBE130FD0021309E9FF2322E101EF
:1046B000930C00026FF01FEB930FD0021309D9FF88
:1046C0002322F101930C00026FF0DFE91309F9FFD7
:1046D0006FF0DFBB130101EA23263113232E1112E1
:1046E000232C81122322B1142324C1142326D11494
:1046F0002328E114232AF114232C0115232E11154C
:10470000834605009309411423263101E388060EF0
:10471000232821131304010137690000232A911271
:10472000232441132322511323206113130F050067
:10473000232E71111305040013090992130A500264
:1047400093040001130B9000930AE002638846096A
:104750002300D50083461F0013051500130F1F000B
:10476000E39606FE8324411303290113032A8112D1
:10477000832A4112032B0112832BC1112300050050
:1047800083470101E3860708370601101305A000DF
:104790001307460093090400B70801101308D0005E
:1047A0006384A70283CF0900832E070093F21E00C3
:1047B000E39C02FE23A0F80183C71900638607105B
:1047C00093891900E390A7FE03230700137E1300CB
:1047D000E31C0EFE23A008016FF0DFFC930700002E
:1047E00003461F00930B1F00130706FE9372F70F7B
:1047F00063EA540093932200B385230183A6050046
:1048000067800600130806FD9378F80F63721B118A
:10481000130EA0029306F0FF6306C6131307F0FF02
:104820006302560D9375F60D130FC004639AE507E6
:10483000130F060003C61B00930F3003938B1B005E
:104840009305B6FB93F2F50F63EA5F10B7630000C0
:1048500093982200138E43963383C80103280300E4
:104860006700080093E71700138F0B006FF05FF7E6
:1048700093E70701138F0B006FF09FF693E7470054
:10488000138F0B006FF0DFF593E70702138F0B0018
:104890006FF01FF593E78700138F0B006FF05FF445
:1048A000930FB6FB93F2FF0F9303300363E8530AB1
:1048B000B7680000139E2200138348A333086E00DC
:1048C000832E080067800E00338489408320C11343
:1048D00013051400032481138329C1121301011647
:1048E0006780000003C61B001308900093821B0022
:1048F000930806FD13FEF80F6370C84D1303A00262
:10490000630C664E938B0200130700006FF09FF15B
:104910009306000013039000939E2600338FDE0061
:10492000938B1B00931F1F003387CF0003C60B0020
:10493000930607FD930206FD93F3F20FE37E73FCEB
:104940006FF0DFED83A6090003462F00930B2F00C5
:1049500063C40602938949006FF05FEC9303500231
:10496000630C764A2300750083C50B001305150000
:10497000E38A05DE6F00804AB306D04093E7070163
:10498000938949006FF09FE9130FF0032300E501BD
:1049900083C61B0013051500138F1B00E39806DA6E
:1049A0006FF05FDC93E707041306000183A509009D
:1049B00093894900EFF0CFDF83C61B00138F1B00E4
:1049C000E39606D86FF01FDA1306A0006FF01FFE03
:1049D00003A609009389490063040646834E060036
:1049E00093F70701638C0E66937F770093050600AB
:1049F0003307E60063840F08834216009305160010
:104A00006382020E93031000638A7F0693082000DE
:104A100063801F07130E30006386CF051303400029
:104A2000638C6F021308500063820F03930E6000C3
:104A30006388DF01034F26009305260063040F0AF5
:104A400083CF150093851500638E0F0883C2150070
:104A5000938515006388020883C3150093851500AC
:104A60006382030883C8150093851500638C0806CC
:104A700003CE15009385150063060E066386E506D2
:104A800003C815009385150013830500630C080403
:104A900083CE15009385150063860E04034F230013
:104AA0009305230063000F04834F33009305330005
:104AB000638A0F028342430093054300638402022A
:104AC0008343530093055300638E030083486300C0
:104AD0009305630063880800034E73009305730019
:104AE000E31E0EF8138705003307C74063880744A9
:104AF000635CE00E13787700B30EE60093070500C1
:104B0000630C080813031000630E6806130F2000DF
:104B10006302E807930F30006306F8059302400034
:104B2000630A580293035000630E780093086000F4
:104B30006316185183450600938717001306160065
:104B4000A38FB7FE034806009387170013061600CD
:104B5000A38F07FF03430600938717001306160071
:104B6000A38F67FE034F06009387170013061600F6
:104B7000A38FE7FF834F06009387170013061600E5
:104B8000A38FF7FF834206001306160093871700D2
:104B9000A38F57FE6308D6058343060013068600DD
:104BA00093878700238C77FE834896FFA38C17FF9B
:104BB000034EA6FF238DC7FF8345B6FFA38DB7FE27
:104BC0000348C6FF238E07FF0343D6FFA38E67FE6D
:104BD000034FE6FF238FE7FF834FF6FFA38FF7FF17
:104BE000E31CD6FB3305E500B38EE640B302D501E6
:104BF000138F1B00930705006354D70A3386A24026
:104C0000937376009308000263840306130E10006A
:104C1000638AC305930520006382B3041308300040
:104C2000638A03031303400063826302930F5000FF
:104C3000638AF301930E6000639CD34123801701C4
:104C4000938717002380170193871700238017018C
:104C5000938717002380170193871700238017017C
:104C60009387170093871700A38F17FF6386570258
:104C700023801701A380170123811701A381170146
:104C800023821701A382170123831701A38317012E
:104C900093878700E39E57FCB306D5003385E64033
:104CA00083C61B00E39406AA6FF0DFAB130FF0FF7F
:104CB0006382E61983A50900130600019389490060
:104CC000EFF00FAF83C61B00138F1B00E39006A805
:104CD0006FF05FA913F7070193834900138F1B003F
:104CE0006308071683A909009308150093051000AF
:104CF0002300350193870800330ED50063DED538D5
:104D000033061E411378760013030002630608067B
:104D1000630EB804930F20006306F805930E30006D
:104D2000630ED80393024000630658021307500035
:104D3000630EE800930960006306380193072500BD
:104D4000A300650023806700938717002380670016
:104D500093871700238067009387170023806700DD
:104D600093871700238067009387170093871700A6
:104D7000A38F67FE6386C70323806700A380670055
:104D800023816700A381670023826700A3826700F5
:104D900023836700A383670093878700E39EC7FD93
:104DA0001385F6FF3385A80083C61B009389030093
:104DB000E39E06986FF01F9B130E0000931F2E00BA
:104DC0003387CF019382120093131700B388C30077
:104DD00003C60200138E08FD130306FD937BF30F39
:104DE000E37E78FD1348FEFF935EF841938B02004B
:104DF0003377DE016FF01FA383AE090003C62B00DB
:104E00009389490093C5FEFF13DFF54133F7EE01A7
:104E1000938B2B006FF01FA183C50B002300B500FF
:104E200083C61B0013051500138F1B00E390069229
:104E30006FF05F9393E71700930680006FF09FE792
:104E40003756000093F707011306C6696FF0DFB904
:104E50009308100063D0D8229385F6FF13F67500EF
:104E60003308B50093070500130300026306060626
:104E7000630E1605130E20006306C605930F30005F
:104E8000630EF603930E40006306D60393025000B0
:104E9000630E5600130760006306E60093071500D3
:104EA0002300650023806700938717002380670035
:104EB000938717002380670093871700238067007C
:104EC0009387170023806700938717009387170045
:104ED000A38F67FE6386070323806700A3806700B4
:104EE00023816700A381670023826700A382670094
:104EF00023836700A383670093878700E39E07FDF2
:104F000083A909001305F5FFB308D50023803801F4
:104F1000138518006FF05FE99302C00693E727003E
:104F2000E3045FAA83A509001306A0009389490042
:104F30006FF05FA8130680006FF05FA7635AD71465
:104F4000B387E64013F877003303F50093050500B7
:104F5000930E000263080806130F1000630EE805A5
:104F6000930F20006306F80593023000630E580289
:104F7000930340006306780293085000630E180103
:104F8000130E60006306C801930515002300D501C8
:104F90002380D501938515002380D50193851500C5
:104FA0002380D501938515002380D50193851500B5
:104FB0002380D5019385150093851500A38FD5FF18
:104FC000638665022380D501A380D5012381D501A5
:104FD000A381D5012382D501A382D5012383D501E5
:104FE000A383D50193858500E39E65FC3305D50039
:104FF0003305E5409306F7FF6FF09FAF13040101FF
:10500000130504002300050083470101639E07F692
:105010008320C113032481138329C11213050000C7
:10502000130101166780000093E727006FF09FEFE0
:1050300093E70704130600016FF05F97034E060025
:1050400093071500130616002300C5016FF09FAEED
:1050500093071500230015016FF05FBE13070000D2
:10506000E39407B8138F1B00E34CD0EC83C61B00FE
:105070006FF05FC383A60900130515009389030031
:10508000A30FD5FE83C61B00639206EC6FF08FED75
:105090009386F6FF6FF0DFA5138508006FF0DFD071
:1050A000130605001305000093F61500638406003F
:1050B0003305C50093D5150013161600E39605FEBB
:1050C000678000006340050663C605061386050079
:1050D000930505001305F0FF630C0602930610000C
:1050E000637AB6006358C000131616009396160034
:1050F000E36AB6FE1305000063E6C500B385C5404C
:105100003365D50093D6160013561600E39606FEB7
:105110006780000093820000EFF05FFB13850500BD
:10512000678002003305A0406348B000B305B0407B
:105130006FF0DFF9B305B04093820000EFF01FF984
:105140003305A040678002009382000063CA050017
:10515000634C0500EFF09FF71385050067800200A0
:10516000B305B040E35805FE3305A040EFF01FF64D
:085170003305B0406780020026
:10517800366B20706572666F726D616E6365207242
:10518800756E20706172616D657465727320666FEB
:105198007220636F72656D61726B2E0A00000000E9
:1051A800366B2076616C69646174696F6E20727504
:1051B8006E20706172616D657465727320666F72BE
:1051C80020636F72656D61726B2E0A0050726F6694
:1051D800696C652067656E65726174696F6E2072AF
:1051E800756E20706172616D657465727320666F8B
:1051F8007220636F72656D61726B2E0A0000000089
:10520800324B20706572666F726D616E63652072D5
:10521800756E20706172616D657465727320666F5A
:105228007220636F72656D61726B2E0A0000000058
:10523800324B2076616C69646174696F6E20727597
:105248006E20706172616D657465727320666F722D
:1052580020636F72656D61726B2E0A005B25755D48
:105268004552524F5221206C697374206372632037
:10527800307825303478202D2073686F756C642061
:105288006265203078253034780A00005B25755D2A
:105298004552524F5221206D6174726978206372B1
:1052A8006320307825303478202D2073686F756C32
:1052B80064206265203078253034780A00000000C8
:1052C8005B25755D4552524F522120737461746598
:1052D8002063726320307825303478202D2073685D
:1052E8006F756C64206265203078253034780A0048
:1052F800436F72654D61726B2053697A6520202077
:10530800203A20256C750A00546F74616C2074690A
:10531800636B732020202020203A20256C750A001A
:10532800546F74616C2074696D65202873656373AC
:10533800293A2025640A0000497465726174696F0E
:105348006E732F5365632020203A2025640A0000DD
:105358004552524F5221204D75737420657865630C
:1053680075746520666F72206174206C6561737452
:10537800203130207365637320666F722061207658
:10538800616C696420726573756C74210A00000091
:10539800497465726174696F6E7320202020202023
:1053A800203A20256C750A0047434331352E322EAA
:1053B80030000000436F6D70696C6572207665720D
:1053C80073696F6E203A2025730A00002D4F322032
:1053D8002D6D617263683D72763332695F7A6963F5
:1053E8007372202D6D6162693D696C703332202DB6
:1053F800666E6F2D636F6D6D6F6E202D66756E72A4
:105408006F6C6C2D6C6F6F7073000000436F6D7064
:10541800696C657220666C6167732020203A2025CC
:10542800730A0000535441434B0000004D656D6FF3
:105438007279206C6F636174696F6E20203A202541
:10544800730A00007365656463726320202020205E
:1054580020202020203A203078253034780A000097
:105468005B25645D6372636C69737420202020205F
:1054780020203A203078253034780A005B25645D96
:105488006372636D617472697820202020203A204D
:105498003078253034780A005B25645D6372637365
:1054A800746174652020202020203A20307825302F
:1054B80034780A005B25645D63726366696E616CAB
:1054C8002020202020203A203078253034780A0007
:1054D800436F7272656374206F7065726174696F6F
:1054E8006E2076616C6964617465642E205365650D
:1054F80020524541444D452E6D6420666F722072DE
:10550800756E20616E64207265706F7274696E6763
:105518002072756C65732E0A0000000043616E6E80
:105528006F742076616C6964617465206F70657250
:105538006174696F6E20666F722074686573652088
:10554800736565642076616C7565732C20706C6575
:1055580061736520636F6D70617265207769746827
:1055680020726573756C7473206F6E2061206B6E8A
:105578006F776E20706C6174666F726D2E0A000012
:105588004572726F72732064657465637465640A2A
:105598000000000054302E33652D31460000000015
:1055A8002D542E542B2B5471000000003154332EEF
:1055B8003465347A0000000033342E30652D545E93
:1055C80000000000352E353030652B330000000018
:1055D8002D2E313233652D32000000002D3837650D
:1055E8002B383332000000002B302E36652D313237
:1055F8000000000033352E35343430300000000010
:105608002E31323334353030000000002D31313046
:105618002E373030000000002B302E363434303036
:1056280000000000353031320000000031323334E0
:10563800000000002D383734000000002B313232D2
:105648000000000030313233343536373839616282
:10565800636465666768696A6B6C6D6E6F7071729A
:10566800737475767778797A0000000030313233B8
:105678003435363738394142434445464748494A24
:105688004B4C4D4E4F505152535455565758595AEA
:10569800000000003C4E554C4C3E0000475EBF39B0
:1056A800A4E53A8E848D000052BE99110856D71F82
:1056B80047070000B0D44033796A14E7C1E300001B
:1056C8009C550000A8550000B4550000C0550000C6
:1056D800CC550000D8550000E4550000F0550000F6
:1056E800FC55000008560000145600002056000023
:1056F8002C560000345600003C560000445600006A
:10570800C8360000A4360000AC360000B4360000ED
:10571800C03600009C360000000005800F800A009B
:105728001B801E0014001180338036003C00398035
:1057380028002D8027802200638066006C00698025
:1057480078007D8077807200500055805F805A0015
:105758004B804E0044004180C380C600CC00C98005
:10576800D800DD80D780D200F000F580FF80FA00F5
:10577800EB80EE00E400E180A000A580AF80AA00E5
:10578800BB80BE00B400B180938096009C009980D5
:1057980088008D8087808200838186018C018981C1
:1057A80098019D8197819201B001B581BF81BA01AD
:1057B800AB81AE01A401A181E001E581EF81EA019D
:1057C800FB81FE01F401F181D381D601DC01D9818D
:1057D800C801CD81C781C201400145814F814A017D
:1057E8005B815E0154015181738176017C0179816D
:1057F80068016D8167816201238126012C0129815D
:1058080038013D8137813201100115811F811A014C
:105818000B810E0104010181038306030C03098334
:1058280018031D8317831203300335833F833A031C
:105838002B832E0324032183600365836F836A030C
:105848007B837E0374037183538356035C035983FC
:1058580048034D8347834203C003C583CF83CA03EC
:10586800DB83DE03D403D183F383F603FC03F983DC
:10587800E803ED83E783E203A383A603AC03A983CC
:10588800B803BD83B783B203900395839F839A03BC
:105898008B838E0384038183800285828F828A02B0
:1058A8009B829E0294029182B382B602BC02B982A4
:1058B800A802AD82A782A202E382E602EC02E98294
:1058C800F802FD82F782F202D002D582DF82DA0284
:1058D800CB82CE02C402C182438246024C02498274
:1058E80058025D8257825202700275827F827A0264
:1058F8006B826E0264026182200225822F822A0254
:105908003B823E0234023182138216021C02198243
:1059180008020D8207820202944800000448000031
:1059280004480000884800000448000004480000BB
:10593800044800000448000004480000044800002F
:10594800044800007C48000004480000704800003B
:10595800044800000448000064480000884900002A
:105968005C490000884900005C4900005C4900006F
:105978005C4900005C4900005C4900005C4900008B
:105988005C4900005C4900005C4900005C4900007B
:105998005C4900005C4900005C4900005C4900006B
:1059A8005C4900005C490000A44900005C49000013
:1059B8005C4900005C4900005C4900005C4900004B
:1059C8005C4900005C4900005C4900005C4900003B
:1059D8005C490000D44C0000184F000088490000C2
:1059E80088490000884900005C490000184F000001
:1059F8005C4900005C4900005C4900005C4900000B
:105A08005C490000344F0000AC4C00005C490000C9
:105A18005C490000D04900005C490000C84900000A
:105A28005C4900005C490000A84900008849000062
:105A38005C490000884900005C4900005C4900009E
:105A48005C4900005C4900005C4900005C490000BA
:105A58005C4900005C4900005C4900005C490000AA
:105A68005C4900005C4900005C4900005C4900009A
:105A78005C4900005C490000305000005C490000AF
:105A88005C4900005C4900005C4900005C4900007A
:105A98005C4900005C4900005C4900005C4900006A
:105AA8005C490000D44C00002850000088490000E0
:105AB80088490000884900005C490000285000001F
:105AC8005C4900005C4900005C4900005C4900003A
