:1000000097110010938101801741001013018101A5
:1000100017050010130505FF97250000938505E9D6
:1000200017060010130606FE637CC50083A20500B8
:10003000232055001305450093854500E368C5FE60
:1000400017050010130505FC972500109385057D05
:100050006378B5002320050013054500E36CB5FE69
:10006000130500009305000013060000EF00800058
:100070006F000000130101F613050003232E110881
:10008000232C8108232C81072328A107232A9108E8
:100090002328210923263109232441092322510938
:1000A00023206109232E7107232A91072326B107F4
:1000B000EF00103823A2A18213050003EF00503790
:1000C00083A7418223A4A1822320F50003A5818276
:1000D0001307200093078002B71500002324E500D2
:1000E0002326F500232205009385856E130505015F
:1000F000EF00D039B71500009385C57013050102D4
:10010000EF00D03837140000370D00109307A0001F
:1001100013070D041305C472232EF764EF00D038C3
:100120003715000013050573EF0010381305C4726E
:10013000EF00903783A741816382074E3715000097
:1001400013050576EF0050361305C472EF00D03565
:1001500037150000B79504009385053E1305C57B50
:10016000EF0090341385018313840700EF00101F04
:1001700083A701839304100023A8F180B727000010
:100180009387C780138B04002326F100B72C00103F
:10019000930A100493072004238CF180B717000002
:1001A0009385C77E13050104A38C518123AE618121
:1001B000EF00D02D9305010413050102232E6101E8
:1001C000EF00500E133515009307700023AEA18089
:1001D000130681019305300013052000232CF10044
:1001E000EF0050038326810193050D0413063000B0
:1001F00013850C75EF00100303A58182EF00806466
:1002000003C781819307000463F6E740930D100450
:10021000130930006F00400103C7818193871D00DF
:1002200093FDF70F6364B7059305300413850D0044
:10023000EF0050050327C101E310E5FE9305C1015E
:1002400013050000EF0000788325C10013050104A9
:1002500013890400EF00902303C7818193871D0059
:1002600023A0918293FDF70FE370B7FD13171900D8
:10027000330727010326810183C79181B346C70253
:10028000138906006398570183A70182138996009A
:100290003309F940B7970400938414009387173EFD
:1002A000E39AF4EE3307C74093143700B384E44075
:1002B00013850183B384D440EF00500A83A70183E0
:1002C000372500001305C58223A6F180B71D000065
:1002D000EF00901D1385CD72EF00101D3725000033
:1002E0001305C583EF00501C1385CD72EF00D01BA2
:1002F00083A501823725000013054587B72A000032
:10030000EF00901A9305500013850A89EF00D01969
:1003100083A5C181372500001305C58AEF00D018D9
:100320009305100013850A89EF00101883C5918189
:10033000372500001305858CEF001017B729000042
:100340001385498E93051004EF00101683C5818133
:100350003725000013050590EF0010151385498E11
:1003600093052004EF005014938C0C7583A50C02A8
:10037000372500001305C591EF0010139305700099
:1003800013850A89EF005012B707001093870704FE
:1003900083A5C7653725000013058593EF00D010AE
:1003A0003725000013054595EF0010103725000094
:1003B00013050598EF00500F83A78182372D0000A9
:1003C0001305CD9883A50700B72C0000B72B0000BC
:1003D000EF00900D372500001305859AEF00D00C33
:1003E00083A781821385CC9D372A000083A547000F
:1003F000B729000037240000EF00100B9305000020
:1004000013850A89EF00500A83A7818213858B9F89
:1004100083A58700EF0050099305200013850A8902
:10042000EF00900883A7818213054AA183A5C70026
:10043000EF0090079305100113850A89EF00D0069D
:1004400083A58182138509A393850501EF00D0055B
:100450001305C4A4EF00500537250000130545A877
:10046000EF00900483A741821305CD9883A5070070
:10047000EF00900337250000130585A9EF00D00297
:1004800083A741821385CC9D83A54700EF00D0014F
:100490009305000013850A89EF00100183A74182AC
:1004A00013858B9F83A58700EF0010009305100034
:1004B00013850A89EF00407F83A7418213054AA173
:1004C00083A5C700EF00407E9305200113850A89AC
:1004D000EF00807D83A54182138509A393850501E3
:1004E000EF00807C1305C4A4EF00007C37250000DA
:1004F00093050900130585ADEF00007B93055000BF
:1005000013850A89EF00407A37250000938504009F
:10051000130545AFEF0040799305D00013850A8994
:10052000EF0080788325810137250000130505B190
:10053000EF0080779305700013850A89EF00C0767D
:100540008325C101372500001305C5B2EF00C07532
:100550009305100013850A89EF0000753725000008
:1005600093050102130585B4EF00007437250000E0
:10057000130545B6EF0040733725000093050104CD
:100580001305C5B9EF00407237250000130585BB80
:10059000EF0080711385CD72EF00007183A6018199
:1005A00003A5C180B74795083305D54023A4A18092
:1005B0009387F73F63C2A70837250000130505BFDF
:1005C000EF00806E37250000130585C2EF00C06D77
:1005D0001385CD72EF00406D8320C109032481098A
:1005E00083244109032901098329C108032A8108B9
:1005F000832A4108032B0108832BC107032C8107A1
:10060000832C4107032D0107832DC1061301010A25
:1006100067800000130790006FF0DFC537150000FA
:100620001305C578EF004068B71700001385C7723F
:10063000EF0080676FF0DFB1EF009075B727000023
:1006400083A507EA13090500B7240000EF00903BDB
:1006500083A544EA37040010EF0010092322A40008
:1006600003A544EA93050900B7040010EF00D00782
:1006700023A0A40037250000130585C4EF00C06245
:100680000325440037240000EF009069930505001E
:10069000130584C7EF00406137250000130505C826
:1006A000EF00806003A50400EF009067930505004C
:1006B000130584C7EF00405FB71700001385C772AA
:1006C000EF00805E6FF05FF13367B5009303F0FFDA
:1006D0001377370063100710B7877F7F9387F7F78B
:1006E0000326050083A60500B372F6003363F60007
:1006F000B382F200B3E26200639272106316D6080E
:100700000326450083A64500B372F6003363F60066
:10071000B382F200B3E26200639E720C6316D606E7
:100720000326850083A68500B372F6003363F600C6
:10073000B382F200B3E262006398720C6316D604CF
:100740000326C50083A6C500B372F6003363F60026
:10075000B382F200B3E262006392720C6316D602B7
:100760000326050183A60501B372F6003363F60084
:10077000B382F200B3E26200639C720A1305450182
:1007800093854501E30ED6F41317060193970601EE
:10079000631EF7001357060193D706013305F74090
:1007A0009375F50F639005026780000013570701EA
:1007B00093D707013305F7409375F50F6394050050
:1007C000678000001377F70F93F7F70F3305F740B3
:1007D000678000000346050083C605001305150069
:1007E000938515006314D600E31606FE3305D64044
:1007F000678000001305450093854500E31CD6FC87
:1008000013050000678000001305850093858500AF
:10081000E312D6FC13050000678000001305C50035
:100820009385C500E318D6FA130500006780000021
:100830001305050193850501E31ED6F81305000095
:1008400067800000130101FF2320210183A781821B
:100850002324810023229100232611000324050074
:1008600003A6070203A7870203AF070083AE470072
:1008700003AE870003A3C70083A8070103A84701AD
:1008800083A5C70183A647029304050003A587013A
:100890002320C4022320E4012322D4012324C40101
:1008A0002326640023281401232A0401232CA400F6
:1008B000232EB4002322D4022324E40203A7C70278
:1008C000930750002326E40223A6F4002326F40015
:1008D00083A704002320F40003A681826308060096
:1008E000832706002320F40003A6818283A50182CA
:1008F0001306C6001305A000EF00C01183274400B3
:100900006380070883A7040083AF070003AF470095
:1009100083AE870003AEC70003A3070183A8470186
:1009200003A8870183A5C70103A6070283A6470280
:1009300003A7870223A0F40123A2E40123A4D40186
:1009400023A6C40123A8640023AA140123AC040134
:1009500023AEB40023A0C40223A2D40223A4E40241
:1009600083A7C70223A6F4028320C10003248100C9
:100970008324410003290100130101016780000065
:10098000930760002326F40003A5840093058400E8
:10099000EF00400383A781820325C4001306C4002F
:1009A00083A707008320C100832441002320F40093
:1009B00003248100032901009305A0001301010114
:1009C0006F00400593072000630CF5021307300009
:1009D00023A0E50013071000630AE5001307400099
:1009E0006306E502630A05006780000003A7018231
:1009F00093074006E3DAE7FE23A0050067800000C6
:100A00009307100023A0F5006780000023A0F500E5
:100A100067800000130525003305B5002320A600DC
:100A200067800000130756001308800C3308070383
:100A300013162600931727003305F5002320D50051
:100A4000232CE5062322D500B307C800B387F500A1
:100A500083A6070123AAE70023ACE700138716004B
:100A600023A8E70083260500B3850501B385C500EB
:100A70009385F57F13075000A3AAD57A23A0E182BE
:100A8000678000001375F50F93F5F50F6306B50049
:100A90001305000067800000A38CA18013051000DF
:100AA000678000008347250003C73500630AF7020B
:100AB000130101FF23261100EFF01FC1930700006F
:100AC0006358A0001307A00023A0E1829307100041
:100AD0008320C10013850700130101016780000016
:100AE0006F0000003707011013074700B706011019
:100AF0008327070093F71700E39C07FE23A0A600B7
:100B00006780000083470500638E070237070110E6
:100B1000130747009305A000370601101308D00003
:100B20006384B70283460500130515008327070079
:100B300093F71700E39C07FE2320D60083470500A8
:100B4000E39007FE678000008327070093F71700F4
:100B5000E39C07FE232006016FF0DFFC732700B83B
:100B6000F32600B0F32700B8E31AF7FE630A050086
:100B70002320D50023220500232405002326050079
:100B80001385060067800000130101FD2326110272
:100B9000630E060637230000130303CB9307000000
:100BA00093060100630E050623248102232291028D
:100BB0003377B50213840700938717003388F60054
:100BC00013060500938807FE3307E3000347070079
:100BD0003355B502A30FE8FE6364B600E39A08FC40
:100BE000338486009384F6FF034504001304F4FF66
:100BF000EFF05FEFE39A84FE032481028320C102B9
:100C000083244102130101036780000037230000A1
:100C1000130343CC9307000093060100E31605F885
:100C20008320C10213050003130101036FF09FEB42
:100C3000930705006308050403A5C182630205024A
:100C40009387770093F787FF37470010B307F500C6
:100C5000130787816368F70223A6F182678000008B
:100C600037350010938777001305858193F787FF49
:100C70003747001023A6A182B307F5001307878129
:100C8000E37CF7FC13050000678000009307050074
:100C900003C705009385150093871700A38FE7FE10
:100CA000E31807FE67800000130101FA13034104F3
:100CB000232E1102232A91022322B1042324C104EA
:100CC0002326D1042328E104232AF104232C01053F
:100CD000232E1105232E6100630E051E232C810295
:100CE0001304050003450500630A051E2324410380
:100CF000372A00002328210323263103232251030E
:100D000023206103130A0ACE930400001309500242
:100D10009309C006930A0002130B1400631C2509F3
:100D2000834714009306000063863703638C070231
:100D300013041B00638E2715138787FA1377F70FA9
:100D400063E6EA0813172700330747010327070064
:100D50006700070083472400130B2400930610004C
:100D6000E39807FC13055002EFF0DFD713040B00E4
:100D70009307F00313850700EFF0DFD60345040067
:100D800093842400E31A05F8032481030329010353
:100D90008329C102032A8102832A4102032B010213
:100DA0008320C1031385040083244103130101063A
:100DB00067800000EFF01FD39384140013040B002E
:100DC00003450400E31A05F46FF01FFC13055002FD
:100DD0002326F100EFF01FD18327C1006FF09FF9A8
:100DE0008327C10113874700638C060A03AB070002
:100DF000232EE100634C0B0A13050B0013060000C1
:100E00009305A000EFF05FD86FF09FFB8327C1012F
:100E100003A5070093874700232EF1006306050A08
:100E2000EFF05FCE6FF0DFF98327C10193841400E8
:100E300003C5070093874700232EF100EFF09FCAF8
:100E40006FF01FF88327C1011306100003A50700E8
:100E50009305000193874700232EF100EFF0DFD2C6
:100E60006FF01FF68327C101130600006FF01FFE0D
:100E70008327C101130600009305A00003A5070006
:100E800093874700232EF100EFF01FD06FF05FF340
:100E900013050900EFF01FC5938414006FF05FF293
:100EA00003AB0700232EE100E3580BF41305D00237
:100EB000EFF05FC333056041130600009305A00007
:100EC000EFF09FCC6FF0DFEF37250000130585CDE5
:100ED0006FF01FF5930400006FF09FEC0324810373
:100EE000930400006FF0DFEB130101FE232A910051
:100EF0009354750123282101232631012322510116
:100F000013199500232E1100232C81002324410165
:100F100093F4F40F938A0500135999009359F5013E
:100F2000638404089307F00F6380F40A13193900EF
:100F3000B70700043369F900938414F8130A00001A
:100F400093D77A0113949A0093F7F70F13549400F0
:100F500093DAFA01638807081307F00F6384E70A3E
:100F600013143400370700043364E400938717F840
:100F700013070000B384F44093172A00B3E7E70097
:100F80009387F7FF9306E00033C5590163EAF6083B
:100F9000B726000093972700938646D6B387D700DD
:100FA00083A707006780070063080902130509008B
:100FB000EF00C06E9307B5FF9304A0F83319F90052
:100FC000B384A4406FF09FF7130A2000E30A09F6E8
:100FD000130A30006FF0DFF693040000130A1000CC
:100FE0006FF01FF66308040213050400EF00006BA6
:100FF0009307B5FF3314F4009307A0F8B387A74015
:101000006FF01FF713072000E30604F61307300004
:101010006FF05FF693070000130710006FF09FF565
:1010200013175400637489109384F4FF930700002E
:10103000935507013354B9029316070193D606015D
:1010400093D707013379B902338686021319090150
:10105000B3E7270163FAC700B307F70063F4C700DB
:1010600063FCE70C1304F4FFB387C74033D6B70221
:10107000B3F7B702B386C6029397070163FED700A2
:10108000B385E70033B8F5009387050063F4D50016
:10109000630A080A1306F6FF13140401B387D74046
:1010A0003364C400B337F0003364F4001387F407EB
:1010B000635CE00C93777400638A07009377F40015
:1010C000930640006384D7003304D4009317440090
:1010D00063DA0700B70700F89387F7FF3374F4006B
:1010E000138704089307E00F63C8E7109357340091
:1010F0008320C1010324810193979700131777017F
:1011000093D797003367F7001315F5018324410146
:10111000032901018329C100032A8100832A410098
:101120003365A70013010102678000009317F901DE
:10113000135919006FF0DFEF1304E4FFB387E700E2
:101140006FF09FF21306E6FFB387E5006FF0DFF460
:1011500013850A00930720006300F70A9307300005
:101160006304F70893071000E312F7F493070000F5
:10117000130700006FF0DFF713850900130409005F
:1011800013070A006FF01FFD630C0704930760FE4E
:10119000E34EF7FC93071000B387E7409384E4091C
:1011A000B357F4003314940033348000B3E787005E
:1011B00013F77700630A070013F7F7009306400060
:1011C0006304D700B387D7001397570093D737002E
:1011D000E35007FA93070000130710006FF05FF168
:1011E000930710006FF09FFBB70740001307F00F45
:1011F000130500006FF0DFEF930700001307F00FF7
:101200006FF01FEF130101FE23282101135975010F
:10121000232A9100232631012322510193149500A2
:10122000232E1100232C8100232441011379F90F6F
:10123000938A050093D494009359F5016304091827
:101240009307F00F6300F91A93943400B707000472
:10125000B3E4F400130919F8130A000093D77A01D4
:1012600013949A0093F7F70F1354940093DAFA014A
:10127000638807181307F00F6384E71A1314340008
:10128000370700043364E400938717F8130700005E
:101290003309F90093172A00B3E7E7009306A0008B
:1012A0001306190063CEF61C93052000B3C959013B
:1012B0009306100063C4F5189387F7FF63F0F61ADE
:1012C00013D70401935704019394040113140401E8
:1012D00093D4040113540401B30594023304870228
:1012E0003307F702B3879702B386870093D70501C8
:1012F000B387D70063F68700B70601003307D7002E
:10130000939505019396070193D50501B386B60021
:1013100093D7070113946600B387E700939767009C
:101320003334800093D6A6013364D400139747006A
:1013300033E48700635407169357140013741400A2
:1013400033E487001307F607635EE01493777400B5
:10135000638A07009377F400930640006384D70004
:101360003304D4009317440063DA0700B70700F88A
:101370009387F7FF3374F400130706089307E00F11
:1013800063CAE718935734008320C1010324810105
:10139000939797001317770193D797009399F901C3
:1013A0003367F7008324410103290101032A8100E7
:1013B000832A4100336537018329C10013010102EB
:1013C000678000006388040213850400EF00002D8D
:1013D0009307B5FF1309A0F8B394F4003309A940AB
:1013E0006FF09FE7130A2000E38A04E6130A300037
:1013F0006FF0DFE613090000130A10006FF01FE61C
:101400006308040213050400EF0040299307B5FFA9
:101410003314F4009307A0F8B387A7406FF01FE7D9
:1014200013072000E30604E6130730006FF05FE6C1
:1014300093070000130710006FF09FE5B397F600C5
:1014400093F607536396060493F60724639C060AF3
:1014500093F78708E38607E693890A00930720003D
:10146000630AF70A93073000630EF708930710002A
:10147000E31AF7EC93070000130700006FF0DFF0AA
:101480009306F0006380D7089306B000E386D7FC8C
:101490001384040013070A006FF05FFC13060900B1
:1014A0006FF05FEA630C0704930760FEE344F7FC08
:1014B00093071000B387E7401306E609B357F4001B
:1014C0003314C40033348000B3E7870013F7770088
:1014D000630A070013F7F700930640006304D70080
:1014E000B387D7001397570093D73700E35607F811
:1014F00093070000130710006FF01FE99307100017
:101500006FF09FFBB70740001307F00F930900002F
:101510006FF09FE7930700001307F00F6FF0DFE60F
:1015200037068000135775019307F6FF1377F70FFF
:101530009305E007B3F7A7009356F50163D6E504DA
:101540009305D00963DAE500370500801305F5FF40
:101550003385A6006780000033E5C7009307500974
:1015600063DCE7001307A7F63315E5006380060286
:101570003305A0406780000093076009B387E74008
:101580003355F5006FF09FFE1305000067800000E3
:10159000130101FF2326110023248100232291003F
:1015A0006304050E9357F54133C4A7003304F44098
:1015B0009354F50113050400EF00400E9307E00972
:1015C000930605003385A7409307700063D0D704C6
:1015D000930780006380F60C938686FF3314D40053
:1015E0001314940013549400131575018320C10043
:1015F00033658500032481009394F40133659500DD
:10160000832441001301010167800000930740001B
:101610001307500063C2D7069387B601B317F400CF
:101620003307D740B337F0003354E40033E4870086
:10163000370700FC1307F7FF937774003377E40054
:10164000638807021374F400930740006302F402F6
:101650003307F7009317570063DC0700B70700FC58
:101660009387F7FF3377F7009307F0093385D74067
:10167000135437006FF0DFF6E38CE6FA9387B6FF7A
:101680003314F4006FF0DFFA930400001304000039
:101690006FF01FF5130560096FF09FF4B7070100A5
:1016A000637AF5029337051093B7170093973700C5
:1016B000372700003355F500130707DA3307A70073
:1016C0000345070093060002B386F6403385A64023
:1016D000678000003707000193078001E37AE5FC8B
:0816E000930700016FF0DFFC2D
:1016E8004448525953544F4E452050524F47524147
:1016F8004D2C20534F4D4520535452494E4700001E
:10170800000000004448525953544F4E452050524F
:101718004F4752414D2C203127535420535452499E
:101728004E4700000A0000004468727973746F6EB7
:10173800652042656E63686D61726B2C2056657218
:1017480073696F6E20322E3120284C616E67756187
:1017580067653A2043290A0050726F6772616D20ED
:10176800636F6D70696C656420776974682027728F
:10177800656769737465722720617474726962752C
:1017880074650A0050726F6772616D20636F6D70C7
:10179800696C656420776974686F75742027726551
:1017A80067697374657227206174747269627574ED
:1017B800650A0000457865637574696F6E207374F7
:1017C800617274732C2025642072756E732074689E
:1017D800726F756768204468727973746F6E650AF2
:1017E800000000004448525953544F4E452050526F
:1017F8004F4752414D2C2032274E442053545249D2
:101808004E4700004448525953544F4E45205052B9
:101818004F4752414D2C20332752442053545249AC
:101828004E470000457865637574696F6E20656E74
:1018380064730A0046696E616C2076616C75657325
:10184800206F6620746865207661726961626C65D4
:1018580073207573656420696E20746865206265FD
:101868006E63686D61726B3A0A000000496E745FBE
:10187800476C6F623A202020202020202020202042
:101888002025640A0000000020202020202020209D
:1018980073686F756C642062653A20202025640A9D
:1018A80000000000426F6F6C5F476C6F623A202047
:1018B80020202020202020202025640A000000006D
:1018C80043685F315F476C6F623A202020202020F8
:1018D800202020202025630A00000000202020204E
:1018E8002020202073686F756C642062653A202080
:1018F8002025630A0000000043685F325F476C6F71
:10190800623A202020202020202020202025630A41
:10191800000000004172725F315F476C6F625B3894
:101928005D3A2020202020202025640A00000000A5
:101938004172725F325F476C6F625B385D5B375D27
:101948003A2020202025640A0000000020202020C2
:101958002020202073686F756C642062653A20200F
:10196800204E756D6265725F4F665F52756E7320AB
:101978002B2031300A0000005074725F476C6F6290
:101988002D3E0A0020205074725F436F6D703A201C
:1019980020202020202020202025640A000000008C
:1019A800202020202020202073686F756C6420621E
:1019B800653A20202028696D706C656D656E7461CC
:1019C80074696F6E2D646570656E64656E74290A3E
:1019D80000000000202044697363723A2020202010
:1019E80020202020202020202025640A000000003C
:1019F8002020456E756D5F436F6D703A2020202062
:101A0800202020202025640A000000002020496EA4
:101A1800745F436F6D703A20202020202020202002
:101A28002025640A0000000020205374725F436F71
:101A38006D703A2020202020202020202025730AA5
:101A480000000000202020202020202073686F75CF
:101A58006C642062653A2020204448525953544F00
:101A68004E452050524F4752414D2C20534F4D4523
:101A780020535452494E470A000000004E657874BE
:101A88005F5074725F476C6F622D3E0A0000000061
:101A9800202020202020202073686F756C6420622D
:101AA800653A20202028696D706C656D656E7461DB
:101AB80074696F6E2D646570656E64656E74292C2B
:101AC8002073616D652061732061626F76650A001D
:101AD800496E745F315F4C6F633A202020202020CC
:101AE800202020202025640A00000000496E745F31
:101AF800325F4C6F633A20202020202020202020B5
:101B08002025640A00000000496E745F335F4C6F43
:101B1800633A202020202020202020202025640A2D
:101B280000000000456E756D5F4C6F633A20202001
:101B380020202020202020202025640A00000000EA
:101B48005374725F315F4C6F633A2020202020204D
:101B5800202020202025730A0000000020202020BB
:101B68002020202073686F756C642062653A2020FD
:101B7800204448525953544F4E452050524F4752D3
:101B8800414D2C203127535420535452494E470A73
:101B9800000000005374725F325F4C6F633A20207C
:101BA80020202020202020202025730A000000006B
:101BB800202020202020202073686F756C6420620C
:101BC800653A2020204448525953544F4E452050DE
:101BD800524F4752414D2C2032274E4420535452E5
:101BE800494E470A000000004D65617375726564CF
:101BF8002074696D6520746F6F20736D616C6C2043
:101C0800746F206F627461696E206D65616E696EB4
:101C18006766756C20726573756C74730A000000D2
:101C2800506C6561736520696E63726561736520C8
:101C38006E756D626572206F662072756E730A002C
:101C48004D6963726F7365636F6E647320666F723C
:101C5800206F6E652072756E207468726F75676884
:101C6800204468727973746F6E653A200000000032
:101C78002564200A000000004468727973746F6E4E
:101C8800657320706572205365636F6E643A202017
:101C9800202020202020202020202020202020203C
:101CA8002020202000000000303132333435363710
:101CB8003839414243444546000000003031323350
:101CC8003435363738396162636465660000000070
:101CD800286E756C6C290000440E0000CC0D0000C5
:101CE800CC0D0000CC0D0000CC0D0000CC0D000088
:101CF800CC0D0000CC0D0000CC0D0000CC0D000078
:101D0800CC0D0000280E0000E00D0000CC0D0000F6
:101D1800CC0D0000CC0D0000CC0D0000E00D000043
:101D2800CC0D0000CC0D0000CC0D0000CC0D000047
:101D3800CC0D0000CC0D0000CC0D0000CC0D000037
:101D4800CC0D00000C0E0000CC0D0000700E000041
:101D5800CC0D0000CC0D0000640E0000F81100004E
:101D68006C110000501100006C110000E811000017
:101D78006C11000050110000F8110000F81100006B
:101D8800E8110000501100007811000078110000DF
:101D980078110000E81100000001020203030303A8
:101DA80004040404040404040505050505050505E3
:101DB80005050505050505050606060606060606C3
:101DC80006060606060606060606060606060606AB
:101DD8000606060606060606070707070707070793
:101DE800070707070707070707070707070707077B
:101DF800070707070707070707070707070707076B
:101E0800070707070707070707070707070707075A
:101E18000707070707070707080808080808080842
:101E2800080808080808080808080808080808082A
:101E3800080808080808080808080808080808081A
:101E4800080808080808080808080808080808080A
:101E580008080808080808080808080808080808FA
:101E680008080808080808080808080808080808EA
:101E780008080808080808080808080808080808DA
:101E880008080808080808080808080808080808CA
:101E980008080808080808080024744923299D55DB
:00000001FF
