:1000000073104030970100109381C17F17210010B9
:1000100013014101938281801703001013038300B1
:1000200063F8620023B0020093828200E3EC62FE78
:10003000975200009382026017030010130383FCA1
:1000400097030010938383FC637C730003BE02005C
:100050002330C3019382820013038300E36873FE9D
:100060001305000093050000EF00D07073005010DE
:100070006FF0DFFF630A0600031525008395250056
:100080003B05B54067800000831705009396070382
:1000900013F707F093D286033363570023106500EC
:1000A00083930500031525001398030313F603F04B
:1000B00093588803336E16012390C501839525005C
:1000C0003B05B54067800000031F050013178F0331
:1000D0009357F703638607001375FF0767800000D7
:1000E00093129F0313D3C203130101FD9B1343001B
:1000F000233081023386630023341102233C9100B4
:1001000093767F0083D705069388050013040500C6
:1001100013070600638E0608130510006392A608F5
:100120001385080413860700930507002334E101B3
:1001300023301101EF20807F833801009B1E0501D1
:10014000033F810003DE48069BD40E4163140E0A70
:1001500083D708062392A80693850700233411014C
:100160002330E101EF20906983370100833681005D
:100170001307050093F207F013F5F40733635500F6
:100180002390E606936303088330810223107400F2
:1001900003340102833481011301010367800000ED
:1001A000931F0F0313D50F0393040F006FF0DFFAB3
:1001B0009304100263E4C4001307200283B508020D
:1001C000839628000396080003A588022334E101E2
:1001D00023301101EF205042833801001B18050124
:1001E000033F810083D568069B5408416394050052
:1001F0002393A80683D708066FF01FF6130101FDAD
:10020000233C9100938405009305060023341102DA
:10021000233081022334C100EFF01FEB83358100CE
:100220001304050013850400EFF01FEA83308102F8
:100230003B05A4400334010283348101130101030F
:1002400067800000130101F923382105233C510385
:1002500023386103233471032334110623308106CC
:10026000233C91042334310523304105233081039D
:10027000233C91012338A1012334B1011309050066
:10028000930A1000938B0500130B060063000910FE
:10029000930C000093040000130C00009B8C1C00C6
:1002A00093070900130400006358540183B7070043
:1002B0001B041400E39A07FE93090900138A0A003D
:1002C000138907006354800263040A00631809025B
:1002D000138804001B04F4FF9384090083B9090008
:1002E0006308080423309800E34080FEB336200101
:1002F0006350400963800608630A04049B0DF4FF01
:1003000093FD7D00638C0D1E8335890003B5890044
:1003100013060B00E7800B00635EA0061388040041
:100320001B0AFAFF9304090003390900E31C08FAC9
:10033000138C04006FF01FF923B0E400B3362001E2
:100340009304070063040A0263820602130709008C
:100350001B0AFAFF03390900E39004FE130C07009F
:10036000B336200193040700E3100AFE930407004C
:10037000E39606F223B004001304100063828C2E6F
:1003800013090C009B9A1A00E31409F023300000B3
:100390007300100003BD09001B04F4FF638C04000C
:1003A00013880400938409002330980093090D00FA
:1003B0006FF09FF3138C090093840900635E80281B
:1003C0009302100093090D00638A5D12130320004D
:1003D00063806D109303300063867D0C130540002D
:1003E000638CAD08930550006382BD061306600060
:1003F0006388CD028335890003358D0013060B0019
:10040000E7800B00E34CA0F0033D0D001B04F4FF5C
:10041000E3180CF8138C09009384090093090D006C
:100420008335890003358D0013060B00E7800B0030
:10043000E346A0EE033D0D001B04F4FFE39204F637
:10044000138C09009384090093090D0083358900FA
:1004500003358D0013060B00E7800B00E340A0EC92
:10046000033D0D001B04F4FFE39C04F2138C090010
:100470009384090093090D008335890003358D00AD
:1004800013060B00E7800B00E34AA0E8033D0D00D4
:100490001B04F4FFE39604F0138C09009384090015
:1004A00093090D008335890003358D0013060B0079
:1004B000E7800B00E344A0E6033D0D001B04F4FFBE
:1004C000E39004EE138C09009384090093090D0056
:1004D0008335890003358D0013060B00E7800B0080
:1004E000E34EA0E2033D0D001B04F4FFE39A04EA8F
:1004F000138C09009384090093090D00833589004A
:1005000003B5890013060B00E7800B00E348A0E069
:1005100003BD09001B04F4FFE39404E8138C0900F5
:1005200093840900635A80128335890003358D0056
:1005300013060B0093090D00E7800B00E340A0DEDB
:10054000033D0D001B04F4FFE31C0CE4833589001C
:1005500003358D0013060B00138C090093840900EA
:1005600093090D00E7800B00E34AA0DA033D0D007C
:100570001B04F4FFE3160CE28335890003358D007C
:1005800013060B00138C09009384090093090D00D6
:10059000E7800B00E344A0D8033D0D001B04F4FFEB
:1005A000E3100CE08335890003358D0013060B0042
:1005B000138C09009384090093090D00E7800B0058
:1005C000E34EA0D4033D0D001B04F4FFE31A0CDC42
:1005D0008335890003358D0013060B00138C090049
:1005E0009384090093090D00E7800B00E348A0D233
:1005F000033D0D001B04F4FFE3140CDA833589007E
:1006000003358D0013060B00138C09009384090039
:1006100093090D00E7800B00E342A0D0033D0D00DD
:100620001B04F4FFE31E0CD68335890003358D00CF
:1006300013060B00138C09009384090093090D0025
:10064000E7800B00E34CA0CC033D0D001B04F4FF3E
:10065000E3180CD46FF0DFE993090D006FF01FC9A8
:100660008330810603340106833481050339010593
:1006700083398104033A0104833A8103033B010374
:10068000833B8102833C8101033D0101833D810065
:1006900013050C00033C01021301010767800000F1
:1006A00003134500130101FC23388102233C11028E
:1006B0002334910223302103233C31010334850389
:1006C0006354602A63CA052A630A042C93860500D2
:1006D000930E0000130E00009304000013060000A8
:1006E00093080000930704006F00C00083B7070061
:1006F0006384070E03B7870003182700E318D8FEAA
:10070000930600006F00800013840200833204000F
:100710002330D40093060400E39802FE6382070CA2
:1007200083B387009B841400039903009379190015
:1007300063880900131F6903935FFF033B86CF00A3
:1007400003B70700630C07008332070023B057008C
:10075000833704002330F7002330E40063400804AB
:100760009B871E009B9607011B0818009BDE064115
:100770009B130801139907039BD60341935909035F
:100780006306D30993F8F90FE3DE06F4138F08002C
:10079000930704003788FFFF6F0000039B8F1E0044
:1007A0009B9E0F0113970F039BDE0E41935207038D
:1007B000630CD30513FFF20F930704006F00C00012
:1007C00083B70700638E070283BF870083C80F00CB
:1007D000E398E8FF6FF0DFF2138806006FF05FF236
:1007E000833604001B0E1E0083B3860003990300AA
:1007F0009319790313DFF9033B06CF006FF01FF65F
:1008000093080F006FF0DFEF930608001B9324009E
:100810003B0EC341BB04CE0013960403935406035E
:100820006356B00213060500970500009385459DA9
:1008300013050400233411012330D100EFF09FA0F1
:10084000833881008336010013040500033504005A
:1008500013090400833905000337850083B5890037
:1008600003BF09002334B50023B4E9002330E501B8
:1008700023B0090063D806006F00800B033909001C
:100880006300090C83378900839E2700E398DEFE0E
:10089000033884009385040003150800EF20905A64
:1008A0000339090093040500E31409FE0339040029
:1008B00003B789008333890003330900130504005B
:1008C00023B479002334E90023B0690023303901CF
:1008D0001306000097F5FFFF9385057AEFF09F96CA
:1008E00003340500930905006300040203BE890078
:1008F0009385040003150E00EF20D0540334040048
:1009000093040500E31404FE8330810303340103E0
:100910000339010283398101138504008334810284
:10092000130101046780000003390900630A09000C
:10093000833F890083C20F00E39858FE6FF05FF594
:1009400003390400E30809F60338840093850400A2
:1009500003150800EF20104F033909009304050028
:10096000E31809F26FF09FF49386050093040000EA
:10097000930800006FF0DFEA6302040213880500A9
:100980009307040013060000130F0000130E00006D
:10099000930E0000930400006FF01FE38337000004
:1009A00073001000130101FD1315050223308102AD
:1009B000135505021384050093054001233C910063
:1009C0002334110293040600EF4080161B03E5FF59
:1009D0009312030213D5020293154500B303B4002A
:1009E000B787FFFF23300400233474001386070801
:1009F000131825002390C3002391030093070402DA
:100A0000B382030193884300130E040163FC773023
:100A10001387830063785730B786FFFF23380400BD
:100A20002330C401233C140193CEF6FF130FF0FFD3
:100A30002393D3012392E3011306000063080324E8
:100A4000B78FFFFF9375330013C8FFFF638E050E4A
:100A5000930810006380150B130E20006384C505F6
:100A6000138F0701637E7F02930E470063FA5E02D5
:100A7000033604009B96340093FF860723B0C7001B
:100A80002330F4009B958F0023B4E700BB88F50169
:100A9000231107012310170193070F0013870E007E
:100AA00013061000938E070163F47E04130F4700B2
:100AB00063705F04334E96009B163E0093FF8607DB
:100AC00093757600B3E8BF00833F04001B9E880047
:100AD000BB061E0123B0F7012330F40023B4E70066
:100AE0002310D7002311070193870E0013070F006F
:100AF0001B061600938E070163F47E04130F470054
:100B000063705F04B34596009B98350093F68807A1
:100B1000137E7600B3EFC601833604009B958F00E9
:100B2000BB88F50123B0D7002330F40023B4E700DD
:100B3000231017012311070193870E0013070F00DD
:100B40001B0616006304C314938E070163F47E042E
:100B5000130F470063705F04033E0400B34F960019
:100B60009B953F0093F885079376760023B0C701E5
:100B7000B3EFD8002330F4001B9E8F0023B4E700AE
:100B8000BB05FE012310B7002311070193870E0058
:100B900013070F00938E07011B06160063F47E04F3
:100BA000130F470063705F04033E0400B3489600D0
:100BB0009B96380093F58607937F760023B0C70194
:100BC000B3E8F5012330F4001B9E880023B4E7004E
:100BD000BB061E012310D7002311070193870E00C7
:100BE00013070F00938E070163F67E04130F47006F
:100BF00063725F049B051600833F0400B3C8950031
:100C00001B9E380093768E0793F5750023B0F7018D
:100C1000B3E8B6002330F4009B9F880023B4E700BC
:100C20003B8E1F012310C7012311070193870E007C
:100C300013070F00938E070163F67E04130F47001E
:100C400063725F049B05260083380400B3C69500D9
:100C50009B9F360093F68F0713FE750023B0170194
:100C6000B3E5C6012330F4009B98850023B4E70068
:100C7000BB8FB8002310F7012311070193870E00E3
:100C800013070F001B063600E310C3EC0333040008
:100C90008333030063860306930550002334610009
:100CA00023307100EF30D068B74200008336010076
:100CB000033781001B0505001386F2FF9305002012
:100CC000930710006F00800093860F0093FE05705D
:100CD00033C8970033EF0E01033E8700B378CF008F
:100CE00063F4A7009388070083BF060023111E0149
:100CF0009B8717009B85051013870600E3960FFC62
:100D0000130504000334010283308102833481011E
:100D10001306000097F5FFFF9385053613010103C5
:100D20006FF04FD21387080093070E006FF0DFD0EB
:100D3000130101FD23304101032AC50223341102AE
:100D40002330050663020A1E23308102233C9100F2
:100D50002338210193773A0013040500930400001F
:100D6000638E070A13091000638C270713072000FE
:100D7000638CE70293050900EFF09F928355040608
:100D800093040900EF2080272310A4069305F0FFA9
:100D900013050400EFF0DF9083550406EF200026D2
:100DA0002310A4062311A4069305100013050400C4
:100DB000EFF01F8F83550406EF2040242310A40674
:100DC0009305F0FF13050400EFF09F8D8355040693
:100DD000EF20C0222310A406638004189B84140013
:100DE0009305100013050400EFF09F8B8355040654
:100DF000EF20C0202310A4069305F0FF1305040084
:100E0000EFF01F8A83550406EF20401F2310A4062D
:100E1000638C04129B84140063069A1423343101FA
:100E20009305100013050400EFF09F878355040617
:100E30009B891400EF20801C2310A4069305F0FF6B
:100E400013050400EFF0DF8583550406EF20001B37
:100E500093020500231054069305100013050400A7
:100E60006394040023115406EFF09F838355040616
:100E7000EF20C0182310A4069305F0FF130504000B
:100E8000EFF01F8283550406EF2040172310A406BD
:100E9000639409002311A4069305100013050400B0
:100EA000EFF01F80835504069B8419001B891400F2
:100EB000EF20C0142310A4069305F0FF13050400CF
:100EC000EFF00FFE83550406EF20401313030500D7
:100ED00023106406930510001305040063940400B6
:100EE00023116406EFF0CFFB835504069B04190021
:100EF000EF20C0102310A4069305F0FF1305040093
:100F0000EFF00FFA83550406EF20400F2310A406DC
:100F100063060902E3169AF0033401028334810167
:100F2000033901018339810083308102033A0100D2
:100F30001305000013010103678000002311A406BC
:100F4000E3109AEE6FF05FFD2311A4069B8414005A
:100F5000E3169AEC6F0000012311A4069B84140091
:100F60006FF01FE80334010283348101033901016A
:100F70006FF09FFB130101812334117E2330817EAA
:100F8000233C917C2338217D2334317D2330417DE6
:100F9000233C517B2338617B2334717B2330817B5D
:100FA000233C91792338A1792334B179130101F3DA
:100FB00013040105130684FB930544FB1305A107E5
:100FC00023220100EF20101113051000EF10907D77
:100FD0002318A10013052000EF10D07C2319A100D5
:100FE00013053000EF10107C231AA10013054000F8
:100FF000EF10507B232EA10213055000130401852E
:10100000EF10507A63140500130570008337047CD9
:101010002328A47E9392070113D70201638A0272E8
:10102000130310006302677413090108137A150093
:1010300093792500231C01062334247D130B0A0019
:1010400013754500639C0916630A051A930A0A0082
:1010500093851A001305007DEF30102D9B050500C8
:101060002324B47E631A0A34130A400063980916D5
:1010700013850A00EF301025931C050213DD0C02C6
:10108000B30DA9012330B47F0327047F137E17001B
:10109000630E0E000316047C8335047D0325847ED5
:1010A000EFF05F900327047F233CA47E937E27000C
:1010B00063960E1613734700630A03000336047E1B
:1010C0008315047C0325847EEF10100A8323C47EDD
:1010D0001309010163900306930410002326947EF4
:1010E000130901018325C47E1B962500BB09B600A8
:1010F0001B9B19002326647FEF200078130509004D
:10110000EFF01FC3EF200078EF20C078EF20C07908
:10111000E30A05FC13150502935505021305A0000B
:10112000EF3010218325C47E1B051500EF30901988
:101130002326A47EEF20407413050900EFF05FBF63
:10114000EF204074EF200075930B05000315047C1D
:1011500093050000B78A0000EF20C04E93050500FC
:101160000315247C138A5AB0EF20C04D9305050067
:101170000315447CEF20004D930505000315847E84
:10118000EF20404C9B090500638A495B636E3A0B74
:10119000B72C0000138D2C8F6388A959375E00008F
:1011A000930EFEEA639ED92117450000130585AA18
:1011B000EF205069930D20006F00800B930A1A00F6
:1011C000E31805E893850A001305007DEF305016FB
:1011D0009B0505002324B47E631A0A02BB06604106
:1011E00033F8D5009318080293DB0802330C790119
:1011F000233C847DE30A0AE86FF09FE79305007DB6
:101200002324B47EE3020AE8930A0A002338247DEB
:10121000E38C09E6130A00006FF05FFC031F247CD7
:10122000831F047C8335847D9B170F010325847EF7
:10123000B3E2F7011B86020093060105EF0000559B
:101240000327047F6FF01FE7B7960000138826A0DE
:101250006382094DB7F80000138C589F6392891779
:1012600017450000130585A2EF20D05D930D3000D7
:1012700017FFFF0F032F0FD963040F4E939F1D001D
:1012800097470000938707F297420000938282F00D
:1012900017470000130707EF338BF701B38AF201FA
:1012A000330AF701130D0000130C0000930D00002A
:1012B0006F00C003B38DB44113974D00B304E40035
:1012C0001383F47F035E93021B0C1C0097FEFF0F39
:1012D00083AE4ED3BB04CD01131D0C03135C0D0371
:1012E0009B0D0C00138D04006370DC0F93943D0084
:1012F0003383B4419313430033097400832F097F70
:10130000B7150000B38C250113F61F0023940C823F
:101310006308060203D62C8283560B006302D602B2
:1013200093850D00174500001305459CEF20905153
:1013300003D58C82832F097F9B0615002394DC82C2
:1013400013F82F0063020804B388B441139E4800C9
:101350003309C401B71E0000B38C2E0103D64C82A2
:1013600083D60A006302D60293850D00174500005C
:101370001305C59AEF20104D03DF8C82832F097F60
:101380009B071F002394FC8293F24F00E38402F238
:10139000B383B441939543003306B400371500007E
:1013A0003309C5000356698283560A006316D626A0
:1013B000035E89826FF05FF12338247D6FF0DFCA0E
:1013C000370B01009304FBFFEF20804A8365847E86
:1013D000BB049500174500001305C59AEF20904601
:1013E000939A0B0293D50A02174500001305059B3B
:1013F000EF20504513850B00EF20004B93050500AF
:10140000174500001305059BEF20D04313850B0003
:10141000EF2080496316052A13850B00EF20C04892
:10142000930B900063F4AB288365C47E17F5FF0F20
:10143000036545BD9B9F04011BD90F41EF308068B8
:1014400093050500174500001305C59DEF20903F4B
:10145000974500009385859E174500001305059F5D
:10146000EF20503E974500009385C59F174500002B
:10147000130545A3EF20103D97450000938505A473
:1014800017450000130505A4EF20D03B9385090004
:1014900017450000130585A4EF20D03A8329047F67
:1014A00093F71900639E071817F5FF0F032585B5FD
:1014B0000328047F93762800638A06046302052CC0
:1014C000930B000093050000B71D0000139E35002C
:1014D000B30EBE40139B4E00B30A6401338A5D0114
:1014E00003564A8217450000130545A39B8C1B0039
:1014F000EF20503517F5FF0F0325C5B0139F0C03E0
:10150000935B0F039B850B00E3E2ABFC8324047F1A
:1015100093FF4400638A0F04130D0000930500003D
:10152000B7190000630A050893973500338CB7405C
:1015300093124C00330754003383E900035663824F
:10154000174500001305859FEF20D02F9B031D003A
:1015500017F5FF0F032505AB13960303135D060371
:101560009B050D00E362ADFC930A000093050000AB
:10157000B71D00006302050413983500B306B84098
:1015800093984600330E1401B38ECD0103D60E821C
:10159000174500001305859CEF20D02A9B851A0073
:1015A00017FAFF0F032A0AA6139B0503935A0B038E
:1015B0009B850A00E3E24AFD6302090E635420158D
:1015C00017450000130505A7EF20D0271305A10735
:1015D000EF2000311301010D8330817E0334017E41
:1015E0008334817D0339017D8339817C033A017C19
:1015F000833A817B033B017B833B817A033C017A05
:10160000833C8179033D0179833D81781305000096
:101610001301017F6780000093850D0017350000DE
:1016200013054573EF201022835689821B8816000C
:101630009318080313DE08032314C9836FF0DFC86F
:1016400017F5FF0F0325059CE30405E6130D0000C5
:1016500093050000371C0000939235003387B24099
:1016600013134700B303640033067C00035626823D
:101670001745000013058588EF20D01C9B051D0031
:1016800013950503135D050317F5FF0F03258597D4
:101690009B050D00E362ADFC6FF09FE11745000074
:1016A0001305C58DEF20101A6FF05FF2173500009B
:1016B00013054573EF2010199B8414006FF0DFD6DB
:1016C00097F5FF0F83A505940325C47EEF30803F77
:1016D000130A050013850B00EF20001D931C050263
:1016E000131F0A0293D50C0213550F02EF3040442A
:1016F0009B050500173500001305456DEF2090147C
:101700006FF09FD1174500001305458CEF20901313
:101710006FF0DFEB173500001305454DEF209012F9
:10172000930D00006FF0DFB4173500001305055965
:10173000EF205011930D40006FF09FB3173500005C
:101740001305454EEF201010930D10006FF05FB29F
:10175000130660062320047C2312C47C6FF0DF8C08
:10176000930400006FF05FC6B73315349384534180
:10177000930560062320947C2312B47C6FF0DF8AEB
:1017800093784800E38208DE6FF01FE3130101FA4B
:10179000233491042338410323349101233C110461
:1017A0002338810423302105233C310323345103A2
:1017B000233881012330A101130A0500938C060010
:1017C0009304060063140600930410001389F5FFC8
:1017D000937289FF938982001304000063020A1C3C
:1017E000930A04001B04140093050400130504006D
:1017F000EF30402D1B153500E36445FF93850A004B
:1018000013850A00EF30002C9317050213DCF70153
:101810003389890163840A1A23306103233C7101EF
:10182000138D0A001B8A1A00130B0000130410000A
:1018300033038A4093731300930B0400638C0304F7
:101840009305040013850400EF30C0271B57F541B2
:101850009B550701BB84A500139604039B06F4FF68
:101860001358060393980602BB04B840BB8E84004D
:1018700013DEF801BB8F8E00330FC9012310DF0187
:1018800093F2FF0F3385C901231055001B04140088
:101890006302440B9305040013850400EF3080229B
:1018A0009B57F5411BD30701BB03A3001397030309
:1018B000935507031B06F4FF131806023B8565408A
:1018C0009358F801BB068500BB848600330E1901CE
:1018D0001B0414002310DE0093FEF40F338F190154
:1018E000930504002310DF01EF30C01D9B5FF5411D
:1018F0009BD20F013B85A200931705039B03F4FFC6
:1019000013D3070313970302BB0453403B8884009F
:101910009355F701BB0888003306B900B386B900B8
:101920002310060113FEF80F2390C6011B041400B8
:10193000E31244F71B0B1B003B847A013B8A4A01EC
:10194000E3185BEF033B0102833B8101330C890108
:101950009304FCFF833081050334010593FE84FF6B
:10196000138F8E0023B43C0123B82C0123A0AC01BB
:1019700023BCEC01833481040339010483398103DE
:10198000033A0103033C0101833C8100033D010054
:1019900013850A00833A8102130101066780000063
:1019A000130DF0FF23306103233C71011389A20062
:1019B000930A0D00130C20006FF0DFE6130D0000FA
:1019C000130C00006FF09FF86300051C130101FA6F
:1019D000931705022338810113DCE7012330210529
:1019E000233C310323384103233451032330610363
:1019F000233C7101233C11042338810423349104D6
:101A000023349101938B060013090600130B050084
:101A1000138A0500338C850193090500930A0000A1
:101A2000B382594113F3320093840B0013840A00EC
:101A3000930C00006302030813071000630AE30419
:101A4000930320006304730213940A029354F40175
:101A5000330599000315050083950B001B841A00BC
:101A600093842B00EF300006930C050093150402BD
:101A700013D6F501B306C90083950400039506004B
:101A80001B04140093842400EF30C003BB0C9501A9
:101A9000131804029358F801330E190183950400BA
:101AA00003150E001B04140093842400EF30800102
:101AB000BB0C950163868908931E040213DFFE01A7
:101AC000B30FE90103950F00839504001B04140074
:101AD00093848400EF20107F9317040293D2F701C0
:101AE000330359008395A4FFBB0C95010315030034
:101AF0001B041400EF20107D131704029353F70109
:101B0000BB0C9501330579008395C4FF03150500CF
:101B10001B041400EF20107B9315040213D6F5016B
:101B2000B306C900BB0C95018395E4FF039506003D
:101B30001B041400EF201079BB0C9501E39E89F67D
:101B400023209A01130A4A00BB0A5B01BB093B012F
:101B5000E3184CED8330810503340105833481049F
:101B60000339010483398103033A0103833A810273
:101B7000033B0102833B8101033C0101833C810063
:101B800013010106678000006780000063000522E2
:101B9000130101F923382105233431052330410590
:101BA0002334710323308103233C91012338A101A5
:101BB0002334110623308106233C9104233C510336
:101BC000233861032334B10113090500938C050008
:101BD000130A060093890600930B0500130C0000FE
:101BE000130D0000130B0000BB0A8B0113970A02B0
:101BF000B3878B419352E70113F33700B38A5C003C
:101C000093040B0013040C00930D00006304030AFB
:101C1000930310006306730613052000630AA302F2
:101C200013140C0293160B029354F40193D5F6018E
:101C300033069A003388B90003150600831508009F
:101C40001B041C00BB046901EF20D067930D050045
:101C500093180402939E040213DEF80113DFFE01C1
:101C6000B30FCA01B387E90103950F0083950700FD
:101C70001B041400BB049900EF20D064BB0DB50118
:101C800013170402139304029352F7019353F301C1
:101C900033055A00B38679000315050083950600C5
:101CA0001B041400BB049900EF20D061BB0DB501EB
:101CB000638C8B08139804029315040213D6F50164
:101CC0009358F801330ECA00B38E190183950E00A4
:101CD00003150E001B041400BB049900EF20905E56
:101CE000131F040293970402935FFF0193D2F7013D
:101CF0003307FA013383590083150300BB0DB50187
:101D0000031507001B041400BB049900EF20905B2F
:101D1000931304029396040293D5F601BB0DB5010B
:101D200013D5F3013306AA003388B9000315060062
:101D3000831508001B041400BB049900EF20905881
:101D4000BB0DB5016FF0DFF323A0BA019B0A1B00A6
:101D500063065901138B0A006FF01FE93B0C8901E0
:101D6000BB0B790163066D011B0D1D006FF09FE732
:101D7000833081060334010683348105033901056C
:101D800083398104033A0104833A8103033B01034D
:101D9000833B8102033C0102833C8101033D01013D
:101DA000833D810013010107678000006780000008
:101DB000630E051A130101F923343105233C510345
:101DC0002338610323347103233C91012338A1019B
:101DD0002334B1012334110623308106233C9104BE
:101DE0002338210523304105233081039309050061
:101DF000138D0500130B0600938A0600930B050054
:101E0000930C0000930D0000130C00003B0A9C0192
:101E100013170A02B3877C419352E70113F31700AB
:101E2000330A5D0093040C0013840C0013090000B6
:101E30006306030493930C0293160C0213D4F3016C
:101E400093D4F60133058B00B3859A008395050082
:101E5000031505001B841C00BB848901EF209046FC
:101E6000131645031318A503935596031355C8037A
:101E7000EF2050451B09050063888B089318040266
:101E8000939E040213DEF80113DFFE01B30FCB01B2
:101E9000B387EA018395070003950F001B04140024
:101EA000BB849900EF201042131745039312A5033A
:101EB0009355970313D5C203EF20D04013130402A8
:101EC000939604029353F3013B09250113D5F601C0
:101ED000B3057B003386AA00039505008315060031
:101EE0001B041400BB849900EF20D03D1318450358
:101EF0009318A5039355980313D5C803EF20903C7E
:101F00003B092501E39C8BF623202A011B0A1C00B8
:101F100063864901130C0A006FF05FEFBB8C9901D7
:101F2000BB8B790163868D019B8D1D006FF0DFED0A
:101F300083308106033401068334810503390105AA
:101F400083398104033A0104833A8103033B01038B
:101F5000833B8102033C0102833C8101033D01017B
:101F6000833D810013010107678000006780000046
:101F7000130101F92330810623343105233C510339
:101F800023341106233C91041384050093090600B1
:101F9000938A0600E30005122338210537F9FFFF75
:101FA0002330410523386103233471032330810337
:101FB000233C91012338A1012334B101130A070006
:101FC000336927019306050093050000130B0000F9
:101FD0003387B6409372770093870500638E020EB5
:101FE00013061000638AC20C130320006388620A80
:101FF000930330006386720813084000638402076D
:102000009308500063821205930B60006380720393
:102010009397050213DCF701B38C890103DD0C00F3
:102020009B871500BB0D4D012390BC01139E070239
:10203000935EFE01338FD901835F0F009B871700EA
:10204000BB844F0123109F00139707029352F7019F
:1020500033835900035603009B871700BB034601D7
:1020600023107300139807029358F801B38B1901DA
:1020700003DC0B009B871700BB0C4C0123909B01DA
:10208000139D0702935DFD01338EB901835E0E003F
:102090009B8717003B8F4E012310EE01939F070291
:1020A00093D4FF0133879900835207009B87170061
:1020B0003B83420123106700139607029353F601F6
:1020C00033887900835808009B871700BB8B480131
:1020D000231078016384F60E9394070293DCF401D5
:1020E000338C9901035D0C001B8317001318030246
:1020F0009358F8013B0F4D012310EC01B38F1901E8
:1021000083D20F009B0713009393070293DBF30125
:102110003B8642012390CF00B38E790103DE0E008F
:102120009B8D170013970D029354F701BB0C4E01C2
:1021300023909E01338C9900035D0C001B831D00CE
:10214000131803029358F8013B0F4D012310EC01C3
:10215000B38F190183D20F009B07130093930702DB
:1021600093DBF3013B8642012390CF00B38E7901CC
:1021700003DE0E009B8D170013970D029354F70199
:10218000BB0C4E0123909E01338C9900035D0C0023
:102190009B871D00139307023B084D019353F301E6
:1021A00023100C0133887900835808009B8717009F
:1021B000BB8B480123107801E390F6F29B041B00CF
:1021C000BB05B500BB06D50063069500138B040064
:1021D0006FF01FE0138C0400930C0000130D00003F
:1021E00033059C41937D3500938B0C00638E0D0865
:1021F000130E10006382CD07930E20006388DD0369
:10220000139F0C02935F0F0213971F00B382E90024
:102210008395020013932F0013050A00B30B64008B
:10222000EF20500A23A0AB009B8B1C0013960B02DF
:102230009353060213981300B3880901839508008D
:102240009397230013050A00B30DF400EF209007C5
:102250009B8B1B0023A0AD0093950B0293D6050228
:10226000139E1600B38EC90183950E00139F26009E
:1022700013050A00B30DE401EF20D0049B8B1B0073
:1022800023A0AD0063868B0993950B0213D805023A
:10229000931818003383190183150300131F2800B6
:1022A00013050A00B30DE4019B8B1B00EF20900186
:1022B00093970B0293D60702939F1600B382F901FE
:1022C0008395020023A0AD009393260013050A0016
:1022D000B30D74009B8B1B00EF20C07E23A0AD00CC
:1022E00013950B021356050213171600B38EE9005F
:1022F00083950E00131E260013050A00B30DC401BA
:10230000EF20407C23A0AD009B8B1B006FF0DFF41F
:10231000BB8C94013B8C840163066D011B0D1D0079
:102320006FF01FEC938504001308000013060000F3
:10233000130700001305000093080000338D0541CA
:10234000937F3D0093070800638E0F0893021000EF
:1023500063805F061303200063866F0293130802F5
:1023600093D7E301B306F400130E060003A606009C
:102370003B07C7006350E9181B05A50013070000C1
:102380009B071800139F0702935DEF01B30BB40185
:10239000930C060003A60B003B07C7006356E91425
:1023A0001B0DA5001307000013050D009B871700E8
:1023B000939F070293D2EF01330354009303060067
:1023C000032603003B07C700635AE9101B0EA50054
:1023D000130700001B1E0E019B8717001B550E41A3
:1023E0006380B70A939B070293D6EB01330CD400AA
:1023F000032D0C003B07A701634CE90CB32FA6018A
:10240000BB82AF009B83170013950302935EE50127
:10241000330ED40103230E003B0F67006352E9091A
:102420009B871300939C070293DBEC01B3067401B6
:1024300003AC0600130F00009B8DA2003B0D8F0123
:102440006352A9099B82AD00130D00009B87170002
:10245000139707029353E701330574000326050021
:102460003B07CD006358E9021B8EA2001B1E0E0124
:102470009B871700130700001B550E41E394B7F626
:10248000BB85F4003B880401630C1B079B88180084
:102490006FF0DFEAB32ECC003B8E5E006FF09FF34F
:1024A0009B871300939C070293DBEC01B306740136
:1024B00003AC060033266D00BB0D56003B0D8F01AB
:1024C000E342A9F9B32F8301BB82BF016FF01FF86C
:1024D0009B02A500130700006FF0DFF2B3A6C30054
:1024E0003B8EA6006FF01FEF33ACCC003B0DAC0071
:1024F0006FF09FEBB32ECE003B85AE006FF05FE830
:1025000093050000EF1000141386090093050400E2
:10251000930B050093860A0013850400EFF0CFCAE1
:1025200093850400130800001306000093070000C1
:10253000130500009308000033870541937E3700A0
:1025400013070800638E0E08130F10006380EE0758
:10255000930D20006386BE03931C080213DCEC017C
:10256000330D8401930F060003260D00BB87C700BF
:102570006350F9181B05A500930700001B071800FE
:10258000131307029353E301330E740093060600FE
:1025900003260E00BB87C7006356F9141B0FA50066
:1025A0009307000013050F001B071700931D070278
:1025B00093DCED01330C9401130D060003260C008F
:1025C000BB87C700635AF9109B0CA5009307000056
:1025D0009B920C011B0717001BD502416300B70A31
:1025E000131D0702935FED01B302F40183A3020000
:1025F000BB877700634CF90C33267600BB0EA60030
:102600001B07170013130702135EE301330FC40106
:10261000832D0F00BB8CB701635299091B0D170066
:1026200013150D02935FE501B302F40183A30200C9
:10263000930C00001B8CAE00BB8E7C006352D9094A
:102640001B0EAC00930E00001B071D009317070222
:1026500013D3E701330F640003260F00BB87CE00BE
:102660006358F9029B0CAE009B920C011B071700EC
:10267000930700001BD50241E314B7F6BB85E400C5
:102680003B880401638C68079B8818006FF0DFEAC1
:10269000B3ADC300BB8CCD016FF09FF31B0D1700D2
:1026A00013150D02935FE501B302F401B3A6B30164
:1026B00083A302003B8CD601BB8E7C00E342D9F998
:1026C00033A67D003B0E86016FF01FF89B0EA50020
:1026D000930700006FF0DFF2B32FCD00BB8CAF008B
:1026E0006FF01FEFB3AEC6003B8FAE006FF09FEBF5
:1026F000B3A2CF003B85A2006FF05FE893850B008B
:10270000EF005074130B050093860A001385040034
:102710001386090093050400EFF04FC7130C000067
:10272000930E0000930C00001305000093080000B6
:10273000930600006F0080013B8FAD001B150F0159
:102740009B8616001B55054163F096043B86860167
:102750009317060213D3E701B3036400138E0E0030
:1027600083AE03001B0FA500BB8C9E01B32DDE01C1
:10277000E35499FD1B150F019B861600930C000076
:102780001B550541E3E496FC9B8818003B8C8401B3
:10279000E3E098FA93050B00EF00D06A930504007C
:1027A000130D050093860A001385040013860900A3
:1027B000EFF00FE01308000093050000130700007E
:1027C00013050000130E0000130300006F008001CA
:1027D000BB07A6009B9307011B0313001BD50341F6
:1027E00063709304BB0F680093920F0293DAE201C7
:1027F000B30B5401138B050083A50B009B07A500A9
:102800003B87E5003326BB00E354E9FC9B930701BB
:102810001B031300130700001BD50341E36493FC63
:102820001B0E1E003B089800E3609EFA93050D0006
:10283000EF005061130C0000930800001304000027
:102840003B098401931E090213DFFE01B38DE901E8
:1028500083DC0D001B041400BB864C412390DD007B
:10286000E36094FE9B8818003B8C8401E3E898FCAD
:1028700003390105033A0104033B0103833B810251
:10288000033C0102833C8101033D0101833D810042
:1028900083308106033401061B150501833481054D
:1028A00083398104833A81031B55054113010107D4
:1028B0006780000093050000EF00D05893860A005F
:1028C0001386090093040500930504001305000016
:1028D000EFF08F8F9385040013050000EF009056F2
:1028E00093860A00138609009304050093050400EB
:1028F00013050000EFF08FA9938504001305000075
:10290000EF005054930405009305040093860A00D9
:102910001386090013050000EFF08FC993850400AA
:1029200013050000EF0010526FF09FF6130101FF36
:102930002330810083360501130406001387050048
:1029400003368500833585010325050023341100F6
:10295000EFF00FE29305040003340100833081009F
:10296000130101016F00104E1B03F5FF930E1000C1
:1029700063FC6E169B85150013980503130101FF78
:10298000135808032334810023309100130E700084
:102990009314B8039376780093070000173400006F
:1029A000130444819308400097330000938383828B
:1029B0009732000093820284973F0000938F8F85A7
:1029C000130FC00213D7E4036386C60B63E4D81069
:1029D0009B86D6FF9394060393D504031317370001
:1029E00063E2BE0EB384E20083B6040013078000E6
:1029F0009B851700BB85E50063FC650883C4060062
:102A00009397070293D70702B307F6002380970036
:102A100083C416001B08180013180803A38097002E
:102A200083C42600135808032381970083C436000B
:102A3000A38197006302170383C446002382970093
:102A400083C45600A382970083C466002383970043
:102A500083C67600A383D7003387E7002300E7010E
:102A60009314B803937678009387050013D7E40393
:102A7000E39EC6F593153700B306B4001307800034
:102A80009B851700BB85E50083B60600E3E865F685
:102A900063F2A7021394070293580402330E16013F
:102AA0003B86C74123000E00130E1E00BB0ECE0056
:102AB000E3EAAEFE03348100833401001301010117
:102AC00067800000B386EF0083B60600130740005E
:102AD0006FF01FF293143700B385930083B605009F
:102AE000130780006FF0DFF09307000013970702D1
:102AF00093520702B30356003B83774023800300C1
:102B000093831300BB866300E3EAA6FE67800000A0
:102B10000337050013060500834707006386072671
:102B20009306C00213050000638CD71C1308E00253
:102B3000638C071D636CF8021B8F57FD937FDF0FBB
:102B400063860F1E83AF450083A20500130717009D
:102B50001B831F001B85120023A0A50023A2650074
:102B6000130510002330E600678000001B8307FD7B
:102B70009373F30F93089000E3E678FC03AE05002F
:102B8000930717009B0E1E0023A0D50103471700D3
:102B90006306071E630ED71E1308E00263040705D1
:102BA0001B0F07FD937FFF0F130590006372F50362
:102BB00083A2050113871700130510009B871200DD
:102BC00023A8F5002330E6006780000023A4D50188
:102BD00003C71700938717006302071A9306C00202
:102BE0006FF05FFB03A305019B03130023A875008F
:102BF00003CE17009387170063040E129306C002DA
:102C0000630CDE0E9378FE0D930E50046392D80D84
:102C100003A54501138717009B03150023AA750020
:102C200003CE170063080E1A9308C002630A1E172A
:102C300003A7C5009B065EFD93FED60F1B08170079
:102C400023A6050163900E0803CF270013872700F2
:102C5000630E0F1463001F1783AF85019B020FFDE6
:102C600013F3F20F1B851F00930E900023ACA500F9
:102C700063FA6E0013873700130510002330E60057
:102C80006780000093030700034E17001307170027
:102C90009308C0029B070EFD93F6F70F63020E1216
:102CA00063041E13E3F0DEFE03A845001387230030
:102CB000130510001B0F180023A2E5012330E600C6
:102CC0006780000013872700130510006FF09FE94D
:102CD0001B080EFD137FF80F930F9000E3FAEFF13E
:102CE00083A2450113871700130510001B831200F0
:102CF00023AA65006FF01FE7138707001305500034
:102D0000130717006FF01FE603A5050093071700D0
:102D10009B02150023A05500034E1700E3120EEE90
:102D200013870700130550006FF0DFE303A50500CC
:102D3000930717009B02150023A0550003431700BB
:102D4000630E03086302D30A83A385009B0603FD79
:102D500013FEF60F930890009B8E1300E3F8C8E76C
:102D6000630A030123A4D5011307270013051000EC
:102D70006FF05FDF23A4D5016FF09FE71387070093
:102D8000130540006FF01FDE130500006FF09FDD9C
:102D90001387070013054000130717006FF09FDC2F
:102DA00013053000130717006FF0DFDB1305600019
:102DB0006FF05FDB13056000130717006FF09FDAF9
:102DC000130570006FF01FDA13057000130717006A
:102DD0006FF05FD9130530006FF0DFD8138707005D
:102DE000130520006FF01FD813870700130520007C
:102DF000130717006FF01FD7130101F6233881085E
:102E00002334910823302109233C3107233841071B
:102E10002334510723306107233C71052338810592
:102E2000233C11089384050083C5050023349100D9
:102E300023380102233C010223300104233401041E
:102E400023380100233C0100233001022334010216
:102E500013890700130C0500930B0600138B060063
:102E6000930A07009309010313040101130A810067
:102E7000638005129385090013050A00EFF05FC90E
:102E80009317050213D7E701B30387008336810048
:102E900003A5030003C606001B08150023A00301B9
:102EA000E31A06FC93180C0213DE08022334910087
:102EB000338CC40163F88403938F0400130AC002A7
:102EC00083CE0F0033CF7E0163844E012380EF0158
:102ED000B38F5F01E3E68FFF83C50400130A81000F
:102EE000638A05029385090013050A00EFF05FC2AB
:102EF0009312050213D3E201330783008333810069
:102F00008327070083C603001B8517002320A70023
:102F1000E39A06FC1306C00263FE840103C80400A2
:102F2000B34B68016304C80023807401B384540167
:102F3000E3E684FF938A0900032504009305090052
:102F400013044400EF00002E9305050003A50A00BA
:102F5000938A4A00EF00002D13090500E31E34FD9B
:102F6000833081090334010983348108033901085E
:102F700083398107033A0107833A8106033B01063F
:102F8000833B8105033C01051301010A67800000B2
:102F90009312050213D30202338C6400E3EE84F132
:102FA0006FF05FF99307500063E6A704172700004E
:102FB0001307472813152500B302E50003A30200F9
:102FC000B303E3006780030003A50181678000006D
:102FD00003A5C1816780000003A58181678000008F
:102FE00017D5FF0F032545026780000003A5418127
:102FF00067800000130500006780000093F7F50F5D
:103000009392870093D585003717000037F3FFFFB1
:10301000B3E3B200930FF7F09302030F33F6F3011B
:10302000B3F653001B1846009BD84600937EF5006C
:10303000137F050FB7370000B7D5FFFF93833733F2
:103040001383C5CC336E18011B974E009B564F005F
:1030500033786E00B368D70033767E001B1E2600DF
:103060009B5E280093F7380313F7C80CB755000090
:10307000B7B6FFFF336FDE01938855551388A6AAB4
:103080001B9E27009B5E2700B3771F0133760F013D
:103090003367DE019B5616009B951700137F57057B
:1030A000137EA70AB3EED5001B561E009B171F0008
:1030B00033EFC7001BD78E00334EE701B3E5D500D1
:1030C000972700009387871893161E00B38EF6008B
:1030D00003D70E001B9685001B558500334FC70094
:1030E000137EF70F93150F0393DE850393168E005F
:1030F00033E7D6013376F701337F57001B1E4600B6
:103100009B554F00B36EBE00B3F67E0033F76E00E2
:103110001B9F26001B562700336ECF00B3751E0180
:10312000B37E0E011B9715009BD61E00336FD70090
:103130001376FF0F131E860093558F00B36EBE00EB
:1031400033F7FE0133FF5E001376F5009B16470050
:103150001B5E4F00B3EEC6019B154600135545009C
:1031600033E7A50033FF7E0033FE6E00937637030E
:103170001B552E001376C70C9B152F0033EFA500AF
:103180009B9E26001B57260033EEEE0033761F0170
:10319000B3750F01937E5E051BD515009376AE0ABD
:1031A0001B1716003366A7001B9F1E001BDE1600B0
:1031B000B365CF019B5E8600B3C6BE0013971600B1
:1031C000B307F70003D507001B1F8600334EE50148
:1031D0009375F50F13160E03935E86039396850081
:1031E000B3E7D601B3FFF701B3F257001BD5420096
:1031F0001B974F00336FA700B3737F0033736F00CB
:103200001B9E23009B5523003366BE00B378160136
:10321000337806019B9E18009B56180033E5DE00AC
:103220006780000093F7F50F9392870093D5850090
:1032300037170000B7F8FFFF9303F7F033E3B2004E
:103240009382080FB3767300337653001B984600C1
:103250001B5E4600137FF500937F050FB737000014
:10326000B7D5FFFF93883733B36EC8011B174F00E4
:103270001388C5CC1BD64F0033F31E01B3F60E01E5
:10328000B36EC7001B1E23001BDF260093F73E030F
:1032900013F7CE0CB755000037B6FFFF9386555590
:1032A000B36FEE019305A6AA1B9E27009B5E270025
:1032B00033FFDF0033F3BF00B36FDE011B57130092
:1032C0009B171F0013F65F0513FEAF0AB3EEE7006E
:1032D0001B531E001B1F160033666F009BDF8E0002
:1032E00033CECF00B3E7E70013171E00172E000000
:1032F000130ECEF5B30EC70183DF0E001B938700BC
:103300001B5F8500B3C76F001397070313F6FF0F0A
:10331000935E8703931F8600B3E7DF0133F37700E3
:1033200033F657001B1743009B5E4600B36FD7016F
:10333000B3F71F0133F30F011B9627001B57230020
:10334000B36EE600B3FFDE00B3F7BE001B931F00B1
:103350001BD617003367C300937EF70F939F8E0031
:103360009357870033E3FF003377730033765300BE
:103370009B1E47009B5F46001373FF00137F0F0FD8
:10338000B3E7FE011B1743001B564F00B3FF1701A5
:10339000B3FE0701B367C7001B932F001BDF2E008E
:1033A00093FF370313F6C70C3367E3019B9E2F008F
:1033B0009B572600337FD7003373B70033E7FE00F7
:1033C0001B161F009B571300937F5705937EA70A78
:1033D000336FF6001B931F001BD71E00B36EE30074
:1033E0009B5F8F0033CFDF01B367F60013161F001A
:1033F0003303C601035703009B9F87009B5E0501B3
:10340000334FF70113160F039377F70F1353860308
:1034100013978700B36F670033FF7F00B3F75F0038
:103420001B134F001BD647003367C300B37F170140
:10343000337F07019B972F001B532F0033E6670054
:103440003377D600B37FB6001B1F17009BD71F0032
:103450003363FF001376F30F13178600935F830027
:10346000336FF701B3777F0033735F001B9647001C
:103470001B57430013FFFE0093FE0E0FB36FE600D1
:103480009B174F001BD34E0033F71F0133F60F017C
:10349000B3EF67001B1F27009B5E260013F73F0357
:1034A00013F3CF0CB367DF011B1627009B5F2300CC
:1034B00033FFD700B3FEB700B367F6011BD31E007E
:1034C00093FF57051B171F0013F6A70A336F6700FA
:1034D0009B9E1F009B57160033E6FE009B5F8F00EC
:1034E00033CFCF00931E1F00B387CE0183DF0700C9
:1034F000336767001B13870033CF6F00931E0F03E2
:1035000013F6FF0F93D78E03931F860033E7FF0058
:1035100033737700337F57009B1E43001B564F00C9
:10352000B3E7CE00B3FF170133F707011B9F2F004E
:103530001B532700B36E6F00B3F7DE0033F6BE00F7
:103540009B9F17001B57160033EFEF001373FF0FFD
:10355000931E830093578F0033E6FE00B37F7600FF
:10356000337756001B558501137FF5001B53470029
:103570009B9E4F00B3EF6E009B174F001356450004
:1035800033E5C70033F71F0133FF0F01937735038E
:103590009B5E2F00937FC50C1B1327003367D3015D
:1035A0001BD52F001B962700B367A600B37FD7005B
:1035B0003373B70093FEA70A1B57130013FF570579
:1035C0001B951F00B36FE5009B171F001BD61E0045
:1035D00033E3C7001BDF8F00B34E6F0013951E004F
:1035E000330EC50103570E009B978F00B34FF700B2
:1035F0001376F70F13930F03135F8303931E860055
:1036000033E5EE01B3737500B37255001B9E4300A2
:103610001BD74200B36FEE00B3F81F0133F80F0160
:103620009B9728001B56280033E3C700B376D300CE
:10363000B375B3001B9F16009BDE15003365DF01D9
:103640006780000093F7F50F9392870093D585006C
:103650003717000037F3FFFFB3E3B200930FF7F023
:103660009302030F33F6F301B3F653001B18460021
:103670009BD84600937EF500137F050FB7370000F7
:10368000B7D5FFFF938337331383C5CC336E18014F
:103690001B974E009B564F0033786E00B368D700DF
:1036A00033767E001B1E26009B5E280093F73803AE
:1036B00013F7C80CB7550000B7B6FFFF336FDE0134
:1036C000938855551388A6AA1B9E27009B5E27004A
:1036D000B3771F0133760F013367DE019B56160067
:1036E0009B951700137F5705137EA70AB3EED500ED
:1036F0001B561E009B171F0033EFC7001BD78E0001
:10370000334EE701B3E5D50097270000938707B450
:1037100093161E00B38EF60003D70E001B9685008D
:103720001B558500334FC700137EF70F93150F030A
:1037300093DE850393168E0033E7D6013376F701C7
:10374000337F57001B1E46009B554F00B36EBE00D3
:10375000B3F67E0033F76E001B9F26001B56270032
:10376000336ECF00B3751E01B37E0E011B9715009B
:103770009BD61E00336FD7001376FF0F131E8600F3
:1037800093558F00B36EBE0033F7FE0133FF5E002A
:103790001376F5001B5E4F001375050F9B1647004F
:1037A00033E7C6019B1546009B5E450033EFD5010C
:1037B00033757700337E670093763F039B5E2E0060
:1037C0001376CF0C9B15250033E5D5011B972600FA
:1037D0001B5F2600336EE70133761501B3750501D3
:1037E000937E5E051BD515009376AE0A1B17160057
:1037F0003366A7001B9F1E001BDE1600B365CF01BA
:103800009B5E8600B3C6BE0013971600B307F70091
:1038100003D507001B1F8600334EE5019375F50F96
:1038200013160E03935E860393968500B3E7D601C5
:10383000B3FFF701B3F257001BD542001B974F00AF
:10384000336FA700B3737F0033736F001B9E230099
:103850009B5523003366BE00B3781601337806010A
:103860009B9E18009B56180033E5DE006780000021
:103870001305000067800000F32700B023A6F18045
:1038800067800000F32700B017C7FF0F2320F778E9
:103890006780000017C5FF0F0325457783A7C18008
:1038A0003B05F5406780000013150502B7055C0273
:1038B000130101FF13550502938525E623341100FA
:1038C000EF100027833081001B0505001301010163
:1038D00067800000930710002300F5006780000058
:1038E0002300050067800000130101F22338810CDA
:1038F0002334910C2338410B233C7109233881096F
:10390000233C110C2334510B2330610B23349109D8
:103910002330A109233CB10713F80704130A05005B
:10392000938406001385050013040600130C07009A
:10393000971B0000938B8B7F63060800972B00007A
:10394000938B4B8113FD0701631E0D1613F71700B0
:10395000233CE100630C075E130B000313F3270005
:1039600093FC0702630E0316634A056093F3470056
:103970006396035C93F78700233401006388070094
:10398000930500029B84F4FF2334B100638C0C0088
:1039900093060001630ED46093088000930C00022C
:1039A000630A145B6314055213050003130E8102AE
:1039B0002304A102930A0000930D10002338C101D3
:1039C00013880D0063D48D0113080C0003378101A7
:1039D000BB840441930B0800631A071063569010D0
:1039E00013930402935303029B87F4FF93950702FA
:1039F00013F5730093D60502330E7A0013070A00FD
:103A0000130600026304050693081000630A1505F7
:103A10009304200063029504930E3000630AD503DB
:103A2000130F40006302E503930F5000630AF50192
:103A300013086000631E055B2300C700130717000F
:103A40002300C700130717002300C7001307170040
:103A50002300C700130717002300C7001307170030
:103A600013071700A30FC7FE6306C7032300C70091
:103A7000A300C7002301C700A301C7002302C7009A
:103A8000A302C7002303C700A303C70013078700CF
:103A9000E31EC7FD83328100130A1A00B308DA005F
:103AA00063900248638A0C00930C8000630894556D
:103AB000130300016304644A3334A0019304E4FF58
:103AC0006F00801093F7E7FF93020001233C510041
:103AD00013F32700130B000293FC0702E31603E81D
:103AE000233401006FF09FEA9B84F4FF833281004E
:103AF0006386020023005A00130A1A00638A0C002E
:103B000093038000630C744A93070001630CF44430
:103B100093080A00631A0D0A63529052139D04021F
:103B2000135E0D0213870800B388C8013386E8408E
:103B3000937E760063840E06130F1000638AEE05F1
:103B4000930F20006382FE0513083000638A0E0382
:103B50009302400063825E02930C5000638A9E01D0
:103B60001303600063906E4823006701130717007A
:103B700023006701130717002300670113071700CD
:103B800023006701130717002300670113071700BD
:103B900013071700A30F67FF6306170323006701CE
:103BA000A300670123016701A301670123026701E5
:103BB000A302670123036701A303670113078700BB
:103BC000E31E17FD9304F0FF3B84780163D68D0F4D
:103BD00013CAFDFF93871800330B8A009303000379
:103BE000BB051B41A38F77FEBB06F44013F57500A0
:103BF00063D4DD0A1B0D0500630A0506130E1000D1
:103C0000630ECD05130620006306CD04930E30002D
:103C1000630EDD03130F40006306ED03930F5000A6
:103C2000630EFD011308600063060D0193872800F1
:103C3000A380780023807700938717002380770084
:103C400093871700238077009387170023807700DE
:103C500093871700238077009387170093871700B7
:103C6000BB02F440A38F77FE63D85D022380770008
:103C7000A380770023817700A381770023827700D8
:103C8000A38277002383770093878700BB0CF440DF
:103C9000A38F77FEE3CC9DFD1303000063DA8D0153
:103CA0003B8CBB419B0DFCFF939B0D0213D30B027E
:103CB00013071300B388E800033B010113841A00C3
:103CC000137A740033065B01B3838800938708007E
:103CD00063040A0A930510006306BA0893062000DD
:103CE000630ADA0613053000630EAA04130D4000C0
:103CF0006302AA05130E50006306CA03930E600008
:103D0000630ADA01034F0600938718001306F6FFD3
:103D10002380E801834F0600938717001306F6FF00
:103D2000A38FF7FF03480600938717001306F6FFDB
:103D3000A38F07FF83420600938717001306F6FF41
:103D4000A38F57FE834C0600938717001306F6FFD8
:103D5000A38F97FF034C0600938717001306F6FF07
:103D6000A38F87FF834D0600938717001306F6FF86
:103D7000A38FB7FF63887704834B06000344F6FFE5
:103D8000034AE6FF0343D6FF034BC6FF8346B6FF55
:103D90008345A6FF034796FF23807701A380870012
:103DA00023814701A381670023826701A382D70093
:103DB0002383B700A383E70093878700130686FF5A
:103DC000E39C77FAB38A580193881A001385080098
:103DD0006354900C9B83F4FF139D0302135E0D024A
:103DE000130F2E00B30F5F0133881F4193727800C9
:103DF000930E000263880206930C1000638E9205F6
:103E0000130C200063868205930D3000638EB2038D
:103E1000930740006386F20213065000638EC200CF
:103E2000930B60006386720113852A002380D801FA
:103E30002300D501130515002300D5011305150036
:103E40002300D501130515002300D5011305150026
:103E50002300D501130515002300D5011305150016
:103E60006306F5032300D501A300D5012301D50185
:103E7000A301D5012302D501A302D5012303D50156
:103E8000A303D50113058500E31EF5FD93940402F9
:103E900013D50402330515018330810D0334010D60
:103EA0008334810C033A010B833A810A033B010AF4
:103EB000833B8109033C0109833C8108033D0108E0
:103EC000833D81071301010E678000002330210D1F
:103ED000233C310B1309810223382101930D00008B
:103EE0009305040093090500EF001049338FAB00E0
:103EF000834F0F0013850900930504002300F90187
:103F0000938A0D00EF00D0429B8D1D00130919000C
:103F1000E3F889FC0339010C8339810B6FF05FAA48
:103F200023805800138A180063920C0A93080A0031
:103F3000631E0D0C9304E0FF6FF01FC91306B0025F
:103F40009B84F4FF2334C1006FF05FA4130B0002C5
:103F50006FF0DFA09B84F4FF6FF0DFA4138A0800EA
:103F60009304F0FF93050003930680072300BA0033
:103F7000A300DA0093082A006FF0DFB92330210D87
:103F8000233C310B3305A04063860C0493090001E8
:103F9000630C3409930A8000630E5407930CD0021B
:103FA000233491019B84F4FF930C00026FF09FF285
:103FB0009B84E4FF930C00026FF0DF9E1305000367
:103FC0002300AA0093081A006FF0DFB49304F0FFF7
:103FD0006FF01FB31309D0029B84F4FF2334210137
:103FE0006FF05FEF23006701130717006FF0DFB773
:103FF00013071A002300CA006FF01FA4130B00035D
:104000002380680193881800E3060DF29304F0FF03
:104010006FF09FBB930DD0029B84E4FF2334B1016A
:10402000930C00026FF01FEB930ED0029B84D4FF21
:104030002334D101930C00026FF0DFE99B84F4FF7D
:104040006FF09FB8130101E6233C3113233C111498
:10405000233881142334B1162338C116233CD116DA
:104060002330E1182334F11823380119233C1119A6
:10407000834205009309811623343101E388021A33
:1040800013040101233491142330211523384113E3
:10409000233451132330611313030500233C7111A2
:1040A00013050400130A50021309000197140000BD
:1040B0009384C439130B9000930AE002638A420987
:1040C000230055008342130013051500130313004A
:1040D000E39602FE8334811403390114033A011379
:1040E000833A8112033B0112833B811123000500B7
:1040F000834F0101E3800F12B70601101305A000E2
:104100001383460093020400B70501109309D00001
:104110006386AF0203CE020003260300137F16005E
:10412000E31C0FFE9B070E0023A0F50083CF1200B7
:10413000638C0F1093821200E39EAFFC832E03006A
:1041400093F81E00E39C08FE23A035016FF09FFC4E
:104150009307000003461300930B13001B0706FE92
:104160009372F70F636C590093932200B385930009
:1041700083A6050033889600670008009B0806FDAB
:1041800013FEF80F6376CB11930EA0029306F0FF97
:10419000630AD6131307F0FF6306560D137EF60D60
:1041A0009308C004631C1E071B0E060003C61B00F9
:1041B00093083003938B1B009B0EB6FB13F3FE0F8B
:1041C00063EE6810971F0000938F8F2C131F23003E
:1041D000B302FF0183A30200B385F30167800500EA
:1041E00093E7170013830B006FF0DFF693E70701E7
:1041F00013830B006FF01FF693E7470013830B0048
:104200006FF05FF593E7070213830B006FF09FF4E5
:1042100093E7870013830B006FF0DFF39B0EB6FB71
:1042200013F3FE0F130F3003636A6F0A9712000037
:1042300093820233931F2300B3835F0083A503009F
:1042400033885500670008003B8482408330811525
:104250001B05140003340115833981131301011A5E
:104260006780000003C61B009308900013831B00A7
:104270001B0806FD137EF80F63F8C851930EA002C9
:104280006302D655930B0300130700006FF01FF174
:1042900093060000130390001B9F2600BB0FDF0056
:1042A000938B1B001B971F00BB02C70003C60B00AC
:1042B0009B8602FD9B0306FD93F5F30FE37EB3FCA3
:1042C0006FF05FED83A6090003462300930B2300E4
:1042D00063C40602938989006FF0DFEB1307500275
:1042E000630CE6502300E50003C80B00130515001E
:1042F000E30208DE6F008050BB06D04093E7070161
:10430000938989006FF01FE99303F0032300750080
:1043100083C21B001305150013831B00E39002DA10
:104320006FF05FDB03B609009389890063040650D0
:10433000034E060093F7070163040E749378770029
:10434000930506003307E60063840808834E1600D1
:104350009305160063820E0E130F1000638AE807A0
:10436000930F20006380F80793023000638658049F
:1043700093034000638C78021308500063820803A3
:10438000130E60006388C8010343260093052600CE
:104390006304030A83C8150093851500638E08081B
:1043A00083CE15009385150063880E0803CF150092
:1043B0009385150063020F0883CF150093851500C0
:1043C000638C0F0683C21500938515006386020671
:1043D0006386E50683C315009385150013880500E1
:1043E000638C030403CE15009385150063060E0449
:1043F0000343280093052800630003048348380022
:1044000093053800638A0802834E480093054800EC
:1044100063840E02034F580093055800630E0F008B
:10442000834F68009305680063880F00834278001B
:1044300093057800E39E02F8138705003B07C74009
:10444000638207506354E01013787700B308E600E6
:1044500093070500630C0808130E1000630EC807CD
:10446000930E20006302D80713033000630668042C
:10447000130F4000630AE803930F5000630EF80126
:10448000930260006314585C83430600938717000F
:1044900013061600A38F77FE0348060093871700C4
:1044A00013061600A38F07FF034E0600938717001D
:1044B00013061600A38FC7FF834E060093871700CD
:1044C00013061600A38FD7FF034306009387170038
:1044D00013061600A38F67FE034F0600130616008F
:1044E00093871700A38FE7FF63081605834F060025
:1044F0001306860093878700238CF7FF834296FF7D
:10450000A38C57FE8345A6FF238DB7FE8343B6FFDA
:10451000A38D77FE0348C6FF238E07FF034ED6FF09
:10452000A38EC7FF834EE6FF238FD7FF0343F6FF1B
:10453000A38F67FEE31C16FB9B08F7FF1396080288
:10454000135F0602130515003305E50113831B00F5
:104550006350D70C9B86F6FF3B87E6409317070214
:1045600093DF070293831F0093F573001307050081
:10457000930200023308750063840506130E1000D1
:10458000638AC505930E20006382D5059308300029
:10459000638A1503130640006382C502130F50009F
:1045A000638AE501930660006396D54C23005700AB
:1045B00013071700230057001307170023005700A5
:1045C0001307170023005700130717002300570095
:1045D0001307170013071700A30F57FE63060703FF
:1045E00023005700A300570023015700A3015700E1
:1045F00023025700A302570023035700A3035700C9
:1046000013078700E31E07FD130515003305F501A9
:1046100083C21B00E39402AA6FF0DFAB1303F0FF29
:104620006384662083B5090013060001938989001D
:10463000EFF08FAB83C21B0013831B00E39002A833
:104640006FF05FA993F707019383890013831B0021
:10465000638A071E83A9090013081000330E0501A1
:1046600023003501635CD8449395060293DE05026E
:10467000B30FD5019B88E6FFB386CF41139608029E
:1046800093F27600135F060293070E0013070002F1
:1046900063820206638A0205930920006382320561
:1046A00013083000638A0203930540006382B2025C
:1046B000930E5000638AD201930860006396123B08
:1046C0002380E700938717002380E7009387170074
:1046D0002380E700938717002380E7009387170064
:1046E0002380E7009387170093871700A38FE7FEC7
:1046F0006386F7032380E700A380E7002381E700B8
:10470000A381E7002382E700A382E7002383E70079
:10471000A383E70093878700E39EF7FD13051E0040
:104720003305E50183C21B0093890300E3980298D7
:104730006FF05F9A1308C0061306000163060E03AC
:1047400083E5090093898900EFF00F9A83C21B006B
:1047500013831B00E39402966FF0DF971306C006E5
:104760006312CE081306A00083B50900938989005F
:104770006FF09FFD1303C00693E7070463026E0A00
:10478000130600016FF0DFFB930300001B9F230063
:10479000BB0F7F00130313001B971F00BB02C70052
:1047A000034603009B8302FD9B0506FD13F8F50FEE
:1047B000E3FE08FD1B87030063CA0302930B03009B
:1047C0006FF0DF9D03A6090013832B0093898900F6
:1047D0001B0706006340060403C62B00930B03006F
:1047E0006FF0DF9B1306A0006FF09FF5130700002A
:1047F000930B03006FF09F9A03C80B002300050181
:1048000083C21B001305150013831B00E398028A63
:104810006FF05F8C03C62B00130700006FF01FFCC6
:10482000130600016FF05FF493E717009306000191
:104830006FF05FDF93F70701171600001306069469
:104840006FF0DFAF130E10006358DE241B8FE6FFFE
:10485000931F0F0293D20F023388C2019376780020
:104860009307050013070002B305050163860606DA
:10487000638EC605930E20006386D605930830002C
:10488000638E1603130E40006386C60313065000A2
:10489000638EC600130F60006386E6019307150060
:1048A0002300E5002380E700938717002380E700BB
:1048B000938717002380E700938717002380E70082
:1048C000938717002380E7009387170093871700CB
:1048D000A38FE7FE6386B7022380E700A380E7008B
:1048E0002381E700A381E7002382E700A382E7009A
:1048F0002383E700A383E70093878700E39EB7FC49
:1049000083A9090013051500B30F550023803F014B
:1049100013851F006FF01FE19302C00693E7270085
:10492000E3025EE483A509001306A00093898900D1
:104930006FF09FE1930FC00613068000E306FEE3CD
:104940006FF01FE06358D7169B86F6FFBB87E640E3
:104950009393070213D80302130E1800937E7E0070
:1049600093070500930800023303C50163880E0610
:10497000130F1000638EEE05930F20006386FE0573
:1049800093023000638E5E02930540006386BE0290
:1049900093065000638EDE009303600063867E0002
:1049A0009307150023001501238017019387170033
:1049B000238017019387170023801701938717001F
:1049C000238017019387170023801701938717000F
:1049D00093871700A38F17FF638667022380170151
:1049E000A380170123811701A381170123821701D7
:1049F000A382170123831701A383170193878700DD
:104A0000E39E67FC13051500330505019B06F7FFC0
:104A10006FF05FA38330811503340115833981134F
:104A2000130500001301011A67800000130401013F
:104A3000130504006FF08FEB93E727006FF09FEEF4
:104A400093E70704130600016FF09FCF834506002C
:104A500093071500130616002300B5006FF0DFA2C0
:104A6000130680006FF0DFCD93072500A300E5005B
:104A70006FF01FC513071500230055006FF01FB31B
:104A800013070000E39407AC13831B00E34ED0EA46
:104A900083C21B006FF01FB803A6090013051500A1
:104AA00093890300A30FC5FE83C21B00639802E035
:104AB0006FF04FE29B86F6FF6FF0DF9813050E0054
:104AC0006FF05FC6130605001305000093F615008E
:104AD000638406003305C50093D515001316160030
:104AE000E39605FE67800000131505029395050205
:104AF00093820000EF00C0031B05050067800200E1
:104B000013150502939505021355050293D5050269
:104B100093820000EF00C0011B8505006780020042
:104B20009302F0FF638C550A6340050663C60506D1
:104B300013860500930505001305F0FF630C0602BC
:104B400093061000637AB6006358C000131616006F
:104B500093961600E36AB6FE1305000063E6C500EF
:104B6000B385C5403365D50093D61600135616009D
:104B7000E39606FE6780000093820000EFF05FFB83
:104B800013850500678002003305A0406348B0002C
:104B9000B305B0406FF0DFF9B305B0409382000079
:104BA000EFF01FF93305A0406780020093820000F8
:104BB00063CA0500634C0500EFF09FF713850500FD
:104BC00067800200B305B040E35805FE3305A040FE
:104BD000EFF01FF63305B040678002009392F201B8
:104BE000E31455F467800000366B20706572666FC1
:104BF000726D616E63652072756E20706172616D99
:104C0000657465727320666F7220636F72656D6183
:104C1000726B2E0A0000000000000000000000007F
:104C2000366B2076616C69646174696F6E20727591
:104C30006E20706172616D657465727320666F724B
:104C400020636F72656D61726B2E0A0000000000B8
:104C500050726F66696C652067656E657261746914
:104C60006F6E2072756E20706172616D6574657211
:104C70007320666F7220636F72656D61726B2E0AAE
:104C80000000000000000000324B20706572666F6B
:104C9000726D616E63652072756E20706172616DF8
:104CA000657465727320666F7220636F72656D61E3
:104CB000726B2E0A00000000324B2076616C696432
:104CC0006174696F6E2072756E20706172616D65BE
:104CD0007465727320666F7220636F72656D6172A6
:104CE0006B2E0A00000000005B25755D4552524F97
:104CF0005221206C697374206372632030782530F0
:104D00003478202D2073686F756C642062652030C4
:104D100078253034780A00005B25755D4552524F86
:104D20005221206D6174726978206372632030783B
:104D300025303478202D2073686F756C642062658F
:104D4000203078253034780A000000000000000090
:104D50005B25755D4552524F522120737461746515
:104D60002063726320307825303478202D207368DA
:104D70006F756C64206265203078253034780A00C5
:104D8000436F72654D61726B2053697A65202020F4
:104D9000203A20256C750A00546F74616C20746988
:104DA000636B732020202020203A20256C750A0098
:104DB000546F74616C2074696D652028736563732A
:104DC000293A2025640A0000497465726174696F8C
:104DD0006E732F5365632020203A2025640A00005B
:104DE0004552524F5221204D75737420657865638A
:104DF00075746520666F72206174206C65617374D0
:104E0000203130207365637320666F7220612076D5
:104E1000616C696420726573756C74210A0000000E
:104E2000497465726174696F6E73202020202020A0
:104E3000203A20256C750A0047434331352E322E27
:104E40003000000000000000436F6D70696C6572F7
:104E50002076657273696F6E203A2025730A000010
:104E60002D4F32202D6D617263683D727636346944
:104E70005F7A69637372202D6D6162693D6C703673
:104E800034202D666E6F2D636F6D6D6F6E202D66F5
:104E9000756E726F6C6C2D6C6F6F7073000000001C
:104EA000436F6D70696C657220666C61677320205A
:104EB000203A2025730A0000535441434B00000060
:104EC0004D656D6F7279206C6F636174696F6E20D0
:104ED000203A2025730A00007365656463726320BD
:104EE0002020202020202020203A20307825303417
:104EF000780A0000000000005B25645D6372636C4B
:104F0000697374202020202020203A20307825301A
:104F100034780A00000000005B25645D6372636DF5
:104F2000617472697820202020203A203078253062
:104F300034780A00000000005B25645D63726373CF
:104F4000746174652020202020203A20307825309C
:104F500034780A00000000005B25645D63726366BC
:104F6000696E616C2020202020203A203078253086
:104F700034780A0000000000436F72726563742089
:104F80006F7065726174696F6E2076616C696461BF
:104F90007465642E2053656520524541444D452E6D
:104FA0006D6420666F722072756E20616E6420726F
:104FB00065706F7274696E672072756C65732E0A06
:104FC000000000000000000043616E6E6F742076E8
:104FD000616C6964617465206F7065726174696F7A
:104FE0006E20666F722074686573652073656564F2
:104FF0002076616C7565732C20706C65617365201B
:10500000636F6D7061726520776974682072657373
:10501000756C7473206F6E2061206B6E6F776E20DD
:10502000706C6174666F726D2E0A000000000000E3
:105030004572726F72732064657465637465640A87
:10504000000000000000000054302E33652D314672
:1050500000000000000000002D542E542B2B547132
:1050600000000000000000003154332E3465347A13
:10507000000000000000000033342E30652D545E27
:105080000000000000000000352E353030652B3365
:1050900000000000000000002D2E313233652D325B
:1050A00000000000000000002D3837652B38333237
:1050B00000000000000000002B302E36652D31323C
:1050C000000000000000000033352E35343430304D
:1050D00000000000000000002E3132333435303043
:1050E00000000000000000002D3131302E3730303C
:1050F00000000000000000002B302E363434303029
:1051000000000000000000003530313200000000D7
:1051100031323334000000002D38373400000000F5
:105120002B31323200000000303132333435363723
:1051300038396162636465666768696A6B6C6D6E55
:105140006F707172737475767778797A00000000E9
:1051500030313233343536373839414243444546AD
:105160004748494A4B4C4D4E4F5051525354555657
:105170005758595A000000003C4E554C4C3E000018
:10518000475EBF39A4E53A8E848D00000000000020
:1051900052BE99110856D71F4707000000000000B3
:1051A000B0D44033796A14E7C1E300000000000086
:1051B00048500000000000005850000000000000AF
:1051C000685000000000000078500000000000005F
:1051D000885000000000000098500000000000000F
:1051E000A850000000000000B850000000000000BF
:1051F000C850000000000000D8500000000000006F
:10520000E850000000000000F8500000000000001E
:1052100008510000000000001051000000000000D4
:1052200018510000000000002051000000000000A4
:10523000C4DDFFFFA0DDFFFFA8DDFFFFB0DDFFFF46
:10524000BCDDFFFF98DDFFFF000005800F800A0036
:105250001B801E0014001180338036003C00398012
:1052600028002D8027802200638066006C00698002
:1052700078007D8077807200500055805F805A00F2
:105280004B804E0044004180C380C600CC00C980E2
:10529000D800DD80D780D200F000F580FF80FA00D2
:1052A000EB80EE00E400E180A000A580AF80AA00C2
:1052B000BB80BE00B400B180938096009C009980B2
:1052C00088008D8087808200838186018C0189819E
:1052D00098019D8197819201B001B581BF81BA018A
:1052E000AB81AE01A401A181E001E581EF81EA017A
:1052F000FB81FE01F401F181D381D601DC01D9816A
:10530000C801CD81C781C201400145814F814A0159
:105310005B815E0154015181738176017C01798149
:1053200068016D8167816201238126012C01298139
:1053300038013D8137813201100115811F811A0129
:105340000B810E0104010181038306030C03098311
:1053500018031D8317831203300335833F833A03F9
:105360002B832E0324032183600365836F836A03E9
:105370007B837E0374037183538356035C035983D9
:1053800048034D8347834203C003C583CF83CA03C9
:10539000DB83DE03D403D183F383F603FC03F983B9
:1053A000E803ED83E783E203A383A603AC03A983A9
:1053B000B803BD83B783B203900395839F839A0399
:1053C0008B838E0384038183800285828F828A028D
:1053D0009B829E0294029182B382B602BC02B98281
:1053E000A802AD82A782A202E382E602EC02E98271
:1053F000F802FD82F782F202D002D582DF82DA0261
:10540000CB82CE02C402C182438246024C02498250
:1054100058025D8257825202700275827F827A0240
:105420006B826E0264026182200225822F822A0230
:105430003B823E0234023182138216021C02198220
:1054400008020D8207820202C8EDFFFF34EDFFFF64
:1054500034EDFFFFBCEDFFFF34EDFFFF34EDFFFF48
:1054600034EDFFFF34EDFFFF34EDFFFF34EDFFFFC0
:1054700034EDFFFFB0EDFFFF34EDFFFFA4EDFFFFC4
:1054800034EDFFFF34EDFFFF98EDFFFF7CEEFFFFF3
:1054900050EEFFFF7CEEFFFF50EEFFFF50EEFFFFF0
:1054A00050EEFFFF50EEFFFF50EEFFFF50EEFFFF0C
:1054B00050EEFFFF50EEFFFF50EEFFFF50EEFFFFFC
:1054C00050EEFFFF50EEFFFF50EEFFFF50EEFFFFEC
:1054D00050EEFFFF50EEFFFFE8F2FFFF50EEFFFF40
:1054E00050EEFFFF50EEFFFF50EEFFFF50EEFFFFCC
:1054F00050EEFFFF50EEFFFF50EEFFFF50EEFFFFBC
:1055000050EEFFFFB8F1FFFF8CF4FFFF7CEEFFFFD2
:105510007CEEFFFF7CEEFFFF50EEFFFF8CF4FFFF01
:1055200050EEFFFF50EEFFFF50EEFFFF50EEFFFF8B
:1055300050EEFFFFA8F4FFFF90F1FFFF50EEFFFFDA
:1055400050EEFFFF98EEFFFF50EEFFFFD0F2FFFF9F
:1055500050EEFFFF50EEFFFFA8F2FFFFACEDFFFFA4
:1055600080EDFFFFACEDFFFF80EDFFFF80EDFFFF63
:1055700080EDFFFF80EDFFFF80EDFFFF80EDFFFF7F
:1055800080EDFFFF80EDFFFF80EDFFFF80EDFFFF6F
:1055900080EDFFFF80EDFFFF80EDFFFF80EDFFFF5F
:1055A00080EDFFFF80EDFFFFE4F4FFFF80EDFFFFE4
:1055B00080EDFFFF80EDFFFF80EDFFFF80EDFFFF3F
:1055C00080EDFFFF80EDFFFF80EDFFFF80EDFFFF2F
:1055D00080EDFFFFE8F0FFFFDCF4FFFFACEDFFFF25
:1055E000ACEDFFFFACEDFFFF80EDFFFFDCF4FFFF54
:1055F00080EDFFFF80EDFFFF80EDFFFF80EDFFFFFF
:1056000080EDFFFF04F5FFFFC0F0FFFF80EDFFFF1F
:1056100080EDFFFFC8EDFFFF80EDFFFF88F2FFFF89
:1056200080EDFFFF80EDFFFF24F2FFFF0000000090
:0856300001000000660000000B
:00000001FF
