:1000000073104030970100109381C17F17210010B9
:1000100013014101938281801703001013038300B1
:1000200063F8620023B0020093828200E3EC62FE78
:10003000975200009382026617030010130383FC9B
:1000400097030010938383FC637C730003BE02005C
:100050002330C3019382820013038300E36873FE9D
:100060001305000093050000EF00106F730050109F
:100070006FF0DFFF630A0600031525008395250056
:100080003B05B54067800000831705009396070382
:1000900013F707F093D286033363570023106500EC
:1000A00083930500031525001398030313F603F04B
:1000B00093588803336E16012390C501839525005C
:1000C0003B05B54067800000031F050013178F0331
:1000D0009357F703638607001375FF0767800000D7
:1000E00093129F0313D3C203130101FD9B1343001B
:1000F000233081023386630023341102233C9100B4
:1001000093767F0083D705069388050013040500C6
:1001100013070600638E0608130510006392A608F5
:100120001385080413860700930507002334E101B3
:1001300023301101EF20D024833801009B1E0501DC
:10014000033F810003DE48069BD40E4163140E0A70
:1001500083D708062392A80693850700233411014C
:100160002330E101EF30C00E833701008336810078
:100170001307050093F207F013F5F40733635500F6
:100180002390E606936303088330810223107400F2
:1001900003340102833481011301010367800000ED
:1001A000931F0F0313D50F0393040F006FF0DFFAB3
:1001B0009304100263E4C4001307200283B508020D
:1001C000839628000396080003A588022334E101E2
:1001D00023301101EF209067833801001B180501BF
:1001E000033F810083D568069B5408416394050052
:1001F0002393A80683D708066FF01FF6130101FDAD
:10020000233C9100938405009305060023341102DA
:10021000233081022334C100EFF01FEB83358100CE
:100220001304050013850400EFF01FEA83308102F8
:100230003B05A4400334010283348101130101030F
:1002400067800000130101F923382105233C510385
:1002500023386103233471032334110623308106CC
:10026000233C91042334310523304105233081039D
:10027000233C91012338A1012334B1011309050066
:10028000930A1000938B0500130B060063000910FE
:10029000930C000093040000130C00009B8C1C00C6
:1002A00093070900130400006358540183B7070043
:1002B0001B041400E39A07FE93090900138A0A003D
:1002C000138907006354800263040A00631809025B
:1002D000138804001B04F4FF9384090083B9090008
:1002E0006308080423309800E34080FEB336200101
:1002F0006350400963800608630A04049B0DF4FF01
:1003000093FD7D00638C0D1E8335890003B5890044
:1003100013060B00E7800B00635EA0061388040041
:100320001B0AFAFF9304090003390900E31C08FAC9
:10033000138C04006FF01FF923B0E400B3362001E2
:100340009304070063040A0263820602130709008C
:100350001B0AFAFF03390900E39004FE130C07009F
:10036000B336200193040700E3100AFE930407004C
:10037000E39606F223B004001304100063828C2E6F
:1003800013090C009B9A1A00E31409F023300000B3
:100390007300100003BD09001B04F4FF638C04000C
:1003A00013880400938409002330980093090D00FA
:1003B0006FF09FF3138C090093840900635E80281B
:1003C0009302100093090D00638A5D12130320004D
:1003D00063806D109303300063867D0C130540002D
:1003E000638CAD08930550006382BD061306600060
:1003F0006388CD028335890003358D0013060B0019
:10040000E7800B00E34CA0F0033D0D001B04F4FF5C
:10041000E3180CF8138C09009384090093090D006C
:100420008335890003358D0013060B00E7800B0030
:10043000E346A0EE033D0D001B04F4FFE39204F637
:10044000138C09009384090093090D0083358900FA
:1004500003358D0013060B00E7800B00E340A0EC92
:10046000033D0D001B04F4FFE39C04F2138C090010
:100470009384090093090D008335890003358D00AD
:1004800013060B00E7800B00E34AA0E8033D0D00D4
:100490001B04F4FFE39604F0138C09009384090015
:1004A00093090D008335890003358D0013060B0079
:1004B000E7800B00E344A0E6033D0D001B04F4FFBE
:1004C000E39004EE138C09009384090093090D0056
:1004D0008335890003358D0013060B00E7800B0080
:1004E000E34EA0E2033D0D001B04F4FFE39A04EA8F
:1004F000138C09009384090093090D00833589004A
:1005000003B5890013060B00E7800B00E348A0E069
:1005100003BD09001B04F4FFE39404E8138C0900F5
:1005200093840900635A80128335890003358D0056
:1005300013060B0093090D00E7800B00E340A0DEDB
:10054000033D0D001B04F4FFE31C0CE4833589001C
:1005500003358D0013060B00138C090093840900EA
:1005600093090D00E7800B00E34AA0DA033D0D007C
:100570001B04F4FFE3160CE28335890003358D007C
:1005800013060B00138C09009384090093090D00D6
:10059000E7800B00E344A0D8033D0D001B04F4FFEB
:1005A000E3100CE08335890003358D0013060B0042
:1005B000138C09009384090093090D00E7800B0058
:1005C000E34EA0D4033D0D001B04F4FFE31A0CDC42
:1005D0008335890003358D0013060B00138C090049
:1005E0009384090093090D00E7800B00E348A0D233
:1005F000033D0D001B04F4FFE3140CDA833589007E
:1006000003358D0013060B00138C09009384090039
:1006100093090D00E7800B00E342A0D0033D0D00DD
:100620001B04F4FFE31E0CD68335890003358D00CF
:1006300013060B00138C09009384090093090D0025
:10064000E7800B00E34CA0CC033D0D001B04F4FF3E
:10065000E3180CD46FF0DFE993090D006FF01FC9A8
:100660008330810603340106833481050339010593
:1006700083398104033A0104833A8103033B010374
:10068000833B8102833C8101033D0101833D810065
:1006900013050C00033C01021301010767800000F1
:1006A00003134500130101FC23388102233C11028E
:1006B0002334910223302103233C31010334850389
:1006C0006354602A63CA052A630A042C93860500D2
:1006D000930E0000130E00009304000013060000A8
:1006E00093080000930704006F00C00083B7070061
:1006F0006384070E03B7870003182700E318D8FEAA
:10070000930600006F00800013840200833204000F
:100710002330D40093060400E39802FE6382070CA2
:1007200083B387009B841400039903009379190015
:1007300063880900131F6903935FFF033B86CF00A3
:1007400003B70700630C07008332070023B057008C
:10075000833704002330F7002330E40063400804AB
:100760009B871E009B9607011B0818009BDE064115
:100770009B130801139907039BD60341935909035F
:100780006306D30993F8F90FE3DE06F4138F08002C
:10079000930704003788FFFF6F0000039B8F1E0044
:1007A0009B9E0F0113970F039BDE0E41935207038D
:1007B000630CD30513FFF20F930704006F00C00012
:1007C00083B70700638E070283BF870083C80F00CB
:1007D000E398E8FF6FF0DFF2138806006FF05FF236
:1007E000833604001B0E1E0083B3860003990300AA
:1007F0009319790313DFF9033B06CF006FF01FF65F
:1008000093080F006FF0DFEF930608001B9324009E
:100810003B0EC341BB04CE0013960403935406035E
:100820006356B00213060500970500009385459DA9
:1008300013050400233411012330D100EFF09FA0F1
:10084000833881008336010013040500033504005A
:1008500013090400833905000337850083B5890037
:1008600003BF09002334B50023B4E9002330E501B8
:1008700023B0090063D806006F00800B033909001C
:100880006300090C83378900839E2700E398DEFE0E
:10089000033884009385040003150800EF20D07FFF
:1008A0000339090093040500E31409FE0339040029
:1008B00003B789008333890003330900130504005B
:1008C00023B479002334E90023B0690023303901CF
:1008D0001306000097F5FFFF9385057AEFF09F96CA
:1008E00003340500930905006300040203BE890078
:1008F0009385040003150E00EF20107A03340400E2
:1009000093040500E31404FE8330810303340103E0
:100910000339010283398101138504008334810284
:10092000130101046780000003390900630A09000C
:10093000833F890083C20F00E39858FE6FF05FF594
:1009400003390400E30809F60338840093850400A2
:1009500003150800EF2050740339090093040500C3
:10096000E31809F26FF09FF49386050093040000EA
:10097000930800006FF0DFEA6302040213880500A9
:100980009307040013060000130F0000130E00006D
:10099000930E0000930400006FF01FE38337000004
:1009A00073001000B7D70C001383D7CC931805023F
:1009B0009313C30093D208021385D3CC3388A202C9
:1009C0003787FFFF23B00500930E070893870502C2
:1009D000138F0501B786FFFF135E48029B08EEFFE9
:1009E000939F080213DE0F0293124E0033885500C6
:1009F00023B4050113132E002310D801231108007E
:100A0000330368009303480063F00731130788003D
:100A1000637C672E23B8050023B0E50123BC750075
:100A200093CEF6FF1305F0FF2313D8012312A8007D
:100A30001305000063880824378FFFFF93F6380002
:100A4000934EFFFF638E060E930F10006380F60B2C
:100A500093022000638456049383070163FE03031B
:100A6000130F4700637A6F0203B505009B1636002B
:100A700093FF860723B0A70023B0F5009B928F0059
:100A800023B4E7003B85F2012311D7012310A7000F
:100A90009387030013070F001305100093830701CA
:100AA00063F40305930F470063F06F04334FC500F1
:100AB0009B163F0093F28607137F7500B3E6E201B1
:100AC00003BF05009B928600BB86D20023B0E701DE
:100AD00023B0F50023B4E7002310D7002311D7017A
:100AE0009387030013870F001B05150093830701ED
:100AF00063F40305930F470063F06F04B342C5002E
:100B00009B96320093F28607137F7500B3E6E201ED
:100B100003BF05009B928600BB86D20023B0E7018D
:100B200023B0F50023B4E7002310D7002311D70129
:100B30009387030013870F001B0515006384A81417
:100B4000938F070163F40F059302470063F062047B
:100B500003BF0500B343C5009B96330093F6860799
:100B60009373750023B0E701B3E6760023B0F50078
:100B70001B9F860023B4E700BB03DF002310770030
:100B80002311D70193870F0013870200938F07016A
:100B90001B05150063F40F059302470063F0620420
:100BA00003BF0500B346C5009B93360093F6830749
:100BB0009373750023B0E701B3E6760023B0F50028
:100BC0001B9F860023B4E700BB03DF0023107700E0
:100BD0002311D70193870F0013870200938F07011A
:100BE00063F60F059302470063F262041B0F1500C2
:100BF00083B30500B346CF009B963600137F7F007A
:100C000093F6860723B07700B3E6E60123B0F5003C
:100C10009B93860023B4E7003B8FD3002310E701AA
:100C20002311D70193870F0013870200938F0701C9
:100C300063F60F059302470063F262041B0F250061
:100C400083B30500B346CF009B963600137F7F0029
:100C500093F6860723B07700B3E6E60123B0F500EC
:100C60009B93860023B4E7003B8FD3002310E7015A
:100C70002311D70193870F00138702001B0535004E
:100C8000E390A8EC03B505008336050063840606EF
:100C9000B7D80C001388D8CC1313C800930ED3CC4C
:100CA000B30FDE03374E0000930EFEFF1308002043
:100CB0001307100013D32F026F00800093860800E3
:100CC00093720870B343C70033EF72000335850099
:100CD000B377DF01637467009307070083B80600EA
:100CE0002311F5001B0717001B08081013850600C9
:100CF000E39608FC138505001306000097F5FFFF37
:100D0000938585376FF00FD41387030093070F0087
:100D10006FF01FD2130101FD23304101032AC502E8
:100D2000233411022330050663020A1E2330810298
:100D3000233C91002338210193773A0013040500E6
:100D400093040000638E070A13091000638C2707C1
:100D500013072000638CE70293050900EFF05F940E
:100D60008355040693040900EF20804E2310A40647
:100D70009305F0FF13050400EFF09F9283550406DE
:100D8000EF20004D2310A4062311A40693051000A4
:100D900013050400EFF0DF9083550406EF20404B6D
:100DA0002310A4069305F0FF13050400EFF05F8FF6
:100DB00083550406EF20C0492310A406638004185D
:100DC0009B8414009305100013050400EFF05F8D61
:100DD00083550406EF20C0472310A4069305F0FFB7
:100DE00013050400EFF0DF8B83550406EF20404627
:100DF0002310A406638C04129B84140063069A14C7
:100E0000233431019305100013050400EFF05F89CE
:100E1000835504069B891400EF2080432310A40609
:100E20009305F0FF13050400EFF09F878355040638
:100E3000EF20004293020500231054069305100092
:100E4000130504006394040023115406EFF05F853A
:100E500083550406EF20C03F2310A4069305F0FF3E
:100E600013050400EFF0DF8383550406EF20403EB6
:100E70002310A406639409002311A406930510000F
:100E800013050400EFF0DF81835504069B841900ED
:100E90001B891400EF20C03B2310A4069305F0FF2C
:100EA00013050400EFF0CFFF83550406EF20403A0E
:100EB00013030500231064069305100013050400B6
:100EC0006394040023116406EFF08FFD835504063C
:100ED0009B041900EF20C0372310A4069305F0FFF0
:100EE00013050400EFF0CFFB83550406EF204036D6
:100EF0002310A40663060902E3169AF003340102E4
:100F000083348101033901018339810083308102F7
:100F1000033A01001305000013010103678000007C
:100F20002311A406E3109AEE6FF05FFD2311A406CF
:100F30009B841400E3169AEC6F0000012311A406B1
:100F40009B8414006FF01FE8033401028334810195
:100F5000033901016FF09FFB130101812334117EDE
:100F60002330817E233C917C2338217D2334317DC5
:100F70002330417D233C517B2338617B2334717BBB
:100F80002330817B233C91792338A1792334B179B3
:100F9000130101F313040105130684FB930544FBBD
:100FA0001305A10723220100EF205037130510007D
:100FB000EF2080242318A10013052000EF20C02378
:100FC0002319A10013053000EF200023231AA100EC
:100FD00013054000EF204022232EA10213055000EC
:100FE00013040185EF2040216314050013057000F0
:100FF0008337047C2328A47E9392070113D7020130
:101000006388026E13031000630067709306010883
:10101000137A150093782500231C01062334D47C11
:1010200013090A0013754500639008166304051838
:1010300013080A009B0A1800130B007DBB5B5B03BF
:101040002324747F63160A32130A4000639A08143B
:101050003B0D7803B38DA6012330B47F0327047FB3
:10106000137E1700630E0E000316047C8335047D87
:101070000325847EEFF01F930327047F233CA47E87
:10108000937E270063980E1413734700630A0300CE
:101090000336047E8315047C0325847EEF10103212
:1010A0008323C47E13090101639C0304930410008D
:1010B0002326947E130901018325C47E1B962500F7
:1010C000BB06B6009B9816002326147FEF20102045
:1010D00013050900EFF01FC4EF201020EF20D020EF
:1010E000EF20D021E30A05FC1308A0003B55A8021D
:1010F0008329C47E1B0A1500BB8A49032326547F1B
:10110000EF20D01C13050900EFF0DFC0EF20D01C4A
:10111000EF20901D930B05000315047C9305000040
:10112000378B0000EF204077930505000315247CE2
:10113000130C5BB0EF204076930505000315447C4B
:10114000EF208075930505000315847EEF20C074A1
:101150009B0905006384895963643C0BB72E00002A
:10116000138F2E8F6382E957B75700009382F7EAF7
:1011700063945920174500001305C5B3EF30800470
:10118000930F20006F00400A13081A00E31405EAC9
:101190009309007DBBDB09032324747F63140A02D7
:1011A0003B0C7903B38C8601233C947DE3080AEA67
:1011B0006FF01FEA930B007D2324747FE3000AEA9B
:1011C00013080A002338D47CE38A08E8130A0000D5
:1011D0006FF01FFD031F247C831F047C8335847DF7
:1011E0009B170F010325847EB3E2F7011B860200E3
:1011F00093060105EF0080530327047F6FF0DFE8BB
:10120000B79C0000138D2CA06386A94BB7FD00008E
:10121000138E5D9F6392C91717450000130505AD36
:10122000EF20507A930F300017F7FF0F032787DD69
:101230006308074C13931F0097430000938383FCBC
:1012400017490000130909FB97450000938585F9AC
:10125000338B6300B30A6900338A6500130D000005
:10126000130C0000930D00006F00C003B38DB44158
:1012700093954D00B304B4001386F47F835F960208
:101280001B0C1C0097F2FF0F83A2C2D7BB04FD0109
:10129000131D0C03135C0D039B0D0C00138D040038
:1012A00063705C0E93943D003386B4419316460000
:1012B0003309D4008327097FB7180000B38C2801B5
:1012C00013F8170023940C826308080203D62C82BB
:1012D00083560B006302D60293850D00174500006C
:1012E0001305C5A6EF20106E03D58C828327097FD6
:1012F0001B0E15002394CC8393FE270063820E04FB
:10130000338FB441931F4F003309F401B71200002B
:10131000B38C220103D64C8283D60A006302D60224
:1013200093850D0017450000130545A5EF20906932
:1013300003D78C828327097F1B03170023946C82B9
:1013400093F34700E38403F2B386B44193984600D5
:10135000330814013715000033090501035669826B
:1013600083560A006314D626835F89826FF05FF18B
:101370002338D47C6FF05FCD370B01009304FBFF63
:10138000EF2040748365847E3B099500174500007B
:10139000130545A5EF201063939A0B0293D50A021B
:1013A00017450000130585A5EF20D06113850B00BC
:1013B000EF20C0749305050017450000130585A5AF
:1013C000EF20506013850B00EF2040736314052A53
:1013D00013850B00EF208072930B900063F2AB2813
:1013E00017F3FF0F036303C28367C47E9B130901D6
:1013F00017450000130505A9B305F3021BDC0341E3
:10140000EF20505C97450000938545A917450000E3
:101410001305C5A9EF20105B97450000938585AAA9
:1014200017450000130505AEEF20D0599745000081
:101430009385C5AE174500001305C5AEEF20905843
:101440009385090017450000130545AFEF2090571D
:101450008329047F93F51900639E051817FEFF0F7B
:10146000032E4EBA032F047F937F2F00638A0F044D
:1014700063080E2A9309000093050000371B000043
:10148000939A3500338ABA40931C4A00330794017B
:10149000B30BEB0003D64B8217450000130505AED6
:1014A0009B841900EF20105217FEFF0F032E8EB5FC
:1014B00013990403935909039B850900E3E2C9FDCD
:1014C0000323047F93734300638A0304930D000096
:1014D00093050000371D0000630A0E08939735003E
:1014E0003386B74093164600B308D40033081D0175
:1014F0000356688217450000130545AAEF20904C5B
:101500009B851D0017FEFF0F032ECEAF139505031D
:10151000935D05039B850D00E3E2CDFD930B000079
:1015200093050000371B000063020E04939E3500F4
:10153000338FBE40931F4F00B302F401B30A5B0028
:1015400003D60A8217450000130545A71B8A1B0016
:10155000EF20504717F7FF0F0327C7AA931C0A0372
:1015600093DB0C039B850B00E3E2EBFC63020C0EA8
:10157000635A8013174500001305C5B1EF2090444E
:101580001305A107EF20405A1301010D8330817E1E
:101590000334017E8334817D0339017D8339817C6D
:1015A000033A017C833A817B033B017B833B817A55
:1015B000033C017A833C8179033D0179833D817845
:1015C000130500001301017F6780000093850D0063
:1015D000173500001305057EEF20D03E035E89829B
:1015E0009B0E1E00139F0E03935F0F032314F983BA
:1015F0006FF01FC917FEFF0F032ECEA0E3040EE607
:10160000930D000093050000371D00001396350070
:10161000B306B640939846003308140133050D0114
:10162000035625821745000013054593EF20903996
:101630001B8E1D00931E0E0317FEFF0F032E8E9CA4
:1016400093DD0E039B850D00E3E2CDFD6FF09FE17E
:101650001745000013058598EF20D0366FF05FF234
:10166000173500001305057EEF20D0351B09190042
:101670006FF01FD7032AC47E97FCFF0F83AC8C98B2
:1016800013850B00EF208047BB844C031307050034
:101690001735000013058579BBD5E402EF209032A1
:1016A0006FF01FD31745000013054598EF209031C8
:1016B0006FF01FED1735000013054559EF209030EE
:1016C000930F00006FF05FB6173500001305056536
:1016D000EF20502F930F40006FF01FB5173500001B
:1016E0001305455AEF20102E930F10006FF0DFB353
:1016F000130660062320047C2312C47C6FF01F9124
:10170000930400006FF0DFC7B7331534938453415F
:10171000930560062320947C2312B47C6FF01F8F06
:1017200093724F00E38C02DE6FF05FE41308050054
:1017300063140600130610009388F5FF93F388FFE7
:1017400013838300930700006304082C13850700AC
:101750009B8717003B87F7029B123700E3E802FFE5
:10176000BB0FA50293950F0293DFF501B308F301B8
:10177000630A052A93020500130101FD2334810247
:1017800023309102233C21012338310123344101CC
:10179000233051011B0E1500930E0000930510001D
:1017A0003304BE4093743400138F05006388040E25
:1017B00013091000638E2409930920006386340501
:1017C0003B0AB6029B8AF5FF93970A0213D7F701EB
:1017D000B383E8003304E3001B56FA411B580601AB
:1017E000BB04480113990403935909033B8609413B
:1017F0003B0AB600BB0ABA002390430193F7FA0FE5
:101800002310F4009B8515003B04B6021B87F5FFEF
:101810009313070213D6F301B384C8003309C3003E
:101820001B58F4419B5908013B8A8900931A0A030B
:1018300093D70A033B8637413B04B6003B07B4000D
:10184000239084009373F70F231079009B85150074
:101850003B06B6029B84F5FF139904021358F90165
:10186000B3890801330A03019B5AF6419BD70A0149
:101870003B84C70013170403935307033B86F340CD
:10188000BB04B6003B89B400239099001378F90F8C
:1018900023100A019B8515006384C5133B06B6021D
:1018A0001B8915001B04F9FF131704021354F701D9
:1018B0009B89F5FF139A09029357FA01B38AF8003E
:1018C000330AF3009B54F6411BD704013B06C700C3
:1018D0009319060393D709033B86E7403B0726038A
:1018E000BB07B6002390FA00BB85B70013F6F50FCF
:1018F0002310CA009B0319001B881300B3898800BA
:101900009B84F3FF9B57F7419BD707013B87E70079
:1019100013160703135706033B06F740BB0776026F
:101920003B0726012390E9009B05F8FF3B092701AF
:10193000139A04029354FA01139A05029355FA017B
:10194000B30A83001BD6F7411B570601BB07F700FC
:10195000137AF90F1399070323904A01135A0903C5
:101960003B07EA403B060703BB0777003384980038
:10197000BB8377002310F400B304930013F9F30F33
:1019800023902401B389B800B30AB3001B54F64175
:101990009B5404013B8AC40013170A031356070320
:1019A0003B069640BB0706019B0518003B880701D4
:1019B0002390F9009379F80F23903A01E390C5EF53
:1019C0009B8E1E00BB05E5013B0EC501E39AAEDC14
:1019D000338FF801930FFFFF0334810293F58FFFDC
:1019E000938A850023BC560123B4660023B81601F0
:1019F00023A0560083340102033981018339010198
:101A0000033A8100833A010013010103678000005B
:101A10009302F0FF9388A30013850200930F200028
:101A20006FF09FD5130E0000B38EC801138FFEFF19
:101A300013788FFF130600009303880023BC760001
:101A400023B4660023B8160123A0C60067800000F7
:101A50006302051693170502130101FF93D2E701F4
:101A60002334810023309100B3825500130F050009
:101A7000930F00003308FF411373380013870600EB
:101A800093870F00130E00006300030893081000F3
:101A900063081305930320006302730213970F0278
:101AA0001354F701B3048600039E0400839E0600CE
:101AB0009B871F00138726003B0EDE031398070247
:101AC0001353F801B308660003140700839308005A
:101AD0009B87170013072700BB8483023B8EC4013A
:101AE000939E070213D8FE013303060183180700F3
:101AF000831303009B871700130727003B841303FE
:101B00003B0EC4016306FF089B83170093940702F2
:101B10001393030293DEF4019358F3019B871300A0
:101B20003308D60193940702330416019B871700EC
:101B30008313070093DEF4010313080083180400E5
:101B400013940702831427003308D601935EF4012F
:101B50000318080003144700B30ED6013B037302B9
:101B6000839E0E00831367009B871700130787006F
:101B7000BB8898023B0EC301BB0488023B88C801A6
:101B80003B847E023B8304013B0E6400E31EFFF6B0
:101B900023A0C50193854500BB0FF5013B0FE5016F
:101BA000E39AB2EC03348100833401001301010194
:101BB000678000006780000063020520130101FDBB
:101BC0002334810223309102233C21012338310147
:101BD0002334410123305101930F0500930200008B
:101BE00093030000130F0000BB0E5F0093970E02DB
:101BF00033875F4013D3E70113743700B38E65005A
:101C00009387020013030F00130E00006302040AFF
:101C1000130810006304040793042000630894026F
:101C20009398020293190F0213D9F80113DAF901FC
:101C3000B30A260133874601039E0A0003140700F6
:101C40009B8712003B03E5013B0E8E0213980702AF
:101C5000931803029354F80113D9F801B3099600BD
:101C6000338A2601839A090003170A009B8717000D
:101C70003B0365003B84EA023B0EC4011398070254
:101C8000931803029354F80113D9F801B30996008D
:101C9000338A2601839A090003170A009B871700DD
:101CA0003B0365003B84EA023B0EC4016384FF0CE6
:101CB000931803023B0A6500139807021B8917005B
:101CC00093D9F8019354F8013383360113170902AD
:101CD000BB09450113140A02B30A9600031A030054
:101CE0001358F7019354F401139309029B07190049
:101CF00033879600139907029354F30183980A00DF
:101D00003B033501B30A06019B8717001354F90101
:101D100003980A0033899600939A070293140302EA
:101D2000831907003307860013D4FA0193DAF4010C
:101D3000031707000319090033048600B384560112
:101D4000BB884803839A0400031A04009B8717008A
:101D50003B0365003B0838033B8EC801BB092703E2
:101D60003B07C8013B095A033B84E9003B0E89004D
:101D7000E390FFF423A0CE019B0E1F006306D50164
:101D8000138F0E006FF05FE6BB025500BB0FF5012D
:101D90006386E3019B8313006FF0DFE40334810269
:101DA000833401020339810183390101033A81003F
:101DB000833A01001301010367800000678000007F
:101DC00063080528130101FD2334810223309102A9
:101DD000233C2101233831012334410123305101B7
:101DE000930F05009302000093030000130F0000FF
:101DF000BB0E5F0093970E0233885F4013D3E70159
:101E000013743800B38E650013070F009387020028
:101E1000930400006300040E930810006308140983
:101E200013092000630224059394020293190F0200
:101E300013D7F40113DAF901B30AE600338E460131
:101E400003980A0003130E009B8712003B07E5016D
:101E50003B046802931444039318A40313D9C803E2
:101E600093D99403BB043903139A0702131E070284
:101E7000935AFA011353FE01330856013384660066
:101E800003190800831804009B8717003B07E5002F
:101E9000BB091903139AA903139E4903935ACA0352
:101EA00013539E033B886A02BB04980013940702F5
:101EB000931807021359F40193D9F801330A260144
:101EC000B38A3601031E0A0003930A009B8717009A
:101ED0003B07E5003B086E021314A8039318480360
:101EE0001359C40393D998033B0A3903BB049A00DE
:101EF000638CFF10939A0702131307029B87170046
:101F00003B07E50013DEFA0113940702931A070258
:101F10003B07E5001B8A17001358F3013309C6017C
:101F20009359F40193D7FA0113140702B3880601F9
:101F3000330E36013388F6009359F4019B071A00DB
:101F4000031309003B07E50013190A02839A0800EE
:101F500003140E009358F901139E070233893601CA
:101F600093190702031A0800B30816011358FE015B
:101F700013DEF901338EC601831909008398080026
:101F8000330906013B03530303180900831A0E00AB
:101F90009B8717003B07E5003B04440313194303E9
:101FA000131AA303135ECA0313599903BB8838039A
:101FB0009319A4031314440313D3C90313549403B0
:101FC0003B085803139A4803939AA80393D9CA036A
:101FD00093589A033B0E2E031319A80313184803B2
:101FE000935AC903135A98033B038302BB049E0010
:101FF0003B841903BB099300BB884A033B0E3401A1
:10200000BB84C801E398FFEE23A09E009B0E1F0037
:102010006306D501138F0E006FF09FDDBB025500E4
:10202000BB0FF5016386E3019B8313006FF01FDC98
:1020300003348102833401020339810183390101B0
:10204000033A8100833A0100130101036780000015
:1020500067800000130101F9233081062334310524
:102060002330410523341106233C910413840500D9
:1020700093090600138A0600E30805282338210582
:1020800037F9FFFF233C51032338610323347103E5
:10209000930A0700336927019306050093050000A2
:1020A000130B00003387B6409372770093870500C7
:1020B000638E020E13061000638AC20C1303200005
:1020C0006388620A93033000638672081308400035
:1020D000638402079308500063821205930B60002B
:1020E000638072039397050213DEF701B38EC90173
:1020F00003DF0E009B871500BB0F5F012390FE01DD
:102100009394070213D7F401B382E90003D60200C7
:102110009B8717003B0356012390620093930702AD
:1021200013D8F301B388090183DB08009B871700EC
:102130003B8E5B012390C801939E070213DFFE01D3
:10214000B38FE90183D40F009B8717003B875401AD
:102150002390EF009392070213D6F2013383C90054
:10216000835303009B8717003B885301231003010F
:102170009398070293DBF801338E7901835E0E009A
:102180009B8717003B8F5E012310EE01939F070290
:1021900093D4FF0133879900835207009B87170070
:1021A0003B8652012310C7006384F60E1398070282
:1021B0009354F801B38E990083D30E009B821700CD
:1021C0009398020293D7F801BB8F53012390FE012D
:1021D0003383F900035F03001B8712001316070205
:1021E000935BF6013B0E5F012310C301B3847901B9
:1021F00003D804009B0E170093930E0293D2F301B1
:10220000BB08580123901401B38F590003D30F006A
:102210009B871E00139F07021357FF013B065301C4
:102220002390CF00B38BE90003DE0B009B841700E3
:1022300013980402BB035E01935EF80123907B00B8
:10224000B382D90183DF02001B83140093180302B9
:1022500093D7F8013B8F5F012390E2013387F900A8
:10226000035607009B071300939B07023B0E560182
:1022700093D4FB012310C7013387990083520700D1
:102280009B8717003B8652012310C700E390F6F2AC
:102290009B041B00BB05B500BB06D500630695007B
:1022A000138B04006FF01FE09386040013060000F8
:1022B000930500003385C64013737500930706002D
:1022C0006308031493031000630E731013082000B7
:1022D0006306030F93083000630E130B930B40004B
:1022E00063067309130E5000630EC305930E60005E
:1022F0006306D303131F0602935F0F0213971F0099
:10230000B382E9000395020013932F00B303640026
:102310003B0855039B07160023A00301939807026F
:1023200093DB0802139E1B00B38EC901039F0E00AE
:10233000939F2B003307F401BB025F039B871700B9
:10234000232057001395070213530502931313001C
:102350003388790083180800931B2300330E74011F
:10236000BB8E58039B8717002320DE01139F0702B3
:10237000935F0F0213971F00B382E90003950200D9
:1023800013932F00B30364003B0855039B8717008A
:1023900023A003019398070293DB0802139E1B00FE
:1023A000B38EC901039F0E00939F2B003307F401E6
:1023B000BB025F039B87170023205700139507027A
:1023C0001353050293131300338879008318080010
:1023D000931B2300330E7401BB8E58039B87170099
:1023E0002320DE01139F0702935F0F0213971F0044
:1023F000B382E9000395020013932F00B303640036
:102400003B0855039B87170023A003016384D7165D
:1024100023308103233C91012338A1012334B101EE
:102420009B8C1700139C07029B8D1C00135F0C02F2
:10243000139D0C029B8B1D00935E0D0293980D0261
:1024400093121F009B871B0013DE0802939F0B0251
:10245000139C1E0033855900831D05009B831700C4
:1024600013D30F0213970702131D1E00B38B8901AC
:102470009B8C1300935807029312130013980302C6
:10248000B383A901039D0B00939F0C029B871C0043
:10249000139C1800839C0300B38B59001358080247
:1024A00013D50F02BB8D5D03B38F8901139707020C
:1024B000039C0B0093131800839B0F001357070214
:1024C00093121500B3837900839303003B0D5D03E2
:1024D000931F1700B382590083920200B38FF90152
:1024E000839F0F00131F2F00330FE401939E2E00D4
:1024F0002320BF01BB8C5C03131E2E00B30ED4013E
:1025000023A0AE0113132300B30DC401330D6400E7
:102510009398280013182800330F14013B0C5C0318
:1025200023A09D0113152500330E04011317270066
:10253000B30EA4003303E4009B871700BB8B5B033F
:1025400023208D01BB83530323207F01BB825203D1
:1025500023207E00BB8F5F0323A05E002320F301B6
:10256000E390D7EC033C0102833C8101033D010170
:10257000833D81003B86C400BB86D4006386650131
:102580009B8515006FF01FD393850400130800008E
:102590001306000013070000130500009308000055
:1025A000B387054113FF370093070800630E0F0838
:1025B000130E10006300CF07930E20006306DF03A5
:1025C00013130802935BE301B30374019302060043
:1025D00003A603003B07C7006350E9181B05A500CD
:1025E000130700009B0718009396070213DFE6010C
:1025F000330EE401930E060003260E003B07C700CE
:102600006356E9149B0BA5001307000013850B000C
:102610009B8717009393070293D2E301B30F5400F3
:102620009306060003A60F003B07C700635AE91094
:102630001B0EA500130700001B150E019B8717003A
:102640001B5505416380B70A939B070213DEEB011C
:10265000B30EC40183A30E003B077700634CE90C63
:10266000B3267600BB82A6009B871700139507024E
:102670001353E50133066400832F06003B0FF70177
:102680006352E9099B8E170093930E0293D6E301E0
:102690001B8EA200B302D40003A50200130F00009A
:1026A0003B07AF006352E9089B0FAE001307000021
:1026B0009B871E00139307021356E301330FC400D8
:1026C00003260F003B07C7006358E9021B8EAF00CB
:1026D0001B150E019B871700130700001B550541B2
:1026E000E394B7F6BB85F4003B880401630C1B0739
:1026F0009B8818006FF0DFEAB32BC5003B8EFB010F
:102700006FF09FF39B8E1700B3ABF30193930E0210
:1027100093D6E3013B8E5B00B302D40003A5020015
:102720003B07AF00E342E9F8B3A7AF00BB8FC70197
:102730006FF01FF89B02A500130700006FF0DFF297
:1027400033AFC6003B0EAF006FF01FEF33A3CE00D8
:10275000BB0BA3006FF09FEBB3AFC2003B85AF0094
:102760006FF05FE893050000EF1000131386090077
:1027700093050400930B050093060A0013850400DB
:10278000EFF00FAD9385040013080000130600005E
:1027900093070000130500009308000033870541EC
:1027A000137E370013070800630E0E08930E100007
:1027B0006300DE071303200063066E029313080212
:1027C00093D2E301B30F54009306060003A60F0053
:1027D000BB87C7006350F9181B05A50093070000CD
:1027E0001B071800131E0702935EEE013303D4018A
:1027F0009303060003260300BB87C7006356F91442
:102800009B0FA5009307000013850F001B071700FF
:102810009316070213DFE601330EE401930E060060
:1028200003260E00BB87C700635AF9101B0FA500D3
:10283000930700001B150F011B0717001B550541CF
:102840006300B70A9313070293D2E301B30F540056
:1028500003AF0F00BB86E701634CD90C332EE601B2
:10286000BB0EAE001B071700131507021353E5013B
:102870003306640083230600BB8776006352F908A1
:102880001B0F1700131E0F029B8FAE00935EEE010D
:10289000B306D40103A5060093070000BB87A70079
:1028A0006352F9089B83AF00930700001B071F00CA
:1028B000131307021356E301B302C40003A6020078
:1028C000BB87C7006358F9021B8FA3001B150F01BC
:1028D0001B071700930700001B550541E314B7F6CB
:1028E000BB85E4003B880401638C68079B88180063
:1028F0006FF0DFEAB32FC5003B8F7F006FF09FF3CF
:10290000B3227F001B0F1700131E0F02BB8FD201D3
:10291000935EEE01B306D40103A50600BB87A700B2
:10292000E342F9F833A7A300BB03F7016FF01FF8E8
:102930009B0EA500930600006FF0DFF233A3CE00DC
:102940003B0FA3006FF01FEFB3A2C300BB8FA20029
:102950006FF09FEB33AFC6003B05AF006FF05FE851
:1029600093850B00EF005073130B050093060A00CC
:10297000138504001386090093050400EFF0CFA32C
:10298000930B0000130F0000130300001305000059
:1029900093080000930600006F0080013B8EAE009C
:1029A0001B170E019B8616001B55074163F096040A
:1029B0003B8676019317060293D3E701B3027400B6
:1029C000930F0F0003AF02001B0EA5003B036F0027
:1029D000B3AEEF01E35469FC1B170E019B86160092
:1029E000130300001B550741E3E496FC9B88180085
:1029F000BB8B7401E3E098FA93050B00EF00D069FC
:102A000093050400130B050093060A0013850400C8
:102A100013860900EFF0CFBA1308000093050000F9
:102A2000130E00001305000013030000930E0000B6
:102A30006F008001BB0FAF001B950F019B8E1E0026
:102A40001B55054163F09E043B0AD80113160A0288
:102A50009357E601B303F4009382050083A50300B6
:102A60009B0FA5003B8EC50133AFB200E354C9FDF7
:102A70001B950F019B8E1E00130E00001B55054178
:102A8000E3E49EFC1B0313003B089800E36093FA09
:102A900093050B00EF0050601307000013060000C1
:102AA000130400003B09E4009316090293D8F601D1
:102AB000B38B190103DB0B001B0414003B0A5B41C1
:102AC00023904B01E36094FE1B0616003B87E40055
:102AD000E36896FC03390105833A8103033B010354
:102AE000833B810283308106033401069B17050175
:102AF0008334810583398104033A01041BD50741DE
:102B0000130101076780000093050000EF00D05813
:102B100093060A0013860900930405009305040038
:102B200013050000EFE0DFF29385040013050000B9
:102B3000EF00905693060A001386090093040500DF
:102B40009305040013050000EFF00F879385040040
:102B500013050000EF005054930405009305040092
:102B600093060A001386090013050000EFF04FA535
:102B70009385040013050000EF0010526FF09FF6DC
:102B8000130101FF23308100833605011304060081
:102B9000138705000336850083358501032505006D
:102BA00023341100EFF00FCB930504000334010030
:102BB00083308100130101016F00104E1B03F5FFEC
:102BC000930E100063FC6E169B8515001398050389
:102BD000130101FF135808032334810023309100AF
:102BE000130E70009314B8039376780093070000D7
:102BF0001724000013040462930840009723000088
:102C000093834363972200009382C264972F00004E
:102C1000938F4F66130FC00213D7E4036386C60B6E
:102C200063E4D8109B86D6FF9394060393D50403E0
:102C30001317370063E2BE0EB384E20083B60400CC
:102C4000130780009B851700BB85E50063FC6508C2
:102C500083C406009397070293D70702B307F600D1
:102C60002380970083C416001B081800131808035C
:102C7000A380970083C4260013580803238197007C
:102C800083C43600A38197006302170383C4460000
:102C90002382970083C45600A382970083C46600F2
:102CA0002383970083C67600A383D7003387E7008A
:102CB0002300E7019314B803937678009387050007
:102CC00013D7E403E39EC6F593153700B306B400AB
:102CD000130780009B851700BB85E50083B60600BF
:102CE000E3E865F663F2A70213940702935804021F
:102CF000330E16013B86C74123000E00130E1E0043
:102D0000BB0ECE00E3EAAEFE033481008334010043
:102D10001301010167800000B386EF0083B606004F
:102D2000130740006FF01FF293143700B385930030
:102D300083B60500130780006FF0DFF093070000F3
:102D40001397070293520702B30356003B83774061
:102D50002380030093831300BB866300E3EAA6FE8F
:102D6000678000000337050013060500834707004E
:102D7000638607269306C00213050000638CD71CE8
:102D80001308E002638C071D636CF8021B8F57FD6C
:102D9000937FDF0F63860F1E83AF450083A205007C
:102DA000130717001B831F001B85120023A0A5001B
:102DB00023A26500130510002330E60067800000A1
:102DC0001B8307FD9373F30F93089000E3E678FCF1
:102DD00003AE0500930717009B0E1E0023A0D5012C
:102DE000034717006306071E630ED71E1308E00291
:102DF000630407051B0F07FD937FFF0F130590006A
:102E00006372F50383A205011387170013051000F1
:102E10009B87120023A8F5002330E600678000009E
:102E200023A4D50103C71700938717006302071A6D
:102E30009306C0026FF05FFB03A305019B03130021
:102E400023A8750003CE17009387170063040E12A2
:102E50009306C002630CDE0E9378FE0D930E5004B1
:102E60006392D80D03A54501138717009B03150036
:102E700023AA750003CE170063080E1A9308C00238
:102E8000630A1E1703A7C5009B065EFD93FED60FBF
:102E90001B08170023A6050163900E0803CF270027
:102EA00013872700630E0F1463001F1783AF85017C
:102EB0009B020FFD13F3F20F1B851F00930E900072
:102EC00023ACA50063FA6E001387370013051000CA
:102ED0002330E6006780000093030700034E1700CD
:102EE000130717009308C0029B070EFD93F6F70F18
:102EF00063020E1263041E13E3F0DEFE03A8450016
:102F000013872300130510001B0F180023A2E501EF
:102F10002330E600678000001387270013051000A8
:102F20006FF09FE91B080EFD137FF80F930F9000C1
:102F3000E3FAEFF183A24501138717001305100090
:102F40001B83120023AA65006FF01FE71387070099
:102F500013055000130717006FF01FE603A50500C7
:102F6000930717009B02150023A05500034E17007E
:102F7000E3120EEE13870700130550006FF0DFE336
:102F800003A50500930717009B02150023A0550019
:102F900003431700630E03086302D30A83A385006B
:102FA0009B0603FD13FEF60F930890009B8E130003
:102FB000E3F8C8E7630A030123A4D5011307270038
:102FC000130510006FF05FDF23A4D5016FF09FE7BA
:102FD00013870700130540006FF01FDE1305000084
:102FE0006FF09FDD138707001305400013071700DC
:102FF0006FF09FDC13053000130717006FF0DFDB65
:10300000130560006FF05FDB130560001307170006
:103010006FF09FDA130570006FF01FDA1305700070
:10302000130717006FF05FD9130530006FF0DFD87A
:1030300013870700130520006FF01FD813870700C0
:1030400013052000130717006FF01FD7130101F6B7
:10305000233881082334910823302109233C310788
:10306000233841072334510723306107233C71057E
:1030700023388105233C11089384050083C505008E
:103080002334910023380102233C01022330010440
:103090002334010423380100233C010023300102C2
:1030A0002334010213890700130C0500930B06005B
:1030B000138B0600930A070093090103130401010F
:1030C000130A8100638005129385090013050A0025
:1030D000EFF05FC99317050213D7E701B303870029
:1030E0008336810003A5030003C606001B081500F4
:1030F00023A00301E31A06FC93180C0213DE080256
:1031000023349100338CC40163F88403938F04004B
:10311000130AC00283CE0F0033CF7E0163844E01B9
:103120002380EF01B38F5F01E3E68FFF83C50400C7
:10313000130A8100638A05029385090013050A00BA
:10314000EFF05FC29312050213D3E201330783004D
:10315000833381008327070083C603001B85170084
:103160002320A700E39A06FC1306C00263FE840135
:1031700003C80400B34B68016304C80023807401D2
:10318000B3845401E3E684FF938A09000325040015
:103190009305090013044400EF00002E9305050079
:1031A00003A50A00938A4A00EF00002D13090500C9
:1031B000E31E34FD8330810903340109833481081F
:1031C0000339010883398107033A0107833A8106ED
:1031D000033B0106833B8105033C01051301010A02
:1031E000678000009312050213D30202338C64003F
:1031F000E3EE84F16FF05FF99307500063E6A704F4
:10320000172700001307070913152500B302E5006F
:1032100003A30200B303E3006780030003A5018159
:103220006780000003A5C1816780000003A581813C
:103230006780000017D5FF0F032505DD67800000BC
:1032400003A541816780000013050000678000002E
:1032500093F7F50F9392870093D5850037170000F9
:1032600037F3FFFFB3E3B200930FF7F09302030FBE
:1032700033F6F301B3F653001B1846009BD8460003
:10328000937EF500137F050FB7370000B7D5FFFF1A
:10329000938337331383C5CC336E18011B974E00CD
:1032A0009B564F0033786E00B368D70033767E00AC
:1032B0001B1E26009B5E280093F7380313F7C80CEB
:1032C000B7550000B7B6FFFF336FDE019388555541
:1032D0001388A6AA1B9E27009B5E2700B3771F01B9
:1032E00033760F013367DE019B5616009B9517005E
:1032F000137F5705137EA70AB3EED5001B561E0099
:103300009B171F0033EFC7001BD78E00334EE7011A
:10331000B3E5D50097270000938747F993161E0061
:10332000B38EF60003D70E001B9685001B55850053
:10333000334FC700137EF70F93150F0393DE8503FA
:1033400093168E0033E7D6013376F701337F5700AB
:103350001B1E46009B554F00B36EBE00B3F67E00A9
:1033600033F76E001B9F26001B562700336ECF00DD
:10337000B3751E01B37E0E011B9715009BD61E0070
:10338000336FD7001376FF0F131E860093558F00FF
:10339000B36EBE0033F7FE0133FF5E001376F50017
:1033A0009B1647001B5E4F00B3EEC6019B154600FF
:1033B0001355450033E7A50033FF7E0033FE6E0052
:1033C000937637031B552E001376C70C9B152F00E1
:1033D00033EFA5009B9E26001B57260033EEEE0020
:1033E00033761F01B3750F01937E5E051BD5150063
:1033F0009376AE0A1B1716003366A7001B9F1E00AC
:103400001BDE1600B365CF019B5E8600B3C6BE000F
:1034100013971600B307F70003D507001B1F86009C
:10342000334EE5019375F50F13160E03935E860375
:1034300093968500B3E7D601B3FFF701B3F25700C7
:103440001BD542001B974F00336FA700B3737F005B
:1034500033736F001B9E23009B5523003366BE0011
:10346000B3781601337806019B9E18009B5618000E
:1034700033E5DE006780000093F7F50F9392870035
:1034800093D5850037170000B7F8FFFF9303F7F0D7
:1034900033E3B2009382080FB376730033765300A0
:1034A0001B9846001B5E4600137FF500937F050FB7
:1034B000B7370000B7D5FFFF93883733B36EC80125
:1034C0001B174F001388C5CC1BD64F0033F31E01CA
:1034D000B3F60E01B36EC7001B1E23001BDF2600D0
:1034E00093F73E0313F7CE0CB755000037B6FFFF36
:1034F00093865555B36FEE019305A6AA1B9E270030
:103500009B5E270033FFDF0033F3BF00B36FDE01A4
:103510001B5713009B171F0013F65F0513FEAF0A1E
:10352000B3EEE7001B531E001B1F160033666F002F
:103530009BDF8E0033CECF00B3E7E70013171E00EA
:10354000172E0000130E8ED6B30EC70183DF0E00B8
:103550001B9387001B5F8500B3C76F00139707039A
:1035600013F6FF0F935E8703931F8600B3E7DF0117
:1035700033F3770033F657001B1743009B5E46007A
:10358000B36FD701B3F71F0133F30F011B96270069
:103590001B572300B36EE600B3FFDE00B3F7BE0097
:1035A0001B931F001BD617003367C300937EF70FD2
:1035B000939F8E009357870033E3FF0033777300A8
:1035C000337653009B1E47009B5F46001373FF003A
:1035D000137F0F0FB3E7FE011B1743001B564F006D
:1035E000B3FF1701B3FE0701B367C7001B932F009A
:1035F0001BDF2E0093FF370313F6C70C3367E3017D
:103600009B9E2F009B572600337FD7003373B70054
:1036100033E7FE001B161F009B571300937F5705CF
:10362000937EA70A336FF6001B931F001BD71E0063
:10363000B36EE3009B5F8F0033CFDF01B367F6000B
:1036400013161F003303C601035703009B9F870017
:103650009B5E0501334FF70113160F039377F70FA6
:103660001353860313978700B36F670033FF7F0000
:10367000B3F75F001B134F001BD647003367C3002F
:10368000B37F1701337F07019B972F001B532F0038
:1036900033E667003377D600B37FB6001B1F1700F1
:1036A0009BD71F003363FF001376F30F13178600B9
:1036B000935F8300336FF701B3777F0033735F004D
:1036C0001B9647001B57430013FFFE0093FE0E0F8F
:1036D000B36FE6009B174F001BD34E0033F71F015B
:1036E00033F60F01B3EF67001B1F27009B5E260018
:1036F00013F73F0313F3CF0CB367DF011B1627004B
:103700009B5F230033FFD700B3FEB700B367F6011A
:103710001BD31E0093FF57051B171F0013F6A70AA4
:10372000336F67009B9E1F009B57160033E6FE0019
:103730009B5F8F0033CFCF00931E1F00B387CE0156
:1037400083DF0700336767001B13870033CF6F00E9
:10375000931E0F0313F6FF0F93D78E03931F86005C
:1037600033E7FF0033737700337F57009B1E43001E
:103770001B564F00B3E7CE00B3FF170133F7070125
:103780001B9F2F001B532700B36E6F00B3F7DE00A3
:1037900033F6BE009B9F17001B57160033EFEF0058
:1037A0001373FF0F931E830093578F0033E6FE00C1
:1037B000B37F7600337756001B558501137FF500E4
:1037C0001B5347009B9E4F00B3EF6E009B174F00AB
:1037D0001356450033E5C70033F71F0133FF0F01D0
:1037E000937735039B5E2F00937FC50C1B13270037
:1037F0003367D3011BD52F001B962700B367A600A4
:10380000B37FD7003373B70093FEA70A1B5713008B
:1038100013FF57051B951F00B36FE5009B171F0093
:103820001BD61E0033E3C7001BDF8F00B34E6F00B3
:1038300013951E00330EC50103570E009B978F0092
:10384000B34FF7001376F70F13930F03135F830340
:10385000931E860033E5EE01B3737500B372550015
:103860001B9E43001BD74200B36FEE00B3F81F014D
:1038700033F80F019B9728001B56280033E3C7003D
:10388000B376D300B375B3001B9F16009BDE150003
:103890003365DF016780000093F7F50F939287008F
:1038A00093D585003717000037F3FFFFB3E3B2006D
:1038B000930FF7F09302030F33F6F301B3F65300BF
:1038C0001B1846009BD84600937EF500137F050F1A
:1038D000B7370000B7D5FFFF938337331383C5CCC9
:1038E000336E18011B974E009B564F0033786E00C5
:1038F000B368D70033767E001B1E26009B5E28002F
:1039000093F7380313F7C80CB7550000B7B6FFFF9D
:10391000336FDE01938855551388A6AA1B9E270096
:103920009B5E2700B3771F0133760F013367DE01FB
:103930009B5616009B951700137F5705137EA70A09
:10394000B3EED5001B561E009B171F0033EFC700B8
:103950001BD78E00334EE701B3E5D5009727000053
:103960009387C79493161E00B38EF60003D70E00FC
:103970001B9685001B558500334FC700137EF70F3C
:1039800093150F0393DE850393168E0033E7D6015C
:103990003376F701337F57001B1E46009B554F00BF
:1039A000B36EBE00B3F67E0033F76E001B9F260099
:1039B0001B562700336ECF00B3751E01B37E0E0178
:1039C0001B9715009BD61E00336FD7001376FF0F91
:1039D000131E860093558F00B36EBE0033F7FE01B1
:1039E00033FF5E001376F5001B5E4F001375050F65
:1039F0009B16470033E7C6019B1546009B5E4500BA
:103A000033EFD50133757700337E670093763F033C
:103A10009B5E2E001376CF0C9B15250033E5D50158
:103A20001B9726001B5F2600336EE70133761501D6
:103A3000B3750501937E5E051BD515009376AE0A1E
:103A40001B1716003366A7001B9F1E001BDE160007
:103A5000B365CF019B5E8600B3C6BE001397160008
:103A6000B307F70003D507001B1F8600334EE5019F
:103A70009375F50F13160E03935E860393968500D8
:103A8000B3E7D601B3FFF701B3F257001BD54200ED
:103A90001B974F00336FA700B3737F0033736F0022
:103AA0001B9E23009B5523003366BE00B37816018E
:103AB000337806019B9E18009B56180033E5DE0004
:103AC000678000001305000067800000F32700B046
:103AD00023A6F18067800000F32700B017C7FF0F0F
:103AE0002326F7526780000017C5FF0F03250552F4
:103AF00083A7C1803B05F54067800000B797F905B3
:103B0000131505021393570093520502930353F5BF
:103B1000B385720213D595036780000093071000E8
:103B20002300F50067800000230005006780000087
:103B3000130101FA233C81042338910413F807048C
:103B4000971F0000938F8F6463060800971F000083
:103B5000938F4F6693F207016394021613F41700D4
:103B6000630E0458130F000313F3270093F30702A7
:103B70006304031663CA055A93F44700639004561E
:103B800093F7870093040000638607009B86F6FF87
:103B900093040002638C030093030001630A765AC6
:103BA0009308800093030002630E16556390054E40
:103BB000930500032304B100930E000013081000C6
:103BC00093078100930F08006354E800930F0700E8
:103BD000BB86F641138E0F00631604106352D0109B
:103BE00013940602935504029B86F6FF93980602EF
:103BF00093FF750093D608023303B50093080002C3
:103C00009305050063840F0613041000638A8F0474
:103C10001304200063828F0413043000638A8F0230
:103C20001304400063828F0213045000638A8F00E4
:103C30001304600063908F54238015019385150051
:103C400023801501938515002380150193851500A8
:103C50002380150193851500238015019385150098
:103C600093851500A38F15FF6386650223801501D8
:103C7000A380150123811501A3811501238215015C
:103C8000A382150123831501A38315019385850064
:103C9000E39E65FC130515003305D50063940442CB
:103CA000638A030093048000630A964E9303000125
:103CB000630E7644333650009306E6FF6F00C00F64
:103CC00093F7E7FF13F3270013040001130F00021B
:103CD00093F30702E31003EA930400006FF09FEBF5
:103CE0009B86F6FF638604002300950013051500EC
:103CF000638A0300930F80006302F64713030001F9
:103D000063086640639A020A635AD04A9392060295
:103D100093D60202130605003305D500B304C5404F
:103D200093F3740063840306930F1000638AF30512
:103D3000130320006382630493083000638A130333
:103D4000130440006382830293055000638AB3002A
:103D500093026000639653422300E60113061600A7
:103D60002300E601130616002300E60113061600E1
:103D70002300E601130616002300E60113061600D1
:103D800013061600A30FE6FF6306A6022300E60152
:103D9000A300E6012301E601A301E6012302E601F7
:103DA000A302E6012303E601A303E601130686004E
:103DB000E31EA6FC9306F0FFBB04C5016356E80EA4
:103DC000134FF8FF13061500B3039F00930F000372
:103DD0003B83A340A30FF6FF3B84C440937873005A
:103DE0006354880A9B850800638A080693021000C2
:103DF000638E5504130F20006386E505930330009E
:103E0000638E75021303400063866502130450003D
:103E1000638E8500930860006386150113062500F4
:103E2000A300F5012300F601130616002300F60196
:103E3000130616002300F601130616002300F601F0
:103E4000130616002300F6011306160013061600CB
:103E5000BB85C440A30FF6FF6358B8022300F601E8
:103E6000A300F6012301F601A301F6012302F601E6
:103E7000A302F6012303F60113068600BB82C440A9
:103E8000A30FF6FFE34C58FC93040000635AE800CC
:103E90003B070E411B08F7FF131E080293540E0246
:103EA000938F14003305F501138F1E0093737F0069
:103EB0003387D7013304E50193070500638C0308BA
:103EC00013031000638E63069308200063821307B8
:103ED000130630006386C30493054000638AB3026F
:103EE00093025000638E530013086000639E031F0B
:103EF00083440700938717001307F7FFA38F97FEEC
:103F0000834F0700938717001307F7FFA38FF7FF6F
:103F1000034F0700938717001307F7FFA38FE7FFEF
:103F200083430700938717001307F7FFA38F77FEDC
:103F300003430700938717001307F7FFA38F67FE5C
:103F400083480700938717001307F7FFA38F17FF16
:103F500063888704834507008342F7FF8344E7FFB4
:103F6000034ED7FF834FC7FF034FB7FF0348A7FF99
:103F7000034697FF2380B700A38057002381970053
:103F8000A381C7012382F701A382E70123830701ED
:103F9000A383C70093878700130787FFE39C87FAF3
:103FA000B30ED50113841E00130504006354D00C16
:103FB0009B83F6FF13930302935803021387280091
:103FC000B305D701B382854093F4720093070002D2
:103FD00063880406130E1000638EC405930F20003F
:103FE0006386F405130F3000638EE403130840006A
:103FF0006386040313065000638EC40093036000BD
:104000006386740013852E002300F4002300F5005E
:10401000130515002300F500130515002300F50016
:10402000130515002300F500130515002300F50006
:10403000130515002300F500130515006306B502EE
:104040002300F500A300F5002301F500A301F5000E
:104050002302F500A302F5002303F500A303F500F6
:1040600013058500E31EB5FC139506029356050261
:10407000338586000334810583340105130101066D
:10408000678000009B86F6FF9304D00293078100AF
:104090001383070013080000B3F8C502138E050050
:1040A000930E0800130313001B081800B3881F01A8
:1040B00083C80800B3D5C502A30F13FFE37ECEFC6F
:1040C0006FF05FB023009500130515006390030A9D
:1040D0009306E0FFE38202CE6FF0DFCD9B86F6FF12
:1040E0009304B0026FF01FAB034E07009307150057
:1040F0001307F7FF2300C5016FF09FDF130F0002C6
:104100006FF09FA69B86F6FF6FF05FAA9306F0FF05
:10411000930800031304800723001501A300850002
:10412000130525006FF01FBEB305B040E38C03F408
:10413000130E0001630CC607930E80006308D605BA
:104140009B86F6FF9304D002930300026FF01FF4E6
:104150009B86E6FF930300026FF05FA593050003C3
:104160002300B500130515006FF0DFB99306F0FFCB
:104170006FF05FB893051500230015016FF0DFABFA
:104180002300E601130616006FF01FBD9B86E6FFB5
:104190009304D002930300026FF05FEF130F00034C
:1041A0002300E501130515006FF09FF29B86D6FFF3
:1041B0009304D002930300026FF05FED9B86F6FF3D
:1041C0006FF09FBF130101E6233C3113233C111410
:1041D000233881142334B1162338C116233CD11659
:1041E0002330E1182334F11823380119233C111925
:1041F000834205009309811623343101E388021AB2
:104200001304010123349114233021152338411361
:10421000233451132330611313030500233C711120
:1042200013050400130A500213090001971400003B
:104230009384C427130B9000930AE002638A420917
:1042400023005500834213001305150013031300C8
:10425000E39602FE8334811403390114033A0113F7
:10426000833A8112033B0112833B81112300050035
:10427000834F0101E3800F12B70601101305A00060
:104280001383460093020400B70501109309D00080
:104290006386AF0203CE020003260300137F1600DD
:1042A000E31C0FFE9B070E0023A0F50083CF120036
:1042B000638C0F1093821200E39EAFFC832E0300E9
:1042C00093F81E00E39C08FE23A035016FF09FFCCD
:1042D0009307000003461300930B13001B0706FE11
:1042E0009372F70F636C590093932200B385930088
:1042F00083A6050033889600670008009B0806FD2A
:1043000013FEF80F6376CB11930EA0029306F0FF15
:10431000630AD6131307F0FF6306560D137EF60DDE
:104320009308C004631C1E071B0E060003C61B0077
:1043300093083003938B1B009B0EB6FB13F3FE0F09
:1043400063EE6810971F0000938F8F1A131F2300CE
:10435000B302FF0183A30200B385F3016780050068
:1043600093E7170013830B006FF0DFF693E7070165
:1043700013830B006FF01FF693E7470013830B00C6
:104380006FF05FF593E7070213830B006FF09FF464
:1043900093E7870013830B006FF0DFF39B0EB6FBF0
:1043A00013F3FE0F130F3003636A6F0A97120000B6
:1043B00093820221931F2300B3835F0083A5030030
:1043C00033885500670008003B84824083308115A4
:1043D0001B05140003340115833981131301011ADD
:1043E0006780000003C61B009308900013831B0026
:1043F0001B0806FD137EF80F63F8C851930EA00248
:104400006302D655930B0300130700006FF01FF1F2
:1044100093060000130390001B9F2600BB0FDF00D4
:10442000938B1B001B971F00BB02C70003C60B002A
:104430009B8602FD9B0306FD93F5F30FE37EB3FC21
:104440006FF05FED83A6090003462300930B230062
:1044500063C40602938989006FF0DFEB13075002F3
:10446000630CE6502300E50003C80B00130515009C
:10447000E30208DE6F008050BB06D04093E70701DF
:10448000938989006FF01FE99303F00323007500FF
:1044900083C21B001305150013831B00E39002DA8F
:1044A0006FF05FDB03B6090093898900630406504F
:1044B000034E060093F7070163040E7493787700A8
:1044C000930506003307E60063840808834E160050
:1044D0009305160063820E0E130F1000638AE8071F
:1044E000930F20006380F80793023000638658041E
:1044F00093034000638C7802130850006382080322
:10450000130E60006388C80103432600930526004C
:104510006304030A83C8150093851500638E080899
:1045200083CE15009385150063880E0803CF150010
:104530009385150063020F0883CF1500938515003E
:10454000638C0F0683C215009385150063860206EF
:104550006386E50683C3150093851500138805005F
:10456000638C030403CE15009385150063060E04C7
:1045700003432800930528006300030483483800A0
:1045800093053800638A0802834E4800930548006B
:1045900063840E02034F580093055800630E0F000A
:1045A000834F68009305680063880F00834278009A
:1045B00093057800E39E02F8138705003B07C74088
:1045C000638207506354E01013787700B308E60065
:1045D00093070500630C0808130E1000630EC8074C
:1045E000930E20006302D8071303300063066804AB
:1045F000130F4000630AE803930F5000630EF801A5
:10460000930260006314585C83430600938717008D
:1046100013061600A38F77FE034806009387170042
:1046200013061600A38F07FF034E0600938717009B
:1046300013061600A38FC7FF834E0600938717004B
:1046400013061600A38FD7FF0343060093871700B6
:1046500013061600A38F67FE034F0600130616000D
:1046600093871700A38FE7FF63081605834F0600A3
:104670001306860093878700238CF7FF834296FFFB
:10468000A38C57FE8345A6FF238DB7FE8343B6FF59
:10469000A38D77FE0348C6FF238E07FF034ED6FF88
:1046A000A38EC7FF834EE6FF238FD7FF0343F6FF9A
:1046B000A38F67FEE31C16FB9B08F7FF1396080207
:1046C000135F0602130515003305E50113831B0074
:1046D0006350D70C9B86F6FF3B87E6409317070293
:1046E00093DF070293831F0093F573001307050000
:1046F000930200023308750063840506130E100050
:10470000638AC505930E20006382D50593083000A7
:10471000638A1503130640006382C502130F50001D
:10472000638AE501930660006396D54C2300570029
:104730001307170023005700130717002300570023
:104740001307170023005700130717002300570013
:104750001307170013071700A30F57FE630607037D
:1047600023005700A300570023015700A30157005F
:1047700023025700A302570023035700A303570047
:1047800013078700E31E07FD130515003305F50128
:1047900083C21B00E39402AA6FF0DFAB1303F0FFA8
:1047A0006384662083B5090013060001938989009C
:1047B000EFF00FB883C21B0013831B00E39002A825
:1047C0006FF05FA993F707019383890013831B00A0
:1047D000638A071E83A9090013081000330E050120
:1047E00023003501635CD8449395060293DE0502ED
:1047F000B30FD5019B88E6FFB386CF41139608021D
:1048000093F27600135F060293070E00130700026F
:1048100063820206638A02059309200063823205DF
:1048200013083000638A0203930540006382B202DA
:10483000930E5000638AD201930860006396123B86
:104840002380E700938717002380E70093871700F2
:104850002380E700938717002380E70093871700E2
:104860002380E7009387170093871700A38FE7FE45
:104870006386F7032380E700A380E7002381E70036
:10488000A381E7002382E700A382E7002383E700F8
:10489000A383E70093878700E39EF7FD13051E00BF
:1048A0003305E50183C21B0093890300E398029856
:1048B0006FF05F9A1308C0061306000163060E032B
:1048C00083E5090093898900EFF08FA683C21B005E
:1048D00013831B00E39402966FF0DF971306C00664
:1048E0006312CE081306A00083B5090093898900DE
:1048F0006FF09FFD1303C00693E7070463026E0A7F
:10490000130600016FF0DFFB930300001B9F2300E1
:10491000BB0F7F00130313001B971F00BB02C700D0
:10492000034603009B8302FD9B0506FD13F8F50F6C
:10493000E3FE08FD1B87030063CA0302930B030019
:104940006FF0DF9D03A6090013832B009389890074
:104950001B0706006340060403C62B00930B0300ED
:104960006FF0DF9B1306A0006FF09FF513070000A8
:10497000930B03006FF09F9A03C80B0023000501FF
:1049800083C21B001305150013831B00E398028AE2
:104990006FF05F8C03C62B00130700006FF01FFC45
:1049A000130600016FF05FF493E717009306000110
:1049B0006FF05FDF93F707011716000013060682FA
:1049C0006FF0DFAF130E10006358DE241B8FE6FF7D
:1049D000931F0F0293D20F023388C201937678009F
:1049E0009307050013070002B30505016386060659
:1049F000638EC605930E20006386D60593083000AB
:104A0000638E1603130E40006386C6031306500020
:104A1000638EC600130F60006386E60193071500DE
:104A20002300E5002380E700938717002380E70039
:104A3000938717002380E700938717002380E70000
:104A4000938717002380E700938717009387170049
:104A5000A38FE7FE6386B7022380E700A380E70009
:104A60002381E700A381E7002382E700A382E70018
:104A70002383E700A383E70093878700E39EB7FCC7
:104A800083A9090013051500B30F550023803F01CA
:104A900013851F006FF01FE19302C00693E7270004
:104AA000E3025EE483A509001306A0009389890050
:104AB0006FF09FE1930FC00613068000E306FEE34C
:104AC0006FF01FE06358D7169B86F6FFBB87E64062
:104AD0009393070213D80302130E1800937E7E00EF
:104AE00093070500930800023303C50163880E068F
:104AF000130F1000638EEE05930F20006386FE05F2
:104B000093023000638E5E02930540006386BE020E
:104B100093065000638EDE009303600063867E0080
:104B200093071500230015012380170193871700B1
:104B3000238017019387170023801701938717009D
:104B4000238017019387170023801701938717008D
:104B500093871700A38F17FF6386670223801701CF
:104B6000A380170123811701A38117012382170155
:104B7000A382170123831701A3831701938787005B
:104B8000E39E67FC13051500330505019B06F7FF3F
:104B90006FF05FA3833081150334011583398113CE
:104BA000130500001301011A6780000013040101BE
:104BB000130504006FF08FEB93E727006FF09FEE73
:104BC00093E70704130600016FF09FCF83450600AB
:104BD00093071500130616002300B5006FF0DFA23F
:104BE000130680006FF0DFCD93072500A300E500DA
:104BF0006FF01FC513071500230055006FF01FB39A
:104C000013070000E39407AC13831B00E34ED0EAC4
:104C100083C21B006FF01FB803A60900130515001F
:104C200093890300A30FC5FE83C21B00639802E0B3
:104C30006FF04FE29B86F6FF6FF0DF9813050E00D2
:104C40006FF05FC600000000366B20706572666F03
:104C5000726D616E63652072756E20706172616D38
:104C6000657465727320666F7220636F72656D6123
:104C7000726B2E0A0000000000000000000000001F
:104C8000366B2076616C69646174696F6E20727531
:104C90006E20706172616D657465727320666F72EB
:104CA00020636F72656D61726B2E0A000000000058
:104CB00050726F66696C652067656E6572617469B4
:104CC0006F6E2072756E20706172616D65746572B1
:104CD0007320666F7220636F72656D61726B2E0A4E
:104CE0000000000000000000324B20706572666F0B
:104CF000726D616E63652072756E20706172616D98
:104D0000657465727320666F7220636F72656D6182
:104D1000726B2E0A00000000324B2076616C6964D1
:104D20006174696F6E2072756E20706172616D655D
:104D30007465727320666F7220636F72656D617245
:104D40006B2E0A00000000005B25755D4552524F36
:104D50005221206C6973742063726320307825308F
:104D60003478202D2073686F756C64206265203064
:104D700078253034780A00005B25755D4552524F26
:104D80005221206D617472697820637263203078DB
:104D900025303478202D2073686F756C642062652F
:104DA000203078253034780A000000000000000030
:104DB0005B25755D4552524F5221207374617465B5
:104DC0002063726320307825303478202D2073687A
:104DD0006F756C64206265203078253034780A0065
:104DE000436F72654D61726B2053697A6520202094
:104DF000203A20256C750A00546F74616C20746928
:104E0000636B732020202020203A20256C750A0037
:104E1000546F74616C2074696D65202873656373C9
:104E2000293A2025640A0000497465726174696F2B
:104E30006E732F5365632020203A2025640A0000FA
:104E40004552524F5221204D757374206578656329
:104E500075746520666F72206174206C656173746F
:104E6000203130207365637320666F722061207675
:104E7000616C696420726573756C74210A000000AE
:104E8000497465726174696F6E7320202020202040
:104E9000203A20256C750A0047434331352E322EC7
:104EA0003000000000000000436F6D70696C657297
:104EB0002076657273696F6E203A2025730A0000B0
:104EC0002D4F32202D6D617263683D7276363469E4
:104ED0006D5F7A69637372202D6D6162693D6C70DC
:104EE0003634202D666E6F2D636F6D6D6F6E202DC5
:104EF00066756E726F6C6C2D6C6F6F707300000056
:104F0000436F6D70696C657220666C6167732020F9
:104F1000203A2025730A0000535441434B000000FF
:104F20004D656D6F7279206C6F636174696F6E206F
:104F3000203A2025730A000073656564637263205C
:104F40002020202020202020203A203078253034B6
:104F5000780A0000000000005B25645D6372636CEA
:104F6000697374202020202020203A2030782530BA
:104F700034780A00000000005B25645D6372636D95
:104F8000617472697820202020203A203078253002
:104F900034780A00000000005B25645D637263736F
:104FA000746174652020202020203A20307825303C
:104FB00034780A00000000005B25645D637263665C
:104FC000696E616C2020202020203A203078253026
:104FD00034780A0000000000436F72726563742029
:104FE0006F7065726174696F6E2076616C6964615F
:104FF0007465642E2053656520524541444D452E0D
:105000006D6420666F722072756E20616E6420720E
:1050100065706F7274696E672072756C65732E0AA5
:10502000000000000000000043616E6E6F74207687
:10503000616C6964617465206F7065726174696F19
:105040006E20666F72207468657365207365656491
:105050002076616C7565732C20706C6561736520BA
:10506000636F6D7061726520776974682072657313
:10507000756C7473206F6E2061206B6E6F776E207D
:10508000706C6174666F726D2E0A00000000000083
:105090004572726F72732064657465637465640A27
:1050A000000000000000000054302E33652D314612
:1050B00000000000000000002D542E542B2B5471D2
:1050C00000000000000000003154332E3465347AB3
:1050D000000000000000000033342E30652D545EC7
:1050E0000000000000000000352E353030652B3305
:1050F00000000000000000002D2E313233652D32FB
:1051000000000000000000002D3837652B383332D6
:1051100000000000000000002B302E36652D3132DB
:10512000000000000000000033352E3534343030EC
:1051300000000000000000002E31323334353030E2
:1051400000000000000000002D3131302E373030DB
:1051500000000000000000002B302E3634343030C8
:105160000000000000000000353031320000000077
:1051700031323334000000002D3837340000000095
:105180002B313232000000003031323334353637C3
:1051900038396162636465666768696A6B6C6D6EF5
:1051A0006F707172737475767778797A0000000089
:1051B000303132333435363738394142434445464D
:1051C0004748494A4B4C4D4E4F50515253545556F7
:1051D0005758595A000000003C4E554C4C3E0000B8
:1051E000475EBF39A4E53A8E848D000000000000C0
:1051F00052BE99110856D71F470700000000000053
:10520000B0D44033796A14E7C1E300000000000025
:10521000A850000000000000B8500000000000008E
:10522000C850000000000000D8500000000000003E
:10523000E850000000000000F850000000000000EE
:10524000085100000000000018510000000000009C
:10525000285100000000000038510000000000004C
:1052600048510000000000005851000000000000FC
:1052700068510000000000007051000000000000B4
:105280007851000000000000805100000000000084
:10529000B8DFFFFF94DFFFFF9CDFFFFFA4DFFFFF0E
:1052A000B0DFFFFF8CDFFFFF000005800F800A00EA
:1052B0001B801E0014001180338036003C003980B2
:1052C00028002D8027802200638066006C006980A2
:1052D00078007D8077807200500055805F805A0092
:1052E0004B804E0044004180C380C600CC00C98082
:1052F000D800DD80D780D200F000F580FF80FA0072
:10530000EB80EE00E400E180A000A580AF80AA0061
:10531000BB80BE00B400B180938096009C00998051
:1053200088008D8087808200838186018C0189813D
:1053300098019D8197819201B001B581BF81BA0129
:10534000AB81AE01A401A181E001E581EF81EA0119
:10535000FB81FE01F401F181D381D601DC01D98109
:10536000C801CD81C781C201400145814F814A01F9
:105370005B815E0154015181738176017C017981E9
:1053800068016D8167816201238126012C012981D9
:1053900038013D8137813201100115811F811A01C9
:1053A0000B810E0104010181038306030C030983B1
:1053B00018031D8317831203300335833F833A0399
:1053C0002B832E0324032183600365836F836A0389
:1053D0007B837E0374037183538356035C03598379
:1053E00048034D8347834203C003C583CF83CA0369
:1053F000DB83DE03D403D183F383F603FC03F98359
:10540000E803ED83E783E203A383A603AC03A98348
:10541000B803BD83B783B203900395839F839A0338
:105420008B838E0384038183800285828F828A022C
:105430009B829E0294029182B382B602BC02B98220
:10544000A802AD82A782A202E382E602EC02E98210
:10545000F802FD82F782F202D002D582DF82DA0200
:10546000CB82CE02C402C182438246024C024982F0
:1054700058025D8257825202700275827F827A02E0
:105480006B826E0264026182200225822F822A02D0
:105490003B823E0234023182138216021C021982C0
:1054A00008020D8207820202E8EEFFFF54EEFFFFC2
:1054B00054EEFFFFDCEEFFFF54EEFFFF54EEFFFF64
:1054C00054EEFFFF54EEFFFF54EEFFFF54EEFFFFDC
:1054D00054EEFFFFD0EEFFFF54EEFFFFC4EEFFFFE0
:1054E00054EEFFFF54EEFFFFB8EEFFFF9CEFFFFF0F
:1054F00070EFFFFF9CEFFFFF70EFFFFF70EFFFFF0C
:1055000070EFFFFF70EFFFFF70EFFFFF70EFFFFF27
:1055100070EFFFFF70EFFFFF70EFFFFF70EFFFFF17
:1055200070EFFFFF70EFFFFF70EFFFFF70EFFFFF07
:1055300070EFFFFF70EFFFFF08F4FFFF70EFFFFF5A
:1055400070EFFFFF70EFFFFF70EFFFFF70EFFFFFE7
:1055500070EFFFFF70EFFFFF70EFFFFF70EFFFFFD7
:1055600070EFFFFFD8F2FFFFACF5FFFF9CEFFFFFEE
:105570009CEFFFFF9CEFFFFF70EFFFFFACF5FFFF1D
:1055800070EFFFFF70EFFFFF70EFFFFF70EFFFFFA7
:1055900070EFFFFFC8F5FFFFB0F2FFFF70EFFFFFF6
:1055A00070EFFFFFB8EFFFFF70EFFFFFF0F3FFFFBB
:1055B00070EFFFFF70EFFFFFC8F3FFFFCCEEFFFFC0
:1055C000A0EEFFFFCCEEFFFFA0EEFFFFA0EEFFFF7F
:1055D000A0EEFFFFA0EEFFFFA0EEFFFFA0EEFFFF9B
:1055E000A0EEFFFFA0EEFFFFA0EEFFFFA0EEFFFF8B
:1055F000A0EEFFFFA0EEFFFFA0EEFFFFA0EEFFFF7B
:10560000A0EEFFFFA0EEFFFF04F6FFFFA0EEFFFFFE
:10561000A0EEFFFFA0EEFFFFA0EEFFFFA0EEFFFF5A
:10562000A0EEFFFFA0EEFFFFA0EEFFFFA0EEFFFF4A
:10563000A0EEFFFF08F2FFFFFCF5FFFFCCEEFFFF3F
:10564000CCEEFFFFCCEEFFFFA0EEFFFFFCF5FFFF6F
:10565000A0EEFFFFA0EEFFFFA0EEFFFFA0EEFFFF1A
:10566000A0EEFFFF24F6FFFFE0F1FFFFA0EEFFFF3B
:10567000A0EEFFFFE8EEFFFFA0EEFFFFA8F3FFFFA5
:10568000A0EEFFFFA0EEFFFF44F3FFFF00000000CD
:085690000100000066000000AB
:00000001FF
