:1000000073104030970100109381C17F1741001099
:1000100013014103170500101305C5FE97250000C5
:100020009385C5E4170600101306C6FD637CC50062
:1000300083B20500233055001305850093858500A4
:10004000E368C5FE170500101305C5FB97250010D2
:100050009385457F6378B50023300500130585003F
:10006000E36CB5FE130500009305000013060000C5
:10007000EF0080006F000000130101F613058003FC
:10008000233C1108233451072330610723388108AA
:10009000138B01832334910823302109233C31073A
:1000A00023384107233C7105EF0010332330AB00A8
:1000B00013058003EF00503283370B00938A81834E
:1000C00023B0AA002330F50003B50A0093071000FF
:1000D000939717022334F500930780022328F50035
:1000E000971500009385055513054501EF0010365F
:1000F000971500009385855613050101EF00103513
:100100009307A000171500001305455717070010A7
:10011000232CF75AEF0050351715000013058556AC
:10012000EF0090341715000013054555EF00D0334C
:1001300083A70182638607521715000013058557B0
:10014000EF0090321715000013054553EF00D03132
:10015000B79504009385053E171500001305855BD0
:10016000EF00903013858184EF00501B938B8184C6
:1001700083B70B0093041000138A040023BCF180A2
:100180009309100493072004971500009385855B5D
:10019000130501032382F182A382318323A44183C7
:1001A000EF00D02A93050103130501012326410125
:1001B000EF00D00A1335150023A4A1829307700025
:1001C0001306810093053000130520002324F1005D
:1001D000EF00C07F832681001306300097050010D2
:1001E0009385C5E81725001013054559EF00007FDA
:1001F00003B50A00EF00406503C74182930700047E
:1002000063FCE74413041004130930006F0040013D
:1002100083C741821B0414001374F40F63E6870440
:100220009305300413050400EF0050018327C1003B
:10023000E390A7FE9305C10013050000EF000074D2
:1002400013050103971500009385C551EF00102099
:1002500023A6918283C741821B0414001374F40FF8
:1002600013890400E3FE87FA1B1719003B072701D7
:100270000326810083C75182BB46C7021384060050
:100280006398370183A7C1821B8496003B04F44026
:10029000B79704009B8414009387173EE394F4EE11
:1002A0003B07C7409B143700BB84E440138581841F
:1002B000BB84D440EF00900683B70B0017150000F5
:1002C0001305454C23B8F180EF00101A17150000F4
:1002D0001305C53AEF005019171500001305854B9B
:1002E000EF0090181715000013054539EF00D017DF
:1002F00083A5C182171500001305454DEF00D016E8
:1003000093055000171500001305454EEF00D0155A
:1003100083A58182171500001305454FEF00D01407
:1003200093051000171500001305454CEF00D0137E
:1003300083C55182171500001305454FEF00D012F9
:10034000930510041715000013054550EF00D01158
:1003500083C541821715000013054551EF00D010E9
:1003600093052004171500001305454EEF00D00F2C
:100370009725001083A58542171500001305055128
:10038000EF00900E93057000171500001305054649
:10039000EF00900D9705001083A505331715000099
:1003A0001305C550EF00500C17150000130505523A
:1003B000EF00900B1715000013054554EF00D00A0D
:1003C00083B70A00171500001305455483A50700DD
:1003D000EF0090091715000013054555EF00D008F0
:1003E00083B70A00171500001305C55783A58700BA
:1003F000EF00900793050000171500001305053F57
:10040000EF00900683B70A00171500001305855703
:1004100083A5C700EF0050059305200017150000C5
:100420001305C53CEF00500483B70A001715000000
:100430001305455783A50701EF001003930510012D
:10044000171500001305853AEF00100283B50A0066
:10045000171500001305055793854501EF00D000DF
:100460001715000013050558EF00100017150000C0
:100470001305C55AEF00407F83370B0017150000A6
:100480001305C54883A50700EF00007E171500007F
:100490001305455AEF00407D83370B001715000008
:1004A0001305454C83A58700EF00007C93050000F1
:1004B0001715000013058533EF00007B83370B0011
:1004C000171500001305054C83A5C700EF00C07980
:1004D000930510001715000013054531EF00C07893
:1004E00083370B00171500001305C54B83A50701C3
:1004F000EF00807793052001171500001305052FE5
:10050000EF00807683350B00171500001305854B2F
:1005100093854501EF004075171500001305854CC4
:10052000EF0080749305040017150000130585542F
:10053000EF00807393055000171500001305052B7D
:10054000EF00807293850400171500001305855491
:10055000EF0080719305D0001715000013050529E1
:10056000EF00807083258100171500001305855466
:10057000EF00806F93057000171500001305052725
:10058000EF00806E8325C100171500001305855408
:10059000EF00806D93051000171500001305052569
:1005A000EF00806C930501011715000013058554B9
:1005B000EF00806B171500001305C555EF00C06AEA
:1005C000930501031715000013054558EF00C06996
:1005D0001715000013058559EF0000691715000075
:1005E0001305C509EF00406803B7818103B5018198
:1005F000B7175B05938777463305E540170700106B
:100600002336A7A063CCA70617150000130585594C
:10061000EF008065171500001305455CEF00C0640E
:100620001715000013058505EF000064833081096C
:1006300003340109833481080339010883398107B0
:10064000033A0107833A8106033B0106833B810598
:100650001301010A67800000130790006FF05FC16B
:100660001715000013050508EF00006017150000BE
:100670001305C500EF00405F6FF09FADEF00906580
:100680009715000083A5057E13040500970400104C
:1006900093848497EF00902F9715000083A5C57C65
:1006A000EF00100523A0A400171500000325C57B4B
:1006B00093050400170400101304C494EF005003C2
:1006C0002320A4001715000013054553EF00C0595F
:1006D00003A50400EF0050589B0505001715000006
:1006E0001305C554EF004058171500001305855435
:1006F000EF00805703250400EF0010569B0505000E
:100700001715000013058552EF000056171500005D
:100710001305C5F6EF0040556FF05FF13367B50084
:100720009303F0FF13777700631C070C9717000003
:1007300083B7C7720336050083B60500B372F600AF
:100740003363F600B382F200B3E26200639E720C80
:100750006316D6040336850083B68500B372F600AF
:100760003363F600B382F200B3E26200639A720A66
:100770006316D6020336050183B60501B372F6008F
:100780003363F600B382F200B3E262006394720A4C
:100790001305850193858501E30ED6F8131706032B
:1007A00093970603631AF70213170602939706023C
:1007B0006314F7021317060193970601631EF700EF
:1007C0001357060393D706033305F7409375F50FC8
:1007D00063900502678000001357070393D7070350
:1007E0003305F7409375F50F6394050067800000AB
:1007F0001377F70F93F7F70F3305F7406780000083
:100800000346050083C605001305150093851500F2
:100810006314D600E31606FE3305D6406780000059
:100820001305850093858500E31CD6FC13050000A5
:10083000678000001305050193850501E312D6FCCE
:100840001305000067800000130101FE2330210121
:100850001389818383370900233881002334910071
:10086000233C110003B6870103B787020334050058
:1008700003B8070083B5070183B607029304050098
:1008800003B58700233004012338B400233CC4009F
:100890002334A4002330D4022334E40203B7070333
:1008A000930750002338E40223A8F4002328F4001F
:1008B00083B704002330F400033609006308060000
:1008C000833706002330F4000336090083A5C18274
:1008D000130606011305A000EF00400F83278400D4
:1008E000638C070483B7040083B8070003B887004C
:1008F00083B5070103B6870183B6070203B78702F2
:1009000023B0140123B4040123B8B40023BCC400F1
:1009100023B0D40223B4E40283B7070323B8F4025C
:1009200083308101033401018334810003390100E4
:100930001301010267800000930760002328F40080
:1009400003A5C4009305C400EF00400383370900EA
:10095000032504011306040183B7070083308101D6
:10096000833481002330F400033401010339010092
:100970009305A000130101026F00400593072000BA
:10098000630CF5021307300023A0E50013071000E5
:10099000630AE500130740006306E502630A0500E9
:1009A0006780000003A7C18293074006E3DAE7FEF1
:1009B00023A00500678000009307100023A0F50026
:1009C0006780000023A0F500678000001B0525005C
:1009D0003B05B5002320A600678000001B075600DA
:1009E0001308800C330807031316260093172700FB
:1009F0003305F5002320D500232CE5062322D5005E
:100A0000B307C800B387F50083A6070123AAE70050
:100A100023ACE7001B87160023A8E7000327050087
:100A2000B3850501B385C5009385F57F9307500015
:100A3000A3AAE57A23A6F182678000001375F50F5B
:100A400093F5F50F6306B5001305000067800000FD
:100A5000A382A18213051000678000008347250050
:100A600003C73500630AF702130101FF23341100A5
:100A7000EFF0DFCA930700006358A0009307A000BF
:100A800023A6F182930710008330810013850700AD
:100A900013010101678000006F000000370701109B
:100AA00013074700B70601108327070093F71700C5
:100AB000E39C07FE1B05050023A0A600678000003D
:100AC00083470500638007043707011013074700B9
:100AD0009305A000370601101308D0006386B70203
:100AE00083460500130515008327070093F71700B9
:100AF000E39C07FE9B8706002320F6008347050042
:100B0000E39E07FC678000008327070093F7170028
:100B1000E39C07FE232006016FF09FFCF32700B043
:100B2000630A05002330F50023340500233805004F
:100B3000233C05001B850700678000009718000014
:100B400093884812631606009718000093880813CC
:100B500063000508130101FC93950502233C110273
:100B6000233881022334910293D5050293060100B4
:100B7000930700003377B5021306050013840700BE
:100B80009B871700138807FE938616003387E800BB
:100B9000034707003355B502A38FE6FE6364B60032
:100BA000E31A08FC330481009304F1FF03450400B9
:100BB0001304F4FFEFF09FEEE31A94FE83308103F9
:100BC00003340103833481021301010467800000B0
:100BD000130500036FF09FEC9307050063040506FF
:100BE00003B50184630805021307100013170702F9
:100BF000130787FF93877700B3F7E700B307F50084
:100C000017370010130707C4636EF70223B0F1848F
:100C100067800000172500101305C5C223B0A1840A
:100C20001307100013170702130787FF9387770036
:100C3000B3F7E700B307F50017370010130787C0B5
:100C4000E376F7FC130500006780000093070500BA
:100C500003C705009385150093871700A38FE7FE50
:100C6000E31807FE67800000130101F613038106F5
:100C7000233C1104233491042334B1062338C106E4
:100C8000233CD1062330E1082334F108233801093D
:100C9000233C1109233C61006302052423388104AD
:100CA0001304050003450500630E052223302105CA
:100CB000233C3103233841032334510323306103A0
:100CC0009304000013095002130AC006930A00029D
:100CD00097190000938989FC130B1400631E2509E2
:100CE000834714009306000063884703638E07025E
:100CF00013041B00638027191B8787FA1377F70FEC
:100D000063E8EA08131727003307370103270700B2
:100D1000330737016700070083472400130B2400C3
:100D200093061000E39607FC13055002EFF01FD75F
:100D300013040B009307F00313850700EFF01FD691
:100D4000034504009B842400E31805F803340105DF
:100D50000339010483398103033A0103833A810291
:100D6000033B010283308105138504008334810431
:100D70001301010A67800000EFF05FD29B8414002A
:100D800013040B0003450400E31805F46FF01FFC87
:100D9000130550022334F100EFF05FD08337810058
:100DA0006FF09FF98337810113878700638C060CEE
:100DB00003BB0700233CE100634C0B0C13050B0045
:100DC000130600009305A000EFF05FD76FF09FFBC4
:100DD0008337810103B5070093878700233CF10027
:100DE0006308050EEFF0DFCD6FF0DFF98337810187
:100DF0009B84140003C5070093878700233CF10000
:100E0000EFF0DFC96FF01FF8833781011387870088
:100E1000638E060803B50700233CE10013061000AB
:100E200093050001EFF09FD16FF0DFF5833781016B
:100E3000138787006382060803B50700233CE1009F
:100E40001306000093050001EFF05FCF6FF09FF3F2
:100E500083378101138787006386060603B5070081
:100E6000233CE100130600009305A000EFF01FCD26
:100E70006FF05FF113050900EFF05FC29B8414006F
:100E80006FF05FF003AB0700233CE100E3580BF287
:100E90001305D002EFF09FC0330560411306000038
:100EA0009305A000EFF09FC96FF0DFED03E50700A9
:100EB000233CE1006FF09FF603E50700233CE100CF
:100EC0006FF01FF803E50700233CE1006FF09FF986
:100ED00017150000130505DC6FF0DFF09304000028
:100EE0006FF05FE803340105930400006FF09FE7A3
:100EF000130101FC233491029B547501233021031B
:100F0000233C31012334510113199502233C110272
:100F1000233881022338410193F4F40F938A0500AA
:100F2000135999029B59F501638404089307F00F44
:100F30006382F40A13193900B70700043369F90012
:100F4000938414F8130A00009BD77A0113949A0231
:100F500093F7F70F135494029BDAFA01638A070898
:100F60001307F00F6388E70A1314340037070004EF
:100F70003364E400938717F813070000B384F44048
:100F800093172A00B3E7E7009387F7FF9306E00083
:100F900033C5590163EEF608B72600009397270082
:100FA0009386C6D1B387D70083A707006780070061
:100FB000630A090213050900EF0080639B0705001F
:100FC0009304A0FA1B05B5FD3319A900B384F440BE
:100FD0006FF05FF7130A2000E30809F6130A3000E8
:100FE0006FF09FF693040000130A10006FF0DFF516
:100FF000630A040213050400EF00805F1B0705006D
:101000009307A0FA1B05B5FD3314A400B387E7408E
:101010006FF09FF613072000E30204F61307300079
:101020006FF0DFF593070000130710006FF01FF556
:101030009307A001637689009384F4FF9307B001BE
:10104000B317F90033F78702B3D787023337E000CD
:101050003364F7001387F407635AE00A9377740048
:10106000638A07009377F400930640006384D700F7
:101070003304D4009317440263DA0700B70700F87B
:101080009387F7FF3374F400138704089307E00F86
:1010900063C8E70E935734008330810303340103A0
:1010A000939797021B17770193D797023367F7003F
:1010B0001B15F50183348102033901028339810153
:1010C000033A0101833A81003365E500130101040D
:1010D0006780000013850A00930720006302F70A67
:1010E000930730006306F70893071000E314F7F640
:1010F00093070000130700006FF01FFA1385090023
:101100001304090013070A006FF01FFD630E0704A4
:10111000930760FEE34EF7FC930710003387E74028
:1011200093060004B357E4003B87E6403314E40021
:1011300033348000B3E7870013F77700630A0700B2
:1011400013F7F700930640006304D700B387D70076
:101150001397570293D73700E35E07F89307000011
:10116000130710006FF05FF3130710006FF05FFBC1
:10117000B70740001307F00F130500006FF0DFF111
:10118000930700001307F00F6FF01FF1130101FC2C
:10119000233021031B59750123349102233C310173
:1011A0002334510193149502233C11022338810208
:1011B000233841011379F90F938A050093D49402DF
:1011C0009B59F501630609129307F00F6304F914A4
:1011D00093943400B7070004B3E4F400130919F83A
:1011E000130A00009BD77A0113949A0293F7F70F22
:1011F000135494029BDAFA01638C07121307F00F61
:10120000638AE71413143400370700043364E400DE
:10121000938717F8130700003309F90093172A0082
:10122000B3E7E7009306A0001306190063C4F6189D
:1012300093052000B3C959019306100063CAF51243
:101240009387F7FF63F6F614B384840293D7A4015F
:1012500093946402B33490001397470233E49700E9
:1012600063580716935714001374140033E487006F
:101270001307F6076352E01693777400638A07003A
:101280009377F400930640006384D7003304D400BE
:101290009317440263DA0700B70700F89387F7FF54
:1012A0003374F400130706089307E00F63C0E71ACE
:1012B00093573400833081030334010393979702DB
:1012C0001B17770193D797021B95F9013367F70036
:1012D000833481020339010283398101033A010118
:1012E000833A81003365E500130101046780000043
:1012F000638A040213850400EF00802F9B0705001A
:101300001309A0FA1B05B5FDB394A4003309F940F5
:101310006FF01FED130A2000E38604EC130A30007F
:101320006FF05FEC13090000130A10006FF09FEBE1
:10133000630A040213050400EF00802B1B0705005D
:101340009307A0FA1B05B5FD3314A400B387E7404B
:101350006FF05FEC13072000E30004EC130730008C
:101360006FF09FEB93070000130710006FF0DFEAA8
:10137000B397F60093F607536396060493F6072493
:10138000639E060A93F78708E38007EC93890A00B7
:1013900093072000630CF70A930730006300F70AF5
:1013A00093071000E316F7EC930700001307000003
:1013B0006FF05FF09306F0006382D7089306B000E9
:1013C000E386D7FC1384040013070A006FF05FFC68
:1013D000130609006FF0DFE9630E0704930760FE50
:1013E000E344F7FC930710003387E74093060004BB
:1013F000B357E4003B87E6403314E4003334800005
:10140000B3E7870013F77700630A070013F7F700C5
:10141000930640006304D700B387D70013975702A1
:1014200093D73700E35407F8930700001307100021
:101430006FF05FE8130710006FF05FFBB707400025
:101440001307F00F930900006FF0DFE69307000029
:101450001307F00F6FF01FE6370680001B5775016A
:101460009307F6FF1377F70F9305E007B3F7A7008D
:101470009B56F50163DCE5049305D00963DAE500CA
:10148000370500801B05F5FF3B85A600678000003F
:101490001395070213550502930750093365C500DC
:1014A00063DCE7001B07A7F63B15E5006382060235
:1014B0003B05A0406780000093076009BB87E740B9
:1014C0003355F5001B0505006FF05FFE13050000A6
:1014D00067800000130101FE233C110023388100C6
:1014E0002334910093070500630A050E1357F54353
:1014F0003344A7003304E4409354F5031305040078
:10150000EF00000F9307E00B1B0705009306700226
:10151000BB87A74063D0E604930680026306D70C1E
:101520001B0585FD3314A400131494021354940274
:101530009B97770183308101B3E787000334010172
:101540001B95F4013365F50083348100130101021A
:10155000678000009306400263C4E6061B07B501DE
:10156000930650023317E400BB86A6403337E000F1
:101570003354D40033648700370700FC1307F7FFA8
:10158000937674003377E400638606041374F400E2
:10159000930640006300D4043307D7009316570224
:1015A0001354370063D80602370700FC1307F7FF10
:1015B00013573700938717003374E4006FF0DFF69A
:1015C00093065002E30AD7FA1B05B5FD3314A400B5
:1015D0006FF09FFA135437006FF01FF5930400006B
:1015E000130400006FF05FF4930760096FF0DFF3FE
:1015F000930780033357F5009376F70F639606023F
:10160000938787FFE39807FE130700043307F7402B
:10161000B7270000938787D5B387A70003C50700C6
:101620003B05A74067800000130507006FF0DFFD52
:101630004448525953544F4E452050524F475241FF
:101640004D2C20534F4D4520535452494E470000D6
:1016500000000000000000004448525953544F4E0F
:10166000452050524F4752414D2C20312753542092
:10167000535452494E4700000A0000000000000089
:101680004468727973746F6E652042656E63686D2D
:1016900061726B2C2056657273696F6E20322E3129
:1016A00020284C616E67756167653A2043290A00FE
:1016B00050726F6772616D20636F6D70696C6564E5
:1016C000207769746820277265676973746572276B
:1016D000206174747269627574650A00000000000C
:1016E00050726F6772616D20636F6D70696C6564B5
:1016F00020776974686F75742027726567697374E1
:10170000657227206174747269627574650A0000DD
:10171000457865637574696F6E2073746172747354
:101720002C2025642072756E73207468726F756743
:1017300068204468727973746F6E650A0000000057
:101740004448525953544F4E452050524F475241EE
:101750004D2C2032274E4420535452494E4700000E
:101760004448525953544F4E452050524F475241CE
:101770004D2C203327524420535452494E470000E9
:10178000457865637574696F6E20656E64730A00D1
:1017900046696E616C2076616C756573206F66209A
:1017A000746865207661726961626C657320757317
:1017B000656420696E207468652062656E63686D7B
:1017C00061726B3A0A000000496E745F476C6F6289
:1017D0003A20202020202020202020202025640ABC
:1017E00000000000000000002020202020202020F9
:1017F00073686F756C642062653A20202025640A46
:101800000000000000000000426F6F6C5F476C6FCB
:10181000623A202020202020202020202025640A39
:10182000000000000000000043685F315F476C6FFC
:10183000623A202020202020202020202025630A1A
:101840000000000000000000202020202020202098
:1018500073686F756C642062653A20202025630AE6
:10186000000000000000000043685F325F476C6FBB
:10187000623A202020202020202020202025630ADA
:1018800000000000000000004172725F315F476C91
:101890006F625B385D3A2020202020202025640ADA
:1018A00000000000000000004172725F325F476C70
:1018B0006F625B385D5B375D3A2020202025640A2B
:1018C0000000000000000000202020202020202018
:1018D00073686F756C642062653A2020204E756DC8
:1018E0006265725F4F665F52756E73202B203130D8
:1018F0000A000000000000005074725F476C6F62C5
:101900002D3E0A000000000020205074725F436FDB
:101910006D703A2020202020202020202025640ADD
:1019200000000000000000002020202020202020B7
:1019300073686F756C642062653A20202028696D99
:10194000706C656D656E746174696F6E2D64657021
:10195000656E64656E74290A0000000000000000D6
:10196000202044697363723A202020202020202008
:10197000202020202025640A000000000000000034
:101980002020456E756D5F436F6D703A20202020DA
:10199000202020202025640A000000000000000014
:1019A0002020496E745F436F6D703A202020202004
:1019B000202020202025640A0000000000000000F4
:1019C00020205374725F436F6D703A2020202020D6
:1019D000202020202025730A0000000000000000C5
:1019E000202020202020202073686F756C642062E6
:1019F000653A2020204448525953544F4E452050B8
:101A0000524F4752414D2C20534F4D452053545275
:101A1000494E470A000000004E6578745F507472AA
:101A20005F476C6F622D3E0A00000000000000005E
:101A3000202020202020202073686F756C64206295
:101A4000653A20202028696D706C656D656E746143
:101A500074696F6E2D646570656E64656E74292C93
:101A60002073616D652061732061626F76650A0085
:101A7000496E745F315F4C6F633A20202020202034
:101A8000202020202025640A000000000000000023
:101A9000496E745F325F4C6F633A20202020202013
:101AA000202020202025640A000000000000000003
:101AB000496E745F335F4C6F633A202020202020F2
:101AC000202020202025640A0000000000000000E3
:101AD000456E756D5F4C6F633A20202020202020DA
:101AE000202020202025640A0000000000000000C3
:101AF0005374725F315F4C6F633A202020202020A6
:101B0000202020202025730A000000000000000093
:101B1000202020202020202073686F756C642062B4
:101B2000653A2020204448525953544F4E45205086
:101B3000524F4752414D2C20312753542053545279
:101B4000494E470A000000005374725F325F4C6FC9
:101B5000633A202020202020202020202025730AE6
:101B60000000000000000000202020202020202075
:101B700073686F756C642062653A20202044485277
:101B80005953544F4E452050524F4752414D2C20EF
:101B900032274E4420535452494E470A0000000059
:101BA0004D656173757265642074696D6520746F2D
:101BB0006F20736D616C6C20746F206F627461694B
:101BC0006E206D65616E696E6766756C20726573F7
:101BD000756C74730A000000506C65617365206950
:101BE0006E637265617365206E756D626572206FDC
:101BF000662072756E730A004D6963726F73656358
:101C00006F6E647320666F72206F6E652072756EE2
:101C1000207468726F756768204468727973746F96
:101C20006E653A20000000002564200A00000000D4
:101C30004468727973746F6E657320706572205397
:101C400065636F6E643A2020202020202020202011
:101C50002020202020202020202020200000000004
:101C600030313233343536373839414243444546D2
:101C700000000000000000003031323334353637C8
:101C8000383961626364656600000000000000008E
:101C9000286E756C6C29000070F1FFFFF8F0FFFFF3
:101CA000F8F0FFFFF8F0FFFFF8F0FFFFF8F0FFFF9C
:101CB000F8F0FFFFF8F0FFFFF8F0FFFFF8F0FFFF8C
:101CC000F8F0FFFF54F1FFFF0CF1FFFFF8F0FFFF0A
:101CD000F8F0FFFFF8F0FFFFF8F0FFFF0CF1FFFF57
:101CE000F8F0FFFFF8F0FFFFF8F0FFFFF8F0FFFF5C
:101CF000F8F0FFFFF8F0FFFFF8F0FFFFF8F0FFFF4C
:101D0000F8F0FFFF38F1FFFFF8F0FFFFB8F1FFFF39
:101D1000F8F0FFFFF8F0FFFF94F1FFFF80110000E3
:101D2000F0100000D4100000F0100000701100004E
:101D3000F0100000D410000080110000801100009D
:101D400070110000D4100000FC100000FC10000016
:101D5000FC100000701100000001020203030303E5
:101D6000040404040404040405050505050505052B
:101D7000050505050505050506060606060606060B
:101D800006060606060606060606060606060606F3
:101D900006060606060606060707070707070707DB
:101DA00007070707070707070707070707070707C3
:101DB00007070707070707070707070707070707B3
:101DC00007070707070707070707070707070707A3
:101DD000070707070707070708080808080808088B
:101DE0000808080808080808080808080808080873
:101DF0000808080808080808080808080808080863
:101E00000808080808080808080808080808080852
:101E10000808080808080808080808080808080842
:101E20000808080808080808080808080808080832
:101E30000808080808080808080808080808080822
:101E40000808080808080808080808080808080812
:101E500008080808080808087F7F7F7F7F7F7F7F4A
:081E600000247449702244556E
:00000001FF
